{"contracts/SimpleSwap.sol":{"SimpleSwap":{"abi":[{"inputs":[],"stateMutability":"nonpayable","type":"constructor"},{"inputs":[{"internalType":"address","name":"spender","type":"address"},{"internalType":"uint256","name":"allowance","type":"uint256"},{"internalType":"uint256","name":"needed","type":"uint256"}],"name":"ERC20InsufficientAllowance","type":"error"},{"inputs":[{"internalType":"address","name":"sender","type":"address"},{"internalType":"uint256","name":"balance","type":"uint256"},{"internalType":"uint256","name":"needed","type":"uint256"}],"name":"ERC20InsufficientBalance","type":"error"},{"inputs":[{"internalType":"address","name":"approver","type":"address"}],"name":"ERC20InvalidApprover","type":"error"},{"inputs":[{"internalType":"address","name":"receiver","type":"address"}],"name":"ERC20InvalidReceiver","type":"error"},{"inputs":[{"internalType":"address","name":"sender","type":"address"}],"name":"ERC20InvalidSender","type":"error"},{"inputs":[{"internalType":"address","name":"spender","type":"address"}],"name":"ERC20InvalidSpender","type":"error"},{"anonymous":false,"inputs":[{"indexed":true,"internalType":"address","name":"owner","type":"address"},{"indexed":true,"internalType":"address","name":"spender","type":"address"},{"indexed":false,"internalType":"uint256","name":"value","type":"uint256"}],"name":"Approval","type":"event"},{"anonymous":false,"inputs":[{"indexed":true,"internalType":"address","name":"sender","type":"address"},{"indexed":true,"internalType":"address","name":"tokenA","type":"address"},{"indexed":true,"internalType":"address","name":"tokenB","type":"address"},{"indexed":false,"internalType":"uint256","name":"amountASent","type":"uint256"},{"indexed":false,"internalType":"uint256","name":"amountBSent","type":"uint256"},{"indexed":false,"internalType":"uint256","name":"liquidity","type":"uint256"}],"name":"LiquidityAdded","type":"event"},{"anonymous":false,"inputs":[{"indexed":true,"internalType":"address","name":"recipient","type":"address"},{"indexed":true,"internalType":"address","name":"tokenA","type":"address"},{"indexed":true,"internalType":"address","name":"tokenB","type":"address"},{"indexed":false,"internalType":"uint256","name":"amountASent","type":"uint256"},{"indexed":false,"internalType":"uint256","name":"amountBSent","type":"uint256"},{"indexed":false,"internalType":"uint256","name":"liquidity","type":"uint256"}],"name":"LiquidityRemoved","type":"event"},{"anonymous":false,"inputs":[{"indexed":true,"internalType":"address","name":"sender","type":"address"},{"indexed":true,"internalType":"address","name":"recipient","type":"address"},{"indexed":false,"internalType":"address","name":"tokenIn","type":"address"},{"indexed":false,"internalType":"address","name":"tokenOut","type":"address"},{"indexed":false,"internalType":"uint256","name":"amountIn","type":"uint256"},{"indexed":false,"internalType":"uint256","name":"amountOut","type":"uint256"}],"name":"Swap","type":"event"},{"anonymous":false,"inputs":[{"indexed":true,"internalType":"address","name":"from","type":"address"},{"indexed":true,"internalType":"address","name":"to","type":"address"},{"indexed":false,"internalType":"uint256","name":"value","type":"uint256"}],"name":"Transfer","type":"event"},{"inputs":[{"internalType":"address","name":"tokenA","type":"address"},{"internalType":"address","name":"tokenB","type":"address"},{"internalType":"uint256","name":"amountADesired","type":"uint256"},{"internalType":"uint256","name":"amountBDesired","type":"uint256"},{"internalType":"uint256","name":"amountAMin","type":"uint256"},{"internalType":"uint256","name":"amountBMin","type":"uint256"},{"internalType":"address","name":"to","type":"address"},{"internalType":"uint256","name":"deadline","type":"uint256"}],"name":"addLiquidity","outputs":[{"internalType":"uint256","name":"amountASent","type":"uint256"},{"internalType":"uint256","name":"amountBSent","type":"uint256"},{"internalType":"uint256","name":"liquidity","type":"uint256"}],"stateMutability":"nonpayable","type":"function"},{"inputs":[{"internalType":"address","name":"owner","type":"address"},{"internalType":"address","name":"spender","type":"address"}],"name":"allowance","outputs":[{"internalType":"uint256","name":"","type":"uint256"}],"stateMutability":"view","type":"function"},{"inputs":[{"internalType":"address","name":"spender","type":"address"},{"internalType":"uint256","name":"value","type":"uint256"}],"name":"approve","outputs":[{"internalType":"bool","name":"","type":"bool"}],"stateMutability":"nonpayable","type":"function"},{"inputs":[{"internalType":"address","name":"account","type":"address"}],"name":"balanceOf","outputs":[{"internalType":"uint256","name":"","type":"uint256"}],"stateMutability":"view","type":"function"},{"inputs":[],"name":"decimals","outputs":[{"internalType":"uint8","name":"","type":"uint8"}],"stateMutability":"view","type":"function"},{"inputs":[{"internalType":"uint256","name":"amountIn","type":"uint256"},{"internalType":"uint256","name":"reserveIn","type":"uint256"},{"internalType":"uint256","name":"reserveOut","type":"uint256"}],"name":"getAmountOut","outputs":[{"internalType":"uint256","name":"amountOut","type":"uint256"}],"stateMutability":"pure","type":"function"},{"inputs":[{"internalType":"address","name":"tokenA","type":"address"},{"internalType":"address","name":"tokenB","type":"address"}],"name":"getPrice","outputs":[{"internalType":"uint256","name":"price","type":"uint256"}],"stateMutability":"view","type":"function"},{"inputs":[],"name":"name","outputs":[{"internalType":"string","name":"","type":"string"}],"stateMutability":"view","type":"function"},{"inputs":[{"internalType":"bytes32","name":"","type":"bytes32"}],"name":"pools","outputs":[{"internalType":"uint256","name":"reserveA","type":"uint256"},{"internalType":"uint256","name":"reserveB","type":"uint256"},{"internalType":"uint256","name":"totalLiquidity","type":"uint256"}],"stateMutability":"view","type":"function"},{"inputs":[{"internalType":"address","name":"tokenA","type":"address"},{"internalType":"address","name":"tokenB","type":"address"},{"internalType":"uint256","name":"liquidity","type":"uint256"},{"internalType":"uint256","name":"amountAMin","type":"uint256"},{"internalType":"uint256","name":"amountBMin","type":"uint256"},{"internalType":"address","name":"to","type":"address"},{"internalType":"uint256","name":"deadline","type":"uint256"}],"name":"removeLiquidity","outputs":[{"internalType":"uint256","name":"amountASent","type":"uint256"},{"internalType":"uint256","name":"amountBSent","type":"uint256"}],"stateMutability":"nonpayable","type":"function"},{"inputs":[{"internalType":"uint256","name":"amountIn","type":"uint256"},{"internalType":"uint256","name":"amountOutMin","type":"uint256"},{"internalType":"address[]","name":"path","type":"address[]"},{"internalType":"address","name":"to","type":"address"},{"internalType":"uint256","name":"deadline","type":"uint256"}],"name":"swapExactTokensForTokens","outputs":[],"stateMutability":"nonpayable","type":"function"},{"inputs":[],"name":"symbol","outputs":[{"internalType":"string","name":"","type":"string"}],"stateMutability":"view","type":"function"},{"inputs":[],"name":"totalSupply","outputs":[{"internalType":"uint256","name":"","type":"uint256"}],"stateMutability":"view","type":"function"},{"inputs":[{"internalType":"address","name":"to","type":"address"},{"internalType":"uint256","name":"value","type":"uint256"}],"name":"transfer","outputs":[{"internalType":"bool","name":"","type":"bool"}],"stateMutability":"nonpayable","type":"function"},{"inputs":[{"internalType":"address","name":"from","type":"address"},{"internalType":"address","name":"to","type":"address"},{"internalType":"uint256","name":"value","type":"uint256"}],"name":"transferFrom","outputs":[{"internalType":"bool","name":"","type":"bool"}],"stateMutability":"nonpayable","type":"function"}],"evm":{"bytecode":{"linkReferences":{},"object":"608060405234801561001057600080fd5b506040518060400160405280600f81526020017f4c697175696469747920546f6b656e00000000000000000000000000000000008152506040518060400160405280600281526020017f4c54000000000000000000000000000000000000000000000000000000000000815250816003908161008c9190610311565b50806004908161009c9190610311565b5050506100b967819c17cc51e0f7a460c01b6100be60201b60201c565b6103e3565b50565b600081519050919050565b7f4e487b7100000000000000000000000000000000000000000000000000000000600052604160045260246000fd5b7f4e487b7100000000000000000000000000000000000000000000000000000000600052602260045260246000fd5b6000600282049050600182168061014257607f821691505b602082108103610155576101546100fb565b5b50919050565b60008190508160005260206000209050919050565b60006020601f8301049050919050565b600082821b905092915050565b6000600883026101bd7fffffffffffffffffffffffffffffffffffffffffffffffffffffffffffffffff82610180565b6101c78683610180565b95508019841693508086168417925050509392505050565b6000819050919050565b6000819050919050565b600061020e610209610204846101df565b6101e9565b6101df565b9050919050565b6000819050919050565b610228836101f3565b61023c61023482610215565b84845461018d565b825550505050565b600090565b610251610244565b61025c81848461021f565b505050565b5b8181101561028057610275600082610249565b600181019050610262565b5050565b601f8211156102c5576102968161015b565b61029f84610170565b810160208510156102ae578190505b6102c26102ba85610170565b830182610261565b50505b505050565b600082821c905092915050565b60006102e8600019846008026102ca565b1980831691505092915050565b600061030183836102d7565b9150826002028217905092915050565b61031a826100c1565b67ffffffffffffffff811115610333576103326100cc565b5b61033d825461012a565b610348828285610284565b600060209050601f83116001811461037b5760008415610369578287015190505b61037385826102f5565b8655506103db565b601f1984166103898661015b565b60005b828110156103b15784890151825560018201915060208501945060208101905061038c565b868310156103ce57848901516103ca601f8916826102d7565b8355505b6001600288020188555050505b505050505050565b613712806103f26000396000f3fe608060405234801561001057600080fd5b50600436106100f55760003560e01c806370a0823111610097578063b5217bb411610066578063b5217bb4146102ae578063baa2abde146102e0578063dd62ed3e14610311578063e8e3370014610341576100f5565b806370a082311461020057806395d89b4114610230578063a9059cbb1461024e578063ac41865a1461027e576100f5565b806318160ddd116100d357806318160ddd1461017857806323b872dd14610196578063313ce567146101c657806338ed1739146101e4576100f5565b8063054d50d4146100fa57806306fdde031461012a578063095ea7b314610148575b600080fd5b610114600480360381019061010f91906128f5565b610373565b6040516101219190612957565b60405180910390f35b610132610473565b60405161013f9190612a02565b60405180910390f35b610162600480360381019061015d9190612a82565b610505565b60405161016f9190612add565b60405180910390f35b610180610528565b60405161018d9190612957565b60405180910390f35b6101b060048036038101906101ab9190612af8565b610532565b6040516101bd9190612add565b60405180910390f35b6101ce610561565b6040516101db9190612b67565b60405180910390f35b6101fe60048036038101906101f99190612be7565b61056a565b005b61021a60048036038101906102159190612c81565b610c96565b6040516102279190612957565b60405180910390f35b610238610cde565b6040516102459190612a02565b60405180910390f35b61026860048036038101906102639190612a82565b610d70565b6040516102759190612add565b60405180910390f35b61029860048036038101906102939190612cae565b610d93565b6040516102a59190612957565b60405180910390f35b6102c860048036038101906102c39190612d24565b610f33565b6040516102d793929190612d51565b60405180910390f35b6102fa60048036038101906102f59190612d88565b610f5d565b604051610308929190612e2a565b60405180910390f35b61032b60048036038101906103269190612cae565b6115fe565b6040516103389190612957565b60405180910390f35b61035b60048036038101906103569190612e53565b611685565b60405161036a93929190612d51565b60405180910390f35b600061038967e3ec9ad5ca7e3d1a60c01b611f23565b61039d67a3acc1b2182bf97760c01b611f23565b6103b16779bbc5644f64580760c01b611f23565b6103c567d2fb891265679b6f60c01b611f23565b6000841180156103d55750600083115b80156103e15750600082115b610420576040517f08c379a000000000000000000000000000000000000000000000000000000000815260040161041790612f55565b60405180910390fd5b61043467b53110862efc72bf60c01b611f23565b610448675bfe4aa65f5a101360c01b611f23565b83836104549190612fa4565b82856104609190612fd8565b61046a9190613049565b90509392505050565b606060038054610482906130a9565b80601f01602080910402602001604051908101604052809291908181526020018280546104ae906130a9565b80156104fb5780601f106104d0576101008083540402835291602001916104fb565b820191906000526020600020905b8154815290600101906020018083116104de57829003601f168201915b5050505050905090565b600080610510611f26565b905061051d818585611f2e565b600191505092915050565b6000600254905090565b60008061053d611f26565b905061054a858285611f40565b610555858585611fd5565b60019150509392505050565b60006012905090565b61057e672f25f88c9cd130c160c01b611f23565b610592674c7367aff9b154ab60c01b611f23565b6105a667622b662bba57cfa460c01b611f23565b6105ba674b5c84fd344f40e060c01b611f23565b804211156105fd576040517f08c379a00000000000000000000000000000000000000000000000000000000081526004016105f490613126565b60405180910390fd5b61061167366574e07c680b5c60c01b611f23565b6106256730c7bfaea81d86ba60c01b611f23565b610639674871c6e8b052f47a60c01b611f23565b61064d671a13391634a7a7bf60c01b611f23565b6002848490501480156106605750600086115b61069f576040517f08c379a000000000000000000000000000000000000000000000000000000000815260040161069690613192565b60405180910390fd5b6106b367597dc4491c05cb1760c01b611f23565b6106c767b0169566ad7ba2a960c01b611f23565b6106db67222108cfa501f94860c01b611f23565b6000610737858560008181106106f4576106f36131b2565b5b90506020020160208101906107099190612c81565b8686600181811061071d5761071c6131b2565b5b90506020020160208101906107329190612c81565b6120c9565b905061074d670743a1e1c3c8720c60c01b611f23565b610761670626067452ea4cb260c01b611f23565b600060056000838152602001908152602001600020604051806060016040529081600082015481526020016001820154815260200160028201548152505090506107b567723fa8b530ffae2c60c01b611f23565b6107c96796a9a51c527ac82860c01b611f23565b6107dd6783678fcb0342eae360c01b611f23565b6000816040015111610824576040517f08c379a000000000000000000000000000000000000000000000000000000000815260040161081b9061322d565b60405180910390fd5b61083867abb98a4ae427817960c01b611f23565b61084c67da8e974921554b1260c01b611f23565b61086067093c239dde29848460c01b611f23565b60008160000151905061087d67fb49fa6c8df5ecbe60c01b611f23565b6108916753623f0c41062ae660c01b611f23565b6000826020015190506108ae673c6786f88b13159f60c01b611f23565b6108c267d77e2820a01c753460c01b611f23565b60006108cf8b8484610373565b90506108e567bc5299e3053bc19160c01b611f23565b6108f967849ac851705d445f60c01b611f23565b61090d67a0fe01283f7b32f060c01b611f23565b89811015610950576040517f08c379a000000000000000000000000000000000000000000000000000000000815260040161094790613299565b60405180910390fd5b61096467a57b4c88ddd03cd660c01b611f23565b610978670e7882f4402b3f7060c01b611f23565b61098b66714ba7e4aebc4c60c01b611f23565b8888600081811061099f5761099e6131b2565b5b90506020020160208101906109b49190612c81565b73ffffffffffffffffffffffffffffffffffffffff166323b872dd33308e6040518463ffffffff1660e01b81526004016109f0939291906132c8565b6020604051808303816000875af1158015610a0f573d6000803e3d6000fd5b505050506040513d601f19601f82011682018060405250810190610a33919061332b565b50610a486769e4422bba20f1f860c01b611f23565b610a5c672ac17c18658e8f9c60c01b611f23565b88886001818110610a7057610a6f6131b2565b5b9050602002016020810190610a859190612c81565b73ffffffffffffffffffffffffffffffffffffffff1663a9059cbb88836040518363ffffffff1660e01b8152600401610abf929190613358565b6020604051808303816000875af1158015610ade573d6000803e3d6000fd5b505050506040513d601f19601f82011682018060405250810190610b02919061332b565b50610b176719665cf42d27bb2260c01b611f23565b8a84600001818151610b299190612fa4565b91508181525050610b446775f39ffbf7697a3960c01b611f23565b8084602001818151610b569190613381565b91508181525050610b71678b96c5799cba396260c01b611f23565b8360056000878152602001908152602001600020600082015181600001556020820151816001015560408201518160020155905050610bba67ab6b7b74c414940f60c01b611f23565b610bce67820c502d65024dc060c01b611f23565b8673ffffffffffffffffffffffffffffffffffffffff163373ffffffffffffffffffffffffffffffffffffffff167f20efd6d5195b7b50273f01cd79a27989255356f9f13293edc53ee142accfdb758b8b6000818110610c3157610c306131b2565b5b9050602002016020810190610c469190612c81565b8c8c6001818110610c5a57610c596131b2565b5b9050602002016020810190610c6f9190612c81565b8f86604051610c8194939291906133b5565b60405180910390a35050505050505050505050565b60008060008373ffffffffffffffffffffffffffffffffffffffff1673ffffffffffffffffffffffffffffffffffffffff168152602001908152602001600020549050919050565b606060048054610ced906130a9565b80601f0160208091040260200160405190810160405280929190818152602001828054610d19906130a9565b8015610d665780601f10610d3b57610100808354040283529160200191610d66565b820191906000526020600020905b815481529060010190602001808311610d4957829003601f168201915b5050505050905090565b600080610d7b611f26565b9050610d88818585611fd5565b600191505092915050565b6000610da967dc24c757f5bd9ee960c01b611f23565b610dbd671c228cc05c2477f560c01b611f23565b610dd1672ce961cee5ab972260c01b611f23565b6000610ddd84846120c9565b9050610df36712b4c26b4a1186ce60c01b611f23565b610e076704bfed0d0d96974960c01b611f23565b60006005600083815260200190815260200160002060405180606001604052908160008201548152602001600182015481526020016002820154815250509050610e5b679ae16a65f3cdeb5f60c01b611f23565b610e6f67f94502bc1c6927ff60c01b611f23565b610e8367ef1afd1a2f27ec3060c01b611f23565b60008160000151118015610e9b575060008160200151115b610eda576040517f08c379a0000000000000000000000000000000000000000000000000000000008152600401610ed190613446565b60405180910390fd5b610eee67407220f3d5b6b48f60c01b611f23565b610f0267981b19fa4c161e2660c01b611f23565b8060000151670de0b6b3a76400008260200151610f1f9190612fd8565b610f299190613049565b9250505092915050565b60056020528060005260406000206000915090508060000154908060010154908060020154905083565b600080610f7467c42c20f84b8a335460c01b611f23565b610f8867a9b4818b1b6f70a560c01b611f23565b610f9c675ef29d367fdcc6e460c01b611f23565b610fb06794858844d567cacd60c01b611f23565b82421115610ff3576040517f08c379a0000000000000000000000000000000000000000000000000000000008152600401610fea90613126565b60405180910390fd5b61100767df053e85c1a1676f60c01b611f23565b61101b6725b2dbbd7f89b60e60c01b611f23565b61102f67031f43ebd86854b860c01b611f23565b611043670efcb99965f71b0660c01b611f23565b8661104d33610c96565b101561108e576040517f08c379a0000000000000000000000000000000000000000000000000000000008152600401611085906134b2565b60405180910390fd5b6110a267afd00e6f8a3ba14360c01b611f23565b6110b6678e99b4b6629a893e60c01b611f23565b6110ca6797accc1c6571f20660c01b611f23565b60006110d68a8a6120c9565b90506110ec677616e5c9528432a360c01b611f23565b6111006752dd2f17229a50d860c01b611f23565b600060056000838152602001908152602001600020604051806060016040529081600082015481526020016001820154815260200160028201548152505090506111546762658c2864a4417360c01b611f23565b806040015181600001518a6111699190612fd8565b6111739190613049565b935061118967c11d33635fe01cd260c01b611f23565b806040015181602001518a61119e9190612fd8565b6111a89190613049565b92506111be67ee416e17b6def21c60c01b611f23565b6111d26702be3f44c03bd0f060c01b611f23565b6111e6672e0bfa22658846fd60c01b611f23565b87841015611229576040517f08c379a00000000000000000000000000000000000000000000000000000000081526004016112209061351e565b60405180910390fd5b61123d670373fdb9fdfd58dd60c01b611f23565b611251675cc8b98773b07aa860c01b611f23565b611265678dcac4d3f985241760c01b611f23565b61127967d869ec22d673fa6360c01b611f23565b868310156112bc576040517f08c379a00000000000000000000000000000000000000000000000000000000081526004016112b39061358a565b60405180910390fd5b6112d06706d15b4cb9b89bb860c01b611f23565b6112e467ef74820a368a203f60c01b611f23565b83816000018181516112f69190613381565b91508181525050611311675f47c801132bfed060c01b611f23565b82816020018181516113239190613381565b9150818152505061133e679cdeb1cd5591e80360c01b611f23565b88816040018181516113509190613381565b9150818152505061136b67f42bf9c31345505060c01b611f23565b80600560008481526020019081526020016000206000820151816000015560208201518160010155604082015181600201559050506113b467b338f1695cda537f60c01b611f23565b6113c86762af9c09df626fc260c01b611f23565b6113d2338a6121c9565b6113e66735d5f05abfa7376860c01b611f23565b6113fa67698dc65e49f3450c60c01b611f23565b8a73ffffffffffffffffffffffffffffffffffffffff1663a9059cbb87866040518363ffffffff1660e01b8152600401611435929190613358565b6020604051808303816000875af1158015611454573d6000803e3d6000fd5b505050506040513d601f19601f82011682018060405250810190611478919061332b565b5061148d670e1fb8f338221a1960c01b611f23565b6114a167b5746bcf0ba0880660c01b611f23565b8973ffffffffffffffffffffffffffffffffffffffff1663a9059cbb87856040518363ffffffff1660e01b81526004016114dc929190613358565b6020604051808303816000875af11580156114fb573d6000803e3d6000fd5b505050506040513d601f19601f8201168201806040525081019061151f919061332b565b5061153467e9f2ebe54b0cf59e60c01b611f23565b6115486764fa635e667e75c860c01b611f23565b8973ffffffffffffffffffffffffffffffffffffffff168b73ffffffffffffffffffffffffffffffffffffffff163373ffffffffffffffffffffffffffffffffffffffff167fd765e08eef31c0983ecca03ecd166297ac485ecd5dd69e291c848f0a020333c187878e6040516115c093929190612d51565b60405180910390a46115dc675031f6aab582419460c01b611f23565b6115f067f4a80128f5885d1960c01b611f23565b505097509795505050505050565b6000600160008473ffffffffffffffffffffffffffffffffffffffff1673ffffffffffffffffffffffffffffffffffffffff16815260200190815260200160002060008373ffffffffffffffffffffffffffffffffffffffff1673ffffffffffffffffffffffffffffffffffffffff16815260200190815260200160002054905092915050565b600080600061169e67377558721701a4ed60c01b611f23565b6116b267de8e4a3a3d0cc4dd60c01b611f23565b6116c66793ffa080512e869b60c01b611f23565b6116da674e2502a075798b1760c01b611f23565b8342111561171d576040517f08c379a000000000000000000000000000000000000000000000000000000000815260040161171490613126565b60405180910390fd5b611731673c7343c61ddeb04460c01b611f23565b611745673e29835513605e0d60c01b611f23565b61175967f94902477488402960c01b611f23565b60006117658c8c6120c9565b905061177b6726469ac1821f42d360c01b611f23565b61178f67c1e2c7b31728e85660c01b611f23565b600060056000838152602001908152602001600020604051806060016040529081600082015481526020016001820154815260200160028201548152505090506117e367faa21a5ad6b4b9f660c01b611f23565b6117f7675f43d7e954b5ee1060c01b611f23565b6000816040015103611874576118176710fc20353ba1cfa460c01b611f23565b61182b6715aaa0896aad6a1d60c01b611f23565b8a945061184267908965b0aa4846a360c01b611f23565b899350611859672d9a993229bd338660c01b611f23565b61186d84866118689190612fd8565b61224b565b9250611b5c565b611888679fe1e552c3bf2eca60c01b611f23565b61189c67d027abaf57734ada60c01b611f23565b6118b067bcd468380bdaa36260c01b611f23565b6000816000015182602001518d6118c79190612fd8565b6118d19190613049565b90506118e7674cc022f052e19e7760c01b611f23565b6118fb67282e46df038c99a560c01b611f23565b8a81116119dc5761191667d67c3dd8dd61fd0a60c01b611f23565b61192a67e0655994b4943e4760c01b611f23565b61193e67bfb4c7bb14cf603060c01b611f23565b61195267a9a49de0a67e2afb60c01b611f23565b88811015611995576040517f08c379a000000000000000000000000000000000000000000000000000000000815260040161198c9061358a565b60405180910390fd5b6119a9674be839b2d8b9265560c01b611f23565b6119bd6741c314d78f41bbca60c01b611f23565b8b95506119d4670b0a680f8507e22b60c01b611f23565b809450611afe565b6119f0678ab763d58ed51f9b60c01b611f23565b611a0467e6b775537c4e1ff660c01b611f23565b611a186786855f30379822c260c01b611f23565b6000826020015183600001518d611a2f9190612fd8565b611a399190613049565b9050611a4f6736cd01d70313192e60c01b611f23565b611a63671677d6957eed1a9b60c01b611f23565b611a7767e93aef8fe781262a60c01b611f23565b8a811015611aba576040517f08c379a0000000000000000000000000000000000000000000000000000000008152600401611ab19061351e565b60405180910390fd5b611ace67e34f9e248d1706fd60c01b611f23565b611ae267a99b16120f1f4f2760c01b611f23565b809650611af967a55f190c5d49d8b460c01b611f23565b8b9550505b611b126733623574feaefbcd60c01b611f23565b611b588260000151836040015188611b2a9190612fd8565b611b349190613049565b8360200151846040015188611b499190612fd8565b611b539190613049565b6123e8565b9350505b611b7067245176f70c6a869160c01b611f23565b611b84673ddafc0135e9cd8d60c01b611f23565b611b986768acab8f42ac7cb660c01b611f23565b60008311611bdb576040517f08c379a0000000000000000000000000000000000000000000000000000000008152600401611bd2906135f6565b60405180910390fd5b611bef679bbbaf000a2e96aa60c01b611f23565b611c0367fe4a2939cec78faa60c01b611f23565b611c176707a3458d8223945c60c01b611f23565b8c73ffffffffffffffffffffffffffffffffffffffff166323b872dd3330886040518463ffffffff1660e01b8152600401611c54939291906132c8565b6020604051808303816000875af1158015611c73573d6000803e3d6000fd5b505050506040513d601f19601f82011682018060405250810190611c97919061332b565b50611cac6706d8137f2247a64160c01b611f23565b611cc0670e82cffd40f828f460c01b611f23565b8b73ffffffffffffffffffffffffffffffffffffffff166323b872dd3330876040518463ffffffff1660e01b8152600401611cfd939291906132c8565b6020604051808303816000875af1158015611d1c573d6000803e3d6000fd5b505050506040513d601f19601f82011682018060405250810190611d40919061332b565b50611d5567211ae82634c5436e60c01b611f23565b8481600001818151611d679190612fa4565b91508181525050611d8267737f9e6a6119701860c01b611f23565b8381602001818151611d949190612fa4565b91508181525050611daf676985fedaa454079b60c01b611f23565b8281604001818151611dc19190612fa4565b91508181525050611ddc67dea34fb33d9ab42960c01b611f23565b8060056000848152602001908152602001600020600082015181600001556020820151816001015560408201518160020155905050611e256754aeaa2c0d4b87ab60c01b611f23565b611e3967a44055e914cb015760c01b611f23565b611e4387846123ff565b611e576733e2fdbad375e8f960c01b611f23565b611e6b67ace08479eefe132960c01b611f23565b8b73ffffffffffffffffffffffffffffffffffffffff168d73ffffffffffffffffffffffffffffffffffffffff163373ffffffffffffffffffffffffffffffffffffffff167f43c967b388d3a4ccad3f7ab80167852e322e5a3fde9893f530252281b2ae8b70888888604051611ee393929190612d51565b60405180910390a4611eff67745414d6ce4c89ea60c01b611f23565b611f136751e1dec104a2b12960c01b611f23565b5050985098509895505050505050565b50565b600033905090565b611f3b8383836001612481565b505050565b6000611f4c84846115fe565b90507fffffffffffffffffffffffffffffffffffffffffffffffffffffffffffffffff811015611fcf5781811015611fbf578281836040517ffb8f41b2000000000000000000000000000000000000000000000000000000008152600401611fb693929190613616565b60405180910390fd5b611fce84848484036000612481565b5b50505050565b600073ffffffffffffffffffffffffffffffffffffffff168373ffffffffffffffffffffffffffffffffffffffff16036120475760006040517f96c6fd1e00000000000000000000000000000000000000000000000000000000815260040161203e919061364d565b60405180910390fd5b600073ffffffffffffffffffffffffffffffffffffffff168273ffffffffffffffffffffffffffffffffffffffff16036120b95760006040517fec442f050000000000000000000000000000000000000000000000000000000081526004016120b0919061364d565b60405180910390fd5b6120c4838383612658565b505050565b60006120df6796c6f8c7d91cb2ec60c01b611f23565b6120f36787a256a18726e95760c01b611f23565b612107678fe7859b840ec34c60c01b611f23565b6000808373ffffffffffffffffffffffffffffffffffffffff168573ffffffffffffffffffffffffffffffffffffffff1610806121545750612153674eeb3b4e321c503e60c01b61287d565b5b8015612170575061216f67840468d4100d874860c01b612884565b5b61217b57838561217e565b84845b9150915061219667aca6ab560e275a2960c01b611f23565b81816040516020016121a99291906136b0565b604051602081830303815290604052805190602001209250505092915050565b600073ffffffffffffffffffffffffffffffffffffffff168273ffffffffffffffffffffffffffffffffffffffff160361223b5760006040517f96c6fd1e000000000000000000000000000000000000000000000000000000008152600401612232919061364d565b60405180910390fd5b61224782600083612658565b5050565b60006001821161225d578190506123e3565b6000829050600060019050700100000000000000000000000000000000821061228f57608082901c9150604081901b90505b6801000000000000000082106122ae57604082901c9150602081901b90505b64010000000082106122c957602082901c9150601081901b90505b6201000082106122e257601082901c9150600881901b90505b61010082106122fa57600882901c9150600481901b90505b6010821061231157600482901c9150600281901b90505b6004821061232157600181901b90505b600181600302901c9050600181858161233d5761233c61301a565b5b048201901c905060018185816123565761235561301a565b5b048201901c9050600181858161236f5761236e61301a565b5b048201901c905060018185816123885761238761301a565b5b048201901c905060018185816123a1576123a061301a565b5b048201901c905060018185816123ba576123b961301a565b5b048201901c90506123dc8185816123d4576123d361301a565b5b04821161288f565b8103925050505b919050565b60006123f7828410848461289b565b905092915050565b600073ffffffffffffffffffffffffffffffffffffffff168273ffffffffffffffffffffffffffffffffffffffff16036124715760006040517fec442f05000000000000000000000000000000000000000000000000000000008152600401612468919061364d565b60405180910390fd5b61247d60008383612658565b5050565b600073ffffffffffffffffffffffffffffffffffffffff168473ffffffffffffffffffffffffffffffffffffffff16036124f35760006040517fe602df050000000000000000000000000000000000000000000000000000000081526004016124ea919061364d565b60405180910390fd5b600073ffffffffffffffffffffffffffffffffffffffff168373ffffffffffffffffffffffffffffffffffffffff16036125655760006040517f94280d6200000000000000000000000000000000000000000000000000000000815260040161255c919061364d565b60405180910390fd5b81600160008673ffffffffffffffffffffffffffffffffffffffff1673ffffffffffffffffffffffffffffffffffffffff16815260200190815260200160002060008573ffffffffffffffffffffffffffffffffffffffff1673ffffffffffffffffffffffffffffffffffffffff168152602001908152602001600020819055508015612652578273ffffffffffffffffffffffffffffffffffffffff168473ffffffffffffffffffffffffffffffffffffffff167f8c5be1e5ebec7d5bd14f71427d1e84f3dd0314c0f7b2291e5b200ac8c7c3b925846040516126499190612957565b60405180910390a35b50505050565b600073ffffffffffffffffffffffffffffffffffffffff168373ffffffffffffffffffffffffffffffffffffffff16036126aa57806002600082825461269e9190612fa4565b9250508190555061277d565b60008060008573ffffffffffffffffffffffffffffffffffffffff1673ffffffffffffffffffffffffffffffffffffffff16815260200190815260200160002054905081811015612736578381836040517fe450d38c00000000000000000000000000000000000000000000000000000000815260040161272d93929190613616565b60405180910390fd5b8181036000808673ffffffffffffffffffffffffffffffffffffffff1673ffffffffffffffffffffffffffffffffffffffff16815260200190815260200160002081905550505b600073ffffffffffffffffffffffffffffffffffffffff168273ffffffffffffffffffffffffffffffffffffffff16036127c65780600260008282540392505081905550612813565b806000808473ffffffffffffffffffffffffffffffffffffffff1673ffffffffffffffffffffffffffffffffffffffff168152602001908152602001600020600082825401925050819055505b8173ffffffffffffffffffffffffffffffffffffffff168373ffffffffffffffffffffffffffffffffffffffff167fddf252ad1be2c89b69c2b068fc378daa952ba7f163c4a11628f55a4df523b3ef836040516128709190612957565b60405180910390a3505050565b6000919050565b600060019050919050565b60008115159050919050565b60006128a68461288f565b82841802821890509392505050565b600080fd5b600080fd5b6000819050919050565b6128d2816128bf565b81146128dd57600080fd5b50565b6000813590506128ef816128c9565b92915050565b60008060006060848603121561290e5761290d6128b5565b5b600061291c868287016128e0565b935050602061292d868287016128e0565b925050604061293e868287016128e0565b9150509250925092565b612951816128bf565b82525050565b600060208201905061296c6000830184612948565b92915050565b600081519050919050565b600082825260208201905092915050565b60005b838110156129ac578082015181840152602081019050612991565b60008484015250505050565b6000601f19601f8301169050919050565b60006129d482612972565b6129de818561297d565b93506129ee81856020860161298e565b6129f7816129b8565b840191505092915050565b60006020820190508181036000830152612a1c81846129c9565b905092915050565b600073ffffffffffffffffffffffffffffffffffffffff82169050919050565b6000612a4f82612a24565b9050919050565b612a5f81612a44565b8114612a6a57600080fd5b50565b600081359050612a7c81612a56565b92915050565b60008060408385031215612a9957612a986128b5565b5b6000612aa785828601612a6d565b9250506020612ab8858286016128e0565b9150509250929050565b60008115159050919050565b612ad781612ac2565b82525050565b6000602082019050612af26000830184612ace565b92915050565b600080600060608486031215612b1157612b106128b5565b5b6000612b1f86828701612a6d565b9350506020612b3086828701612a6d565b9250506040612b41868287016128e0565b9150509250925092565b600060ff82169050919050565b612b6181612b4b565b82525050565b6000602082019050612b7c6000830184612b58565b92915050565b600080fd5b600080fd5b600080fd5b60008083601f840112612ba757612ba6612b82565b5b8235905067ffffffffffffffff811115612bc457612bc3612b87565b5b602083019150836020820283011115612be057612bdf612b8c565b5b9250929050565b60008060008060008060a08789031215612c0457612c036128b5565b5b6000612c1289828a016128e0565b9650506020612c2389828a016128e0565b955050604087013567ffffffffffffffff811115612c4457612c436128ba565b5b612c5089828a01612b91565b94509450506060612c6389828a01612a6d565b9250506080612c7489828a016128e0565b9150509295509295509295565b600060208284031215612c9757612c966128b5565b5b6000612ca584828501612a6d565b91505092915050565b60008060408385031215612cc557612cc46128b5565b5b6000612cd385828601612a6d565b9250506020612ce485828601612a6d565b9150509250929050565b6000819050919050565b612d0181612cee565b8114612d0c57600080fd5b50565b600081359050612d1e81612cf8565b92915050565b600060208284031215612d3a57612d396128b5565b5b6000612d4884828501612d0f565b91505092915050565b6000606082019050612d666000830186612948565b612d736020830185612948565b612d806040830184612948565b949350505050565b600080600080600080600060e0888a031215612da757612da66128b5565b5b6000612db58a828b01612a6d565b9750506020612dc68a828b01612a6d565b9650506040612dd78a828b016128e0565b9550506060612de88a828b016128e0565b9450506080612df98a828b016128e0565b93505060a0612e0a8a828b01612a6d565b92505060c0612e1b8a828b016128e0565b91505092959891949750929550565b6000604082019050612e3f6000830185612948565b612e4c6020830184612948565b9392505050565b600080600080600080600080610100898b031215612e7457612e736128b5565b5b6000612e828b828c01612a6d565b9850506020612e938b828c01612a6d565b9750506040612ea48b828c016128e0565b9650506060612eb58b828c016128e0565b9550506080612ec68b828c016128e0565b94505060a0612ed78b828c016128e0565b93505060c0612ee88b828c01612a6d565b92505060e0612ef98b828c016128e0565b9150509295985092959890939650565b7f42616420696e7075747300000000000000000000000000000000000000000000600082015250565b6000612f3f600a8361297d565b9150612f4a82612f09565b602082019050919050565b60006020820190508181036000830152612f6e81612f32565b9050919050565b7f4e487b7100000000000000000000000000000000000000000000000000000000600052601160045260246000fd5b6000612faf826128bf565b9150612fba836128bf565b9250828201905080821115612fd257612fd1612f75565b5b92915050565b6000612fe3826128bf565b9150612fee836128bf565b9250828202612ffc816128bf565b9150828204841483151761301357613012612f75565b5b5092915050565b7f4e487b7100000000000000000000000000000000000000000000000000000000600052601260045260246000fd5b6000613054826128bf565b915061305f836128bf565b92508261306f5761306e61301a565b5b828204905092915050565b7f4e487b7100000000000000000000000000000000000000000000000000000000600052602260045260246000fd5b600060028204905060018216806130c157607f821691505b6020821081036130d4576130d361307a565b5b50919050565b7f4578706972656400000000000000000000000000000000000000000000000000600082015250565b600061311060078361297d565b915061311b826130da565b602082019050919050565b6000602082019050818103600083015261313f81613103565b9050919050565b7f42616420706172616d7300000000000000000000000000000000000000000000600082015250565b600061317c600a8361297d565b915061318782613146565b602082019050919050565b600060208201905081810360008301526131ab8161316f565b9050919050565b7f4e487b7100000000000000000000000000000000000000000000000000000000600052603260045260246000fd5b7f506f6f6c20656d70747900000000000000000000000000000000000000000000600082015250565b6000613217600a8361297d565b9150613222826131e1565b602082019050919050565b600060208201905081810360008301526132468161320a565b9050919050565b7f536c697070616765000000000000000000000000000000000000000000000000600082015250565b600061328360088361297d565b915061328e8261324d565b602082019050919050565b600060208201905081810360008301526132b281613276565b9050919050565b6132c281612a44565b82525050565b60006060820190506132dd60008301866132b9565b6132ea60208301856132b9565b6132f76040830184612948565b949350505050565b61330881612ac2565b811461331357600080fd5b50565b600081519050613325816132ff565b92915050565b600060208284031215613341576133406128b5565b5b600061334f84828501613316565b91505092915050565b600060408201905061336d60008301856132b9565b61337a6020830184612948565b9392505050565b600061338c826128bf565b9150613397836128bf565b92508282039050818111156133af576133ae612f75565b5b92915050565b60006080820190506133ca60008301876132b9565b6133d760208301866132b9565b6133e46040830185612948565b6133f16060830184612948565b95945050505050565b7f4e6f207265736572766573000000000000000000000000000000000000000000600082015250565b6000613430600b8361297d565b915061343b826133fa565b602082019050919050565b6000602082019050818103600083015261345f81613423565b9050919050565b7f4c50206c6f770000000000000000000000000000000000000000000000000000600082015250565b600061349c60068361297d565b91506134a782613466565b602082019050919050565b600060208201905081810360008301526134cb8161348f565b9050919050565b7f536c697070616765204100000000000000000000000000000000000000000000600082015250565b6000613508600a8361297d565b9150613513826134d2565b602082019050919050565b60006020820190508181036000830152613537816134fb565b9050919050565b7f536c697070616765204200000000000000000000000000000000000000000000600082015250565b6000613574600a8361297d565b915061357f8261353e565b602082019050919050565b600060208201905081810360008301526135a381613567565b9050919050565b7f4c49513d30000000000000000000000000000000000000000000000000000000600082015250565b60006135e060058361297d565b91506135eb826135aa565b602082019050919050565b6000602082019050818103600083015261360f816135d3565b9050919050565b600060608201905061362b60008301866132b9565b6136386020830185612948565b6136456040830184612948565b949350505050565b600060208201905061366260008301846132b9565b92915050565b60008160601b9050919050565b600061368082613668565b9050919050565b600061369282613675565b9050919050565b6136aa6136a582612a44565b613687565b82525050565b60006136bc8285613699565b6014820191506136cc8284613699565b601482019150819050939250505056fea264697066735822122058e9cc2209d1b418b26fea64c698c6ea00d2e41f36e646bb64af1f630d94202864736f6c634300081e0033","opcodes":"PUSH1 0x80 PUSH1 0x40 MSTORE CALLVALUE DUP1 ISZERO PUSH2 0x10 JUMPI PUSH1 0x0 DUP1 REVERT JUMPDEST POP PUSH1 0x40 MLOAD DUP1 PUSH1 0x40 ADD PUSH1 0x40 MSTORE DUP1 PUSH1 0xF DUP2 MSTORE PUSH1 0x20 ADD PUSH32 0x4C697175696469747920546F6B656E0000000000000000000000000000000000 DUP2 MSTORE POP PUSH1 0x40 MLOAD DUP1 PUSH1 0x40 ADD PUSH1 0x40 MSTORE DUP1 PUSH1 0x2 DUP2 MSTORE PUSH1 0x20 ADD PUSH32 0x4C54000000000000000000000000000000000000000000000000000000000000 DUP2 MSTORE POP DUP2 PUSH1 0x3 SWAP1 DUP2 PUSH2 0x8C SWAP2 SWAP1 PUSH2 0x311 JUMP JUMPDEST POP DUP1 PUSH1 0x4 SWAP1 DUP2 PUSH2 0x9C SWAP2 SWAP1 PUSH2 0x311 JUMP JUMPDEST POP POP POP PUSH2 0xB9 PUSH8 0x819C17CC51E0F7A4 PUSH1 0xC0 SHL PUSH2 0xBE PUSH1 0x20 SHL PUSH1 0x20 SHR JUMP JUMPDEST PUSH2 0x3E3 JUMP JUMPDEST POP JUMP JUMPDEST PUSH1 0x0 DUP2 MLOAD SWAP1 POP SWAP2 SWAP1 POP JUMP JUMPDEST PUSH32 0x4E487B7100000000000000000000000000000000000000000000000000000000 PUSH1 0x0 MSTORE PUSH1 0x41 PUSH1 0x4 MSTORE PUSH1 0x24 PUSH1 0x0 REVERT JUMPDEST PUSH32 0x4E487B7100000000000000000000000000000000000000000000000000000000 PUSH1 0x0 MSTORE PUSH1 0x22 PUSH1 0x4 MSTORE PUSH1 0x24 PUSH1 0x0 REVERT JUMPDEST PUSH1 0x0 PUSH1 0x2 DUP3 DIV SWAP1 POP PUSH1 0x1 DUP3 AND DUP1 PUSH2 0x142 JUMPI PUSH1 0x7F DUP3 AND SWAP2 POP JUMPDEST PUSH1 0x20 DUP3 LT DUP2 SUB PUSH2 0x155 JUMPI PUSH2 0x154 PUSH2 0xFB JUMP JUMPDEST JUMPDEST POP SWAP2 SWAP1 POP JUMP JUMPDEST PUSH1 0x0 DUP2 SWAP1 POP DUP2 PUSH1 0x0 MSTORE PUSH1 0x20 PUSH1 0x0 KECCAK256 SWAP1 POP SWAP2 SWAP1 POP JUMP JUMPDEST PUSH1 0x0 PUSH1 0x20 PUSH1 0x1F DUP4 ADD DIV SWAP1 POP SWAP2 SWAP1 POP JUMP JUMPDEST PUSH1 0x0 DUP3 DUP3 SHL SWAP1 POP SWAP3 SWAP2 POP POP JUMP JUMPDEST PUSH1 0x0 PUSH1 0x8 DUP4 MUL PUSH2 0x1BD PUSH32 0xFFFFFFFFFFFFFFFFFFFFFFFFFFFFFFFFFFFFFFFFFFFFFFFFFFFFFFFFFFFFFFFF DUP3 PUSH2 0x180 JUMP JUMPDEST PUSH2 0x1C7 DUP7 DUP4 PUSH2 0x180 JUMP JUMPDEST SWAP6 POP DUP1 NOT DUP5 AND SWAP4 POP DUP1 DUP7 AND DUP5 OR SWAP3 POP POP POP SWAP4 SWAP3 POP POP POP JUMP JUMPDEST PUSH1 0x0 DUP2 SWAP1 POP SWAP2 SWAP1 POP JUMP JUMPDEST PUSH1 0x0 DUP2 SWAP1 POP SWAP2 SWAP1 POP JUMP JUMPDEST PUSH1 0x0 PUSH2 0x20E PUSH2 0x209 PUSH2 0x204 DUP5 PUSH2 0x1DF JUMP JUMPDEST PUSH2 0x1E9 JUMP JUMPDEST PUSH2 0x1DF JUMP JUMPDEST SWAP1 POP SWAP2 SWAP1 POP JUMP JUMPDEST PUSH1 0x0 DUP2 SWAP1 POP SWAP2 SWAP1 POP JUMP JUMPDEST PUSH2 0x228 DUP4 PUSH2 0x1F3 JUMP JUMPDEST PUSH2 0x23C PUSH2 0x234 DUP3 PUSH2 0x215 JUMP JUMPDEST DUP5 DUP5 SLOAD PUSH2 0x18D JUMP JUMPDEST DUP3 SSTORE POP POP POP POP JUMP JUMPDEST PUSH1 0x0 SWAP1 JUMP JUMPDEST PUSH2 0x251 PUSH2 0x244 JUMP JUMPDEST PUSH2 0x25C DUP2 DUP5 DUP5 PUSH2 0x21F JUMP JUMPDEST POP POP POP JUMP JUMPDEST JUMPDEST DUP2 DUP2 LT ISZERO PUSH2 0x280 JUMPI PUSH2 0x275 PUSH1 0x0 DUP3 PUSH2 0x249 JUMP JUMPDEST PUSH1 0x1 DUP2 ADD SWAP1 POP PUSH2 0x262 JUMP JUMPDEST POP POP JUMP JUMPDEST PUSH1 0x1F DUP3 GT ISZERO PUSH2 0x2C5 JUMPI PUSH2 0x296 DUP2 PUSH2 0x15B JUMP JUMPDEST PUSH2 0x29F DUP5 PUSH2 0x170 JUMP JUMPDEST DUP2 ADD PUSH1 0x20 DUP6 LT ISZERO PUSH2 0x2AE JUMPI DUP2 SWAP1 POP JUMPDEST PUSH2 0x2C2 PUSH2 0x2BA DUP6 PUSH2 0x170 JUMP JUMPDEST DUP4 ADD DUP3 PUSH2 0x261 JUMP JUMPDEST POP POP JUMPDEST POP POP POP JUMP JUMPDEST PUSH1 0x0 DUP3 DUP3 SHR SWAP1 POP SWAP3 SWAP2 POP POP JUMP JUMPDEST PUSH1 0x0 PUSH2 0x2E8 PUSH1 0x0 NOT DUP5 PUSH1 0x8 MUL PUSH2 0x2CA JUMP JUMPDEST NOT DUP1 DUP4 AND SWAP2 POP POP SWAP3 SWAP2 POP POP JUMP JUMPDEST PUSH1 0x0 PUSH2 0x301 DUP4 DUP4 PUSH2 0x2D7 JUMP JUMPDEST SWAP2 POP DUP3 PUSH1 0x2 MUL DUP3 OR SWAP1 POP SWAP3 SWAP2 POP POP JUMP JUMPDEST PUSH2 0x31A DUP3 PUSH2 0xC1 JUMP JUMPDEST PUSH8 0xFFFFFFFFFFFFFFFF DUP2 GT ISZERO PUSH2 0x333 JUMPI PUSH2 0x332 PUSH2 0xCC JUMP JUMPDEST JUMPDEST PUSH2 0x33D DUP3 SLOAD PUSH2 0x12A JUMP JUMPDEST PUSH2 0x348 DUP3 DUP3 DUP6 PUSH2 0x284 JUMP JUMPDEST PUSH1 0x0 PUSH1 0x20 SWAP1 POP PUSH1 0x1F DUP4 GT PUSH1 0x1 DUP2 EQ PUSH2 0x37B JUMPI PUSH1 0x0 DUP5 ISZERO PUSH2 0x369 JUMPI DUP3 DUP8 ADD MLOAD SWAP1 POP JUMPDEST PUSH2 0x373 DUP6 DUP3 PUSH2 0x2F5 JUMP JUMPDEST DUP7 SSTORE POP PUSH2 0x3DB JUMP JUMPDEST PUSH1 0x1F NOT DUP5 AND PUSH2 0x389 DUP7 PUSH2 0x15B JUMP JUMPDEST PUSH1 0x0 JUMPDEST DUP3 DUP2 LT ISZERO PUSH2 0x3B1 JUMPI DUP5 DUP10 ADD MLOAD DUP3 SSTORE PUSH1 0x1 DUP3 ADD SWAP2 POP PUSH1 0x20 DUP6 ADD SWAP5 POP PUSH1 0x20 DUP2 ADD SWAP1 POP PUSH2 0x38C JUMP JUMPDEST DUP7 DUP4 LT ISZERO PUSH2 0x3CE JUMPI DUP5 DUP10 ADD MLOAD PUSH2 0x3CA PUSH1 0x1F DUP10 AND DUP3 PUSH2 0x2D7 JUMP JUMPDEST DUP4 SSTORE POP JUMPDEST PUSH1 0x1 PUSH1 0x2 DUP9 MUL ADD DUP9 SSTORE POP POP POP JUMPDEST POP POP POP POP POP POP JUMP JUMPDEST PUSH2 0x3712 DUP1 PUSH2 0x3F2 PUSH1 0x0 CODECOPY PUSH1 0x0 RETURN INVALID PUSH1 0x80 PUSH1 0x40 MSTORE CALLVALUE DUP1 ISZERO PUSH2 0x10 JUMPI PUSH1 0x0 DUP1 REVERT JUMPDEST POP PUSH1 0x4 CALLDATASIZE LT PUSH2 0xF5 JUMPI PUSH1 0x0 CALLDATALOAD PUSH1 0xE0 SHR DUP1 PUSH4 0x70A08231 GT PUSH2 0x97 JUMPI DUP1 PUSH4 0xB5217BB4 GT PUSH2 0x66 JUMPI DUP1 PUSH4 0xB5217BB4 EQ PUSH2 0x2AE JUMPI DUP1 PUSH4 0xBAA2ABDE EQ PUSH2 0x2E0 JUMPI DUP1 PUSH4 0xDD62ED3E EQ PUSH2 0x311 JUMPI DUP1 PUSH4 0xE8E33700 EQ PUSH2 0x341 JUMPI PUSH2 0xF5 JUMP JUMPDEST DUP1 PUSH4 0x70A08231 EQ PUSH2 0x200 JUMPI DUP1 PUSH4 0x95D89B41 EQ PUSH2 0x230 JUMPI DUP1 PUSH4 0xA9059CBB EQ PUSH2 0x24E JUMPI DUP1 PUSH4 0xAC41865A EQ PUSH2 0x27E JUMPI PUSH2 0xF5 JUMP JUMPDEST DUP1 PUSH4 0x18160DDD GT PUSH2 0xD3 JUMPI DUP1 PUSH4 0x18160DDD EQ PUSH2 0x178 JUMPI DUP1 PUSH4 0x23B872DD EQ PUSH2 0x196 JUMPI DUP1 PUSH4 0x313CE567 EQ PUSH2 0x1C6 JUMPI DUP1 PUSH4 0x38ED1739 EQ PUSH2 0x1E4 JUMPI PUSH2 0xF5 JUMP JUMPDEST DUP1 PUSH4 0x54D50D4 EQ PUSH2 0xFA JUMPI DUP1 PUSH4 0x6FDDE03 EQ PUSH2 0x12A JUMPI DUP1 PUSH4 0x95EA7B3 EQ PUSH2 0x148 JUMPI JUMPDEST PUSH1 0x0 DUP1 REVERT JUMPDEST PUSH2 0x114 PUSH1 0x4 DUP1 CALLDATASIZE SUB DUP2 ADD SWAP1 PUSH2 0x10F SWAP2 SWAP1 PUSH2 0x28F5 JUMP JUMPDEST PUSH2 0x373 JUMP JUMPDEST PUSH1 0x40 MLOAD PUSH2 0x121 SWAP2 SWAP1 PUSH2 0x2957 JUMP JUMPDEST PUSH1 0x40 MLOAD DUP1 SWAP2 SUB SWAP1 RETURN JUMPDEST PUSH2 0x132 PUSH2 0x473 JUMP JUMPDEST PUSH1 0x40 MLOAD PUSH2 0x13F SWAP2 SWAP1 PUSH2 0x2A02 JUMP JUMPDEST PUSH1 0x40 MLOAD DUP1 SWAP2 SUB SWAP1 RETURN JUMPDEST PUSH2 0x162 PUSH1 0x4 DUP1 CALLDATASIZE SUB DUP2 ADD SWAP1 PUSH2 0x15D SWAP2 SWAP1 PUSH2 0x2A82 JUMP JUMPDEST PUSH2 0x505 JUMP JUMPDEST PUSH1 0x40 MLOAD PUSH2 0x16F SWAP2 SWAP1 PUSH2 0x2ADD JUMP JUMPDEST PUSH1 0x40 MLOAD DUP1 SWAP2 SUB SWAP1 RETURN JUMPDEST PUSH2 0x180 PUSH2 0x528 JUMP JUMPDEST PUSH1 0x40 MLOAD PUSH2 0x18D SWAP2 SWAP1 PUSH2 0x2957 JUMP JUMPDEST PUSH1 0x40 MLOAD DUP1 SWAP2 SUB SWAP1 RETURN JUMPDEST PUSH2 0x1B0 PUSH1 0x4 DUP1 CALLDATASIZE SUB DUP2 ADD SWAP1 PUSH2 0x1AB SWAP2 SWAP1 PUSH2 0x2AF8 JUMP JUMPDEST PUSH2 0x532 JUMP JUMPDEST PUSH1 0x40 MLOAD PUSH2 0x1BD SWAP2 SWAP1 PUSH2 0x2ADD JUMP JUMPDEST PUSH1 0x40 MLOAD DUP1 SWAP2 SUB SWAP1 RETURN JUMPDEST PUSH2 0x1CE PUSH2 0x561 JUMP JUMPDEST PUSH1 0x40 MLOAD PUSH2 0x1DB SWAP2 SWAP1 PUSH2 0x2B67 JUMP JUMPDEST PUSH1 0x40 MLOAD DUP1 SWAP2 SUB SWAP1 RETURN JUMPDEST PUSH2 0x1FE PUSH1 0x4 DUP1 CALLDATASIZE SUB DUP2 ADD SWAP1 PUSH2 0x1F9 SWAP2 SWAP1 PUSH2 0x2BE7 JUMP JUMPDEST PUSH2 0x56A JUMP JUMPDEST STOP JUMPDEST PUSH2 0x21A PUSH1 0x4 DUP1 CALLDATASIZE SUB DUP2 ADD SWAP1 PUSH2 0x215 SWAP2 SWAP1 PUSH2 0x2C81 JUMP JUMPDEST PUSH2 0xC96 JUMP JUMPDEST PUSH1 0x40 MLOAD PUSH2 0x227 SWAP2 SWAP1 PUSH2 0x2957 JUMP JUMPDEST PUSH1 0x40 MLOAD DUP1 SWAP2 SUB SWAP1 RETURN JUMPDEST PUSH2 0x238 PUSH2 0xCDE JUMP JUMPDEST PUSH1 0x40 MLOAD PUSH2 0x245 SWAP2 SWAP1 PUSH2 0x2A02 JUMP JUMPDEST PUSH1 0x40 MLOAD DUP1 SWAP2 SUB SWAP1 RETURN JUMPDEST PUSH2 0x268 PUSH1 0x4 DUP1 CALLDATASIZE SUB DUP2 ADD SWAP1 PUSH2 0x263 SWAP2 SWAP1 PUSH2 0x2A82 JUMP JUMPDEST PUSH2 0xD70 JUMP JUMPDEST PUSH1 0x40 MLOAD PUSH2 0x275 SWAP2 SWAP1 PUSH2 0x2ADD JUMP JUMPDEST PUSH1 0x40 MLOAD DUP1 SWAP2 SUB SWAP1 RETURN JUMPDEST PUSH2 0x298 PUSH1 0x4 DUP1 CALLDATASIZE SUB DUP2 ADD SWAP1 PUSH2 0x293 SWAP2 SWAP1 PUSH2 0x2CAE JUMP JUMPDEST PUSH2 0xD93 JUMP JUMPDEST PUSH1 0x40 MLOAD PUSH2 0x2A5 SWAP2 SWAP1 PUSH2 0x2957 JUMP JUMPDEST PUSH1 0x40 MLOAD DUP1 SWAP2 SUB SWAP1 RETURN JUMPDEST PUSH2 0x2C8 PUSH1 0x4 DUP1 CALLDATASIZE SUB DUP2 ADD SWAP1 PUSH2 0x2C3 SWAP2 SWAP1 PUSH2 0x2D24 JUMP JUMPDEST PUSH2 0xF33 JUMP JUMPDEST PUSH1 0x40 MLOAD PUSH2 0x2D7 SWAP4 SWAP3 SWAP2 SWAP1 PUSH2 0x2D51 JUMP JUMPDEST PUSH1 0x40 MLOAD DUP1 SWAP2 SUB SWAP1 RETURN JUMPDEST PUSH2 0x2FA PUSH1 0x4 DUP1 CALLDATASIZE SUB DUP2 ADD SWAP1 PUSH2 0x2F5 SWAP2 SWAP1 PUSH2 0x2D88 JUMP JUMPDEST PUSH2 0xF5D JUMP JUMPDEST PUSH1 0x40 MLOAD PUSH2 0x308 SWAP3 SWAP2 SWAP1 PUSH2 0x2E2A JUMP JUMPDEST PUSH1 0x40 MLOAD DUP1 SWAP2 SUB SWAP1 RETURN JUMPDEST PUSH2 0x32B PUSH1 0x4 DUP1 CALLDATASIZE SUB DUP2 ADD SWAP1 PUSH2 0x326 SWAP2 SWAP1 PUSH2 0x2CAE JUMP JUMPDEST PUSH2 0x15FE JUMP JUMPDEST PUSH1 0x40 MLOAD PUSH2 0x338 SWAP2 SWAP1 PUSH2 0x2957 JUMP JUMPDEST PUSH1 0x40 MLOAD DUP1 SWAP2 SUB SWAP1 RETURN JUMPDEST PUSH2 0x35B PUSH1 0x4 DUP1 CALLDATASIZE SUB DUP2 ADD SWAP1 PUSH2 0x356 SWAP2 SWAP1 PUSH2 0x2E53 JUMP JUMPDEST PUSH2 0x1685 JUMP JUMPDEST PUSH1 0x40 MLOAD PUSH2 0x36A SWAP4 SWAP3 SWAP2 SWAP1 PUSH2 0x2D51 JUMP JUMPDEST PUSH1 0x40 MLOAD DUP1 SWAP2 SUB SWAP1 RETURN JUMPDEST PUSH1 0x0 PUSH2 0x389 PUSH8 0xE3EC9AD5CA7E3D1A PUSH1 0xC0 SHL PUSH2 0x1F23 JUMP JUMPDEST PUSH2 0x39D PUSH8 0xA3ACC1B2182BF977 PUSH1 0xC0 SHL PUSH2 0x1F23 JUMP JUMPDEST PUSH2 0x3B1 PUSH8 0x79BBC5644F645807 PUSH1 0xC0 SHL PUSH2 0x1F23 JUMP JUMPDEST PUSH2 0x3C5 PUSH8 0xD2FB891265679B6F PUSH1 0xC0 SHL PUSH2 0x1F23 JUMP JUMPDEST PUSH1 0x0 DUP5 GT DUP1 ISZERO PUSH2 0x3D5 JUMPI POP PUSH1 0x0 DUP4 GT JUMPDEST DUP1 ISZERO PUSH2 0x3E1 JUMPI POP PUSH1 0x0 DUP3 GT JUMPDEST PUSH2 0x420 JUMPI PUSH1 0x40 MLOAD PUSH32 0x8C379A000000000000000000000000000000000000000000000000000000000 DUP2 MSTORE PUSH1 0x4 ADD PUSH2 0x417 SWAP1 PUSH2 0x2F55 JUMP JUMPDEST PUSH1 0x40 MLOAD DUP1 SWAP2 SUB SWAP1 REVERT JUMPDEST PUSH2 0x434 PUSH8 0xB53110862EFC72BF PUSH1 0xC0 SHL PUSH2 0x1F23 JUMP JUMPDEST PUSH2 0x448 PUSH8 0x5BFE4AA65F5A1013 PUSH1 0xC0 SHL PUSH2 0x1F23 JUMP JUMPDEST DUP4 DUP4 PUSH2 0x454 SWAP2 SWAP1 PUSH2 0x2FA4 JUMP JUMPDEST DUP3 DUP6 PUSH2 0x460 SWAP2 SWAP1 PUSH2 0x2FD8 JUMP JUMPDEST PUSH2 0x46A SWAP2 SWAP1 PUSH2 0x3049 JUMP JUMPDEST SWAP1 POP SWAP4 SWAP3 POP POP POP JUMP JUMPDEST PUSH1 0x60 PUSH1 0x3 DUP1 SLOAD PUSH2 0x482 SWAP1 PUSH2 0x30A9 JUMP JUMPDEST DUP1 PUSH1 0x1F ADD PUSH1 0x20 DUP1 SWAP2 DIV MUL PUSH1 0x20 ADD PUSH1 0x40 MLOAD SWAP1 DUP2 ADD PUSH1 0x40 MSTORE DUP1 SWAP3 SWAP2 SWAP1 DUP2 DUP2 MSTORE PUSH1 0x20 ADD DUP3 DUP1 SLOAD PUSH2 0x4AE SWAP1 PUSH2 0x30A9 JUMP JUMPDEST DUP1 ISZERO PUSH2 0x4FB JUMPI DUP1 PUSH1 0x1F LT PUSH2 0x4D0 JUMPI PUSH2 0x100 DUP1 DUP4 SLOAD DIV MUL DUP4 MSTORE SWAP2 PUSH1 0x20 ADD SWAP2 PUSH2 0x4FB JUMP JUMPDEST DUP3 ADD SWAP2 SWAP1 PUSH1 0x0 MSTORE PUSH1 0x20 PUSH1 0x0 KECCAK256 SWAP1 JUMPDEST DUP2 SLOAD DUP2 MSTORE SWAP1 PUSH1 0x1 ADD SWAP1 PUSH1 0x20 ADD DUP1 DUP4 GT PUSH2 0x4DE JUMPI DUP3 SWAP1 SUB PUSH1 0x1F AND DUP3 ADD SWAP2 JUMPDEST POP POP POP POP POP SWAP1 POP SWAP1 JUMP JUMPDEST PUSH1 0x0 DUP1 PUSH2 0x510 PUSH2 0x1F26 JUMP JUMPDEST SWAP1 POP PUSH2 0x51D DUP2 DUP6 DUP6 PUSH2 0x1F2E JUMP JUMPDEST PUSH1 0x1 SWAP2 POP POP SWAP3 SWAP2 POP POP JUMP JUMPDEST PUSH1 0x0 PUSH1 0x2 SLOAD SWAP1 POP SWAP1 JUMP JUMPDEST PUSH1 0x0 DUP1 PUSH2 0x53D PUSH2 0x1F26 JUMP JUMPDEST SWAP1 POP PUSH2 0x54A DUP6 DUP3 DUP6 PUSH2 0x1F40 JUMP JUMPDEST PUSH2 0x555 DUP6 DUP6 DUP6 PUSH2 0x1FD5 JUMP JUMPDEST PUSH1 0x1 SWAP2 POP POP SWAP4 SWAP3 POP POP POP JUMP JUMPDEST PUSH1 0x0 PUSH1 0x12 SWAP1 POP SWAP1 JUMP JUMPDEST PUSH2 0x57E PUSH8 0x2F25F88C9CD130C1 PUSH1 0xC0 SHL PUSH2 0x1F23 JUMP JUMPDEST PUSH2 0x592 PUSH8 0x4C7367AFF9B154AB PUSH1 0xC0 SHL PUSH2 0x1F23 JUMP JUMPDEST PUSH2 0x5A6 PUSH8 0x622B662BBA57CFA4 PUSH1 0xC0 SHL PUSH2 0x1F23 JUMP JUMPDEST PUSH2 0x5BA PUSH8 0x4B5C84FD344F40E0 PUSH1 0xC0 SHL PUSH2 0x1F23 JUMP JUMPDEST DUP1 TIMESTAMP GT ISZERO PUSH2 0x5FD JUMPI PUSH1 0x40 MLOAD PUSH32 0x8C379A000000000000000000000000000000000000000000000000000000000 DUP2 MSTORE PUSH1 0x4 ADD PUSH2 0x5F4 SWAP1 PUSH2 0x3126 JUMP JUMPDEST PUSH1 0x40 MLOAD DUP1 SWAP2 SUB SWAP1 REVERT JUMPDEST PUSH2 0x611 PUSH8 0x366574E07C680B5C PUSH1 0xC0 SHL PUSH2 0x1F23 JUMP JUMPDEST PUSH2 0x625 PUSH8 0x30C7BFAEA81D86BA PUSH1 0xC0 SHL PUSH2 0x1F23 JUMP JUMPDEST PUSH2 0x639 PUSH8 0x4871C6E8B052F47A PUSH1 0xC0 SHL PUSH2 0x1F23 JUMP JUMPDEST PUSH2 0x64D PUSH8 0x1A13391634A7A7BF PUSH1 0xC0 SHL PUSH2 0x1F23 JUMP JUMPDEST PUSH1 0x2 DUP5 DUP5 SWAP1 POP EQ DUP1 ISZERO PUSH2 0x660 JUMPI POP PUSH1 0x0 DUP7 GT JUMPDEST PUSH2 0x69F JUMPI PUSH1 0x40 MLOAD PUSH32 0x8C379A000000000000000000000000000000000000000000000000000000000 DUP2 MSTORE PUSH1 0x4 ADD PUSH2 0x696 SWAP1 PUSH2 0x3192 JUMP JUMPDEST PUSH1 0x40 MLOAD DUP1 SWAP2 SUB SWAP1 REVERT JUMPDEST PUSH2 0x6B3 PUSH8 0x597DC4491C05CB17 PUSH1 0xC0 SHL PUSH2 0x1F23 JUMP JUMPDEST PUSH2 0x6C7 PUSH8 0xB0169566AD7BA2A9 PUSH1 0xC0 SHL PUSH2 0x1F23 JUMP JUMPDEST PUSH2 0x6DB PUSH8 0x222108CFA501F948 PUSH1 0xC0 SHL PUSH2 0x1F23 JUMP JUMPDEST PUSH1 0x0 PUSH2 0x737 DUP6 DUP6 PUSH1 0x0 DUP2 DUP2 LT PUSH2 0x6F4 JUMPI PUSH2 0x6F3 PUSH2 0x31B2 JUMP JUMPDEST JUMPDEST SWAP1 POP PUSH1 0x20 MUL ADD PUSH1 0x20 DUP2 ADD SWAP1 PUSH2 0x709 SWAP2 SWAP1 PUSH2 0x2C81 JUMP JUMPDEST DUP7 DUP7 PUSH1 0x1 DUP2 DUP2 LT PUSH2 0x71D JUMPI PUSH2 0x71C PUSH2 0x31B2 JUMP JUMPDEST JUMPDEST SWAP1 POP PUSH1 0x20 MUL ADD PUSH1 0x20 DUP2 ADD SWAP1 PUSH2 0x732 SWAP2 SWAP1 PUSH2 0x2C81 JUMP JUMPDEST PUSH2 0x20C9 JUMP JUMPDEST SWAP1 POP PUSH2 0x74D PUSH8 0x743A1E1C3C8720C PUSH1 0xC0 SHL PUSH2 0x1F23 JUMP JUMPDEST PUSH2 0x761 PUSH8 0x626067452EA4CB2 PUSH1 0xC0 SHL PUSH2 0x1F23 JUMP JUMPDEST PUSH1 0x0 PUSH1 0x5 PUSH1 0x0 DUP4 DUP2 MSTORE PUSH1 0x20 ADD SWAP1 DUP2 MSTORE PUSH1 0x20 ADD PUSH1 0x0 KECCAK256 PUSH1 0x40 MLOAD DUP1 PUSH1 0x60 ADD PUSH1 0x40 MSTORE SWAP1 DUP2 PUSH1 0x0 DUP3 ADD SLOAD DUP2 MSTORE PUSH1 0x20 ADD PUSH1 0x1 DUP3 ADD SLOAD DUP2 MSTORE PUSH1 0x20 ADD PUSH1 0x2 DUP3 ADD SLOAD DUP2 MSTORE POP POP SWAP1 POP PUSH2 0x7B5 PUSH8 0x723FA8B530FFAE2C PUSH1 0xC0 SHL PUSH2 0x1F23 JUMP JUMPDEST PUSH2 0x7C9 PUSH8 0x96A9A51C527AC828 PUSH1 0xC0 SHL PUSH2 0x1F23 JUMP JUMPDEST PUSH2 0x7DD PUSH8 0x83678FCB0342EAE3 PUSH1 0xC0 SHL PUSH2 0x1F23 JUMP JUMPDEST PUSH1 0x0 DUP2 PUSH1 0x40 ADD MLOAD GT PUSH2 0x824 JUMPI PUSH1 0x40 MLOAD PUSH32 0x8C379A000000000000000000000000000000000000000000000000000000000 DUP2 MSTORE PUSH1 0x4 ADD PUSH2 0x81B SWAP1 PUSH2 0x322D JUMP JUMPDEST PUSH1 0x40 MLOAD DUP1 SWAP2 SUB SWAP1 REVERT JUMPDEST PUSH2 0x838 PUSH8 0xABB98A4AE4278179 PUSH1 0xC0 SHL PUSH2 0x1F23 JUMP JUMPDEST PUSH2 0x84C PUSH8 0xDA8E974921554B12 PUSH1 0xC0 SHL PUSH2 0x1F23 JUMP JUMPDEST PUSH2 0x860 PUSH8 0x93C239DDE298484 PUSH1 0xC0 SHL PUSH2 0x1F23 JUMP JUMPDEST PUSH1 0x0 DUP2 PUSH1 0x0 ADD MLOAD SWAP1 POP PUSH2 0x87D PUSH8 0xFB49FA6C8DF5ECBE PUSH1 0xC0 SHL PUSH2 0x1F23 JUMP JUMPDEST PUSH2 0x891 PUSH8 0x53623F0C41062AE6 PUSH1 0xC0 SHL PUSH2 0x1F23 JUMP JUMPDEST PUSH1 0x0 DUP3 PUSH1 0x20 ADD MLOAD SWAP1 POP PUSH2 0x8AE PUSH8 0x3C6786F88B13159F PUSH1 0xC0 SHL PUSH2 0x1F23 JUMP JUMPDEST PUSH2 0x8C2 PUSH8 0xD77E2820A01C7534 PUSH1 0xC0 SHL PUSH2 0x1F23 JUMP JUMPDEST PUSH1 0x0 PUSH2 0x8CF DUP12 DUP5 DUP5 PUSH2 0x373 JUMP JUMPDEST SWAP1 POP PUSH2 0x8E5 PUSH8 0xBC5299E3053BC191 PUSH1 0xC0 SHL PUSH2 0x1F23 JUMP JUMPDEST PUSH2 0x8F9 PUSH8 0x849AC851705D445F PUSH1 0xC0 SHL PUSH2 0x1F23 JUMP JUMPDEST PUSH2 0x90D PUSH8 0xA0FE01283F7B32F0 PUSH1 0xC0 SHL PUSH2 0x1F23 JUMP JUMPDEST DUP10 DUP2 LT ISZERO PUSH2 0x950 JUMPI PUSH1 0x40 MLOAD PUSH32 0x8C379A000000000000000000000000000000000000000000000000000000000 DUP2 MSTORE PUSH1 0x4 ADD PUSH2 0x947 SWAP1 PUSH2 0x3299 JUMP JUMPDEST PUSH1 0x40 MLOAD DUP1 SWAP2 SUB SWAP1 REVERT JUMPDEST PUSH2 0x964 PUSH8 0xA57B4C88DDD03CD6 PUSH1 0xC0 SHL PUSH2 0x1F23 JUMP JUMPDEST PUSH2 0x978 PUSH8 0xE7882F4402B3F70 PUSH1 0xC0 SHL PUSH2 0x1F23 JUMP JUMPDEST PUSH2 0x98B PUSH7 0x714BA7E4AEBC4C PUSH1 0xC0 SHL PUSH2 0x1F23 JUMP JUMPDEST DUP9 DUP9 PUSH1 0x0 DUP2 DUP2 LT PUSH2 0x99F JUMPI PUSH2 0x99E PUSH2 0x31B2 JUMP JUMPDEST JUMPDEST SWAP1 POP PUSH1 0x20 MUL ADD PUSH1 0x20 DUP2 ADD SWAP1 PUSH2 0x9B4 SWAP2 SWAP1 PUSH2 0x2C81 JUMP JUMPDEST PUSH20 0xFFFFFFFFFFFFFFFFFFFFFFFFFFFFFFFFFFFFFFFF AND PUSH4 0x23B872DD CALLER ADDRESS DUP15 PUSH1 0x40 MLOAD DUP5 PUSH4 0xFFFFFFFF AND PUSH1 0xE0 SHL DUP2 MSTORE PUSH1 0x4 ADD PUSH2 0x9F0 SWAP4 SWAP3 SWAP2 SWAP1 PUSH2 0x32C8 JUMP JUMPDEST PUSH1 0x20 PUSH1 0x40 MLOAD DUP1 DUP4 SUB DUP2 PUSH1 0x0 DUP8 GAS CALL ISZERO DUP1 ISZERO PUSH2 0xA0F JUMPI RETURNDATASIZE PUSH1 0x0 DUP1 RETURNDATACOPY RETURNDATASIZE PUSH1 0x0 REVERT JUMPDEST POP POP POP POP PUSH1 0x40 MLOAD RETURNDATASIZE PUSH1 0x1F NOT PUSH1 0x1F DUP3 ADD AND DUP3 ADD DUP1 PUSH1 0x40 MSTORE POP DUP2 ADD SWAP1 PUSH2 0xA33 SWAP2 SWAP1 PUSH2 0x332B JUMP JUMPDEST POP PUSH2 0xA48 PUSH8 0x69E4422BBA20F1F8 PUSH1 0xC0 SHL PUSH2 0x1F23 JUMP JUMPDEST PUSH2 0xA5C PUSH8 0x2AC17C18658E8F9C PUSH1 0xC0 SHL PUSH2 0x1F23 JUMP JUMPDEST DUP9 DUP9 PUSH1 0x1 DUP2 DUP2 LT PUSH2 0xA70 JUMPI PUSH2 0xA6F PUSH2 0x31B2 JUMP JUMPDEST JUMPDEST SWAP1 POP PUSH1 0x20 MUL ADD PUSH1 0x20 DUP2 ADD SWAP1 PUSH2 0xA85 SWAP2 SWAP1 PUSH2 0x2C81 JUMP JUMPDEST PUSH20 0xFFFFFFFFFFFFFFFFFFFFFFFFFFFFFFFFFFFFFFFF AND PUSH4 0xA9059CBB DUP9 DUP4 PUSH1 0x40 MLOAD DUP4 PUSH4 0xFFFFFFFF AND PUSH1 0xE0 SHL DUP2 MSTORE PUSH1 0x4 ADD PUSH2 0xABF SWAP3 SWAP2 SWAP1 PUSH2 0x3358 JUMP JUMPDEST PUSH1 0x20 PUSH1 0x40 MLOAD DUP1 DUP4 SUB DUP2 PUSH1 0x0 DUP8 GAS CALL ISZERO DUP1 ISZERO PUSH2 0xADE JUMPI RETURNDATASIZE PUSH1 0x0 DUP1 RETURNDATACOPY RETURNDATASIZE PUSH1 0x0 REVERT JUMPDEST POP POP POP POP PUSH1 0x40 MLOAD RETURNDATASIZE PUSH1 0x1F NOT PUSH1 0x1F DUP3 ADD AND DUP3 ADD DUP1 PUSH1 0x40 MSTORE POP DUP2 ADD SWAP1 PUSH2 0xB02 SWAP2 SWAP1 PUSH2 0x332B JUMP JUMPDEST POP PUSH2 0xB17 PUSH8 0x19665CF42D27BB22 PUSH1 0xC0 SHL PUSH2 0x1F23 JUMP JUMPDEST DUP11 DUP5 PUSH1 0x0 ADD DUP2 DUP2 MLOAD PUSH2 0xB29 SWAP2 SWAP1 PUSH2 0x2FA4 JUMP JUMPDEST SWAP2 POP DUP2 DUP2 MSTORE POP POP PUSH2 0xB44 PUSH8 0x75F39FFBF7697A39 PUSH1 0xC0 SHL PUSH2 0x1F23 JUMP JUMPDEST DUP1 DUP5 PUSH1 0x20 ADD DUP2 DUP2 MLOAD PUSH2 0xB56 SWAP2 SWAP1 PUSH2 0x3381 JUMP JUMPDEST SWAP2 POP DUP2 DUP2 MSTORE POP POP PUSH2 0xB71 PUSH8 0x8B96C5799CBA3962 PUSH1 0xC0 SHL PUSH2 0x1F23 JUMP JUMPDEST DUP4 PUSH1 0x5 PUSH1 0x0 DUP8 DUP2 MSTORE PUSH1 0x20 ADD SWAP1 DUP2 MSTORE PUSH1 0x20 ADD PUSH1 0x0 KECCAK256 PUSH1 0x0 DUP3 ADD MLOAD DUP2 PUSH1 0x0 ADD SSTORE PUSH1 0x20 DUP3 ADD MLOAD DUP2 PUSH1 0x1 ADD SSTORE PUSH1 0x40 DUP3 ADD MLOAD DUP2 PUSH1 0x2 ADD SSTORE SWAP1 POP POP PUSH2 0xBBA PUSH8 0xAB6B7B74C414940F PUSH1 0xC0 SHL PUSH2 0x1F23 JUMP JUMPDEST PUSH2 0xBCE PUSH8 0x820C502D65024DC0 PUSH1 0xC0 SHL PUSH2 0x1F23 JUMP JUMPDEST DUP7 PUSH20 0xFFFFFFFFFFFFFFFFFFFFFFFFFFFFFFFFFFFFFFFF AND CALLER PUSH20 0xFFFFFFFFFFFFFFFFFFFFFFFFFFFFFFFFFFFFFFFF AND PUSH32 0x20EFD6D5195B7B50273F01CD79A27989255356F9F13293EDC53EE142ACCFDB75 DUP12 DUP12 PUSH1 0x0 DUP2 DUP2 LT PUSH2 0xC31 JUMPI PUSH2 0xC30 PUSH2 0x31B2 JUMP JUMPDEST JUMPDEST SWAP1 POP PUSH1 0x20 MUL ADD PUSH1 0x20 DUP2 ADD SWAP1 PUSH2 0xC46 SWAP2 SWAP1 PUSH2 0x2C81 JUMP JUMPDEST DUP13 DUP13 PUSH1 0x1 DUP2 DUP2 LT PUSH2 0xC5A JUMPI PUSH2 0xC59 PUSH2 0x31B2 JUMP JUMPDEST JUMPDEST SWAP1 POP PUSH1 0x20 MUL ADD PUSH1 0x20 DUP2 ADD SWAP1 PUSH2 0xC6F SWAP2 SWAP1 PUSH2 0x2C81 JUMP JUMPDEST DUP16 DUP7 PUSH1 0x40 MLOAD PUSH2 0xC81 SWAP5 SWAP4 SWAP3 SWAP2 SWAP1 PUSH2 0x33B5 JUMP JUMPDEST PUSH1 0x40 MLOAD DUP1 SWAP2 SUB SWAP1 LOG3 POP POP POP POP POP POP POP POP POP POP POP JUMP JUMPDEST PUSH1 0x0 DUP1 PUSH1 0x0 DUP4 PUSH20 0xFFFFFFFFFFFFFFFFFFFFFFFFFFFFFFFFFFFFFFFF AND PUSH20 0xFFFFFFFFFFFFFFFFFFFFFFFFFFFFFFFFFFFFFFFF AND DUP2 MSTORE PUSH1 0x20 ADD SWAP1 DUP2 MSTORE PUSH1 0x20 ADD PUSH1 0x0 KECCAK256 SLOAD SWAP1 POP SWAP2 SWAP1 POP JUMP JUMPDEST PUSH1 0x60 PUSH1 0x4 DUP1 SLOAD PUSH2 0xCED SWAP1 PUSH2 0x30A9 JUMP JUMPDEST DUP1 PUSH1 0x1F ADD PUSH1 0x20 DUP1 SWAP2 DIV MUL PUSH1 0x20 ADD PUSH1 0x40 MLOAD SWAP1 DUP2 ADD PUSH1 0x40 MSTORE DUP1 SWAP3 SWAP2 SWAP1 DUP2 DUP2 MSTORE PUSH1 0x20 ADD DUP3 DUP1 SLOAD PUSH2 0xD19 SWAP1 PUSH2 0x30A9 JUMP JUMPDEST DUP1 ISZERO PUSH2 0xD66 JUMPI DUP1 PUSH1 0x1F LT PUSH2 0xD3B JUMPI PUSH2 0x100 DUP1 DUP4 SLOAD DIV MUL DUP4 MSTORE SWAP2 PUSH1 0x20 ADD SWAP2 PUSH2 0xD66 JUMP JUMPDEST DUP3 ADD SWAP2 SWAP1 PUSH1 0x0 MSTORE PUSH1 0x20 PUSH1 0x0 KECCAK256 SWAP1 JUMPDEST DUP2 SLOAD DUP2 MSTORE SWAP1 PUSH1 0x1 ADD SWAP1 PUSH1 0x20 ADD DUP1 DUP4 GT PUSH2 0xD49 JUMPI DUP3 SWAP1 SUB PUSH1 0x1F AND DUP3 ADD SWAP2 JUMPDEST POP POP POP POP POP SWAP1 POP SWAP1 JUMP JUMPDEST PUSH1 0x0 DUP1 PUSH2 0xD7B PUSH2 0x1F26 JUMP JUMPDEST SWAP1 POP PUSH2 0xD88 DUP2 DUP6 DUP6 PUSH2 0x1FD5 JUMP JUMPDEST PUSH1 0x1 SWAP2 POP POP SWAP3 SWAP2 POP POP JUMP JUMPDEST PUSH1 0x0 PUSH2 0xDA9 PUSH8 0xDC24C757F5BD9EE9 PUSH1 0xC0 SHL PUSH2 0x1F23 JUMP JUMPDEST PUSH2 0xDBD PUSH8 0x1C228CC05C2477F5 PUSH1 0xC0 SHL PUSH2 0x1F23 JUMP JUMPDEST PUSH2 0xDD1 PUSH8 0x2CE961CEE5AB9722 PUSH1 0xC0 SHL PUSH2 0x1F23 JUMP JUMPDEST PUSH1 0x0 PUSH2 0xDDD DUP5 DUP5 PUSH2 0x20C9 JUMP JUMPDEST SWAP1 POP PUSH2 0xDF3 PUSH8 0x12B4C26B4A1186CE PUSH1 0xC0 SHL PUSH2 0x1F23 JUMP JUMPDEST PUSH2 0xE07 PUSH8 0x4BFED0D0D969749 PUSH1 0xC0 SHL PUSH2 0x1F23 JUMP JUMPDEST PUSH1 0x0 PUSH1 0x5 PUSH1 0x0 DUP4 DUP2 MSTORE PUSH1 0x20 ADD SWAP1 DUP2 MSTORE PUSH1 0x20 ADD PUSH1 0x0 KECCAK256 PUSH1 0x40 MLOAD DUP1 PUSH1 0x60 ADD PUSH1 0x40 MSTORE SWAP1 DUP2 PUSH1 0x0 DUP3 ADD SLOAD DUP2 MSTORE PUSH1 0x20 ADD PUSH1 0x1 DUP3 ADD SLOAD DUP2 MSTORE PUSH1 0x20 ADD PUSH1 0x2 DUP3 ADD SLOAD DUP2 MSTORE POP POP SWAP1 POP PUSH2 0xE5B PUSH8 0x9AE16A65F3CDEB5F PUSH1 0xC0 SHL PUSH2 0x1F23 JUMP JUMPDEST PUSH2 0xE6F PUSH8 0xF94502BC1C6927FF PUSH1 0xC0 SHL PUSH2 0x1F23 JUMP JUMPDEST PUSH2 0xE83 PUSH8 0xEF1AFD1A2F27EC30 PUSH1 0xC0 SHL PUSH2 0x1F23 JUMP JUMPDEST PUSH1 0x0 DUP2 PUSH1 0x0 ADD MLOAD GT DUP1 ISZERO PUSH2 0xE9B JUMPI POP PUSH1 0x0 DUP2 PUSH1 0x20 ADD MLOAD GT JUMPDEST PUSH2 0xEDA JUMPI PUSH1 0x40 MLOAD PUSH32 0x8C379A000000000000000000000000000000000000000000000000000000000 DUP2 MSTORE PUSH1 0x4 ADD PUSH2 0xED1 SWAP1 PUSH2 0x3446 JUMP JUMPDEST PUSH1 0x40 MLOAD DUP1 SWAP2 SUB SWAP1 REVERT JUMPDEST PUSH2 0xEEE PUSH8 0x407220F3D5B6B48F PUSH1 0xC0 SHL PUSH2 0x1F23 JUMP JUMPDEST PUSH2 0xF02 PUSH8 0x981B19FA4C161E26 PUSH1 0xC0 SHL PUSH2 0x1F23 JUMP JUMPDEST DUP1 PUSH1 0x0 ADD MLOAD PUSH8 0xDE0B6B3A7640000 DUP3 PUSH1 0x20 ADD MLOAD PUSH2 0xF1F SWAP2 SWAP1 PUSH2 0x2FD8 JUMP JUMPDEST PUSH2 0xF29 SWAP2 SWAP1 PUSH2 0x3049 JUMP JUMPDEST SWAP3 POP POP POP SWAP3 SWAP2 POP POP JUMP JUMPDEST PUSH1 0x5 PUSH1 0x20 MSTORE DUP1 PUSH1 0x0 MSTORE PUSH1 0x40 PUSH1 0x0 KECCAK256 PUSH1 0x0 SWAP2 POP SWAP1 POP DUP1 PUSH1 0x0 ADD SLOAD SWAP1 DUP1 PUSH1 0x1 ADD SLOAD SWAP1 DUP1 PUSH1 0x2 ADD SLOAD SWAP1 POP DUP4 JUMP JUMPDEST PUSH1 0x0 DUP1 PUSH2 0xF74 PUSH8 0xC42C20F84B8A3354 PUSH1 0xC0 SHL PUSH2 0x1F23 JUMP JUMPDEST PUSH2 0xF88 PUSH8 0xA9B4818B1B6F70A5 PUSH1 0xC0 SHL PUSH2 0x1F23 JUMP JUMPDEST PUSH2 0xF9C PUSH8 0x5EF29D367FDCC6E4 PUSH1 0xC0 SHL PUSH2 0x1F23 JUMP JUMPDEST PUSH2 0xFB0 PUSH8 0x94858844D567CACD PUSH1 0xC0 SHL PUSH2 0x1F23 JUMP JUMPDEST DUP3 TIMESTAMP GT ISZERO PUSH2 0xFF3 JUMPI PUSH1 0x40 MLOAD PUSH32 0x8C379A000000000000000000000000000000000000000000000000000000000 DUP2 MSTORE PUSH1 0x4 ADD PUSH2 0xFEA SWAP1 PUSH2 0x3126 JUMP JUMPDEST PUSH1 0x40 MLOAD DUP1 SWAP2 SUB SWAP1 REVERT JUMPDEST PUSH2 0x1007 PUSH8 0xDF053E85C1A1676F PUSH1 0xC0 SHL PUSH2 0x1F23 JUMP JUMPDEST PUSH2 0x101B PUSH8 0x25B2DBBD7F89B60E PUSH1 0xC0 SHL PUSH2 0x1F23 JUMP JUMPDEST PUSH2 0x102F PUSH8 0x31F43EBD86854B8 PUSH1 0xC0 SHL PUSH2 0x1F23 JUMP JUMPDEST PUSH2 0x1043 PUSH8 0xEFCB99965F71B06 PUSH1 0xC0 SHL PUSH2 0x1F23 JUMP JUMPDEST DUP7 PUSH2 0x104D CALLER PUSH2 0xC96 JUMP JUMPDEST LT ISZERO PUSH2 0x108E JUMPI PUSH1 0x40 MLOAD PUSH32 0x8C379A000000000000000000000000000000000000000000000000000000000 DUP2 MSTORE PUSH1 0x4 ADD PUSH2 0x1085 SWAP1 PUSH2 0x34B2 JUMP JUMPDEST PUSH1 0x40 MLOAD DUP1 SWAP2 SUB SWAP1 REVERT JUMPDEST PUSH2 0x10A2 PUSH8 0xAFD00E6F8A3BA143 PUSH1 0xC0 SHL PUSH2 0x1F23 JUMP JUMPDEST PUSH2 0x10B6 PUSH8 0x8E99B4B6629A893E PUSH1 0xC0 SHL PUSH2 0x1F23 JUMP JUMPDEST PUSH2 0x10CA PUSH8 0x97ACCC1C6571F206 PUSH1 0xC0 SHL PUSH2 0x1F23 JUMP JUMPDEST PUSH1 0x0 PUSH2 0x10D6 DUP11 DUP11 PUSH2 0x20C9 JUMP JUMPDEST SWAP1 POP PUSH2 0x10EC PUSH8 0x7616E5C9528432A3 PUSH1 0xC0 SHL PUSH2 0x1F23 JUMP JUMPDEST PUSH2 0x1100 PUSH8 0x52DD2F17229A50D8 PUSH1 0xC0 SHL PUSH2 0x1F23 JUMP JUMPDEST PUSH1 0x0 PUSH1 0x5 PUSH1 0x0 DUP4 DUP2 MSTORE PUSH1 0x20 ADD SWAP1 DUP2 MSTORE PUSH1 0x20 ADD PUSH1 0x0 KECCAK256 PUSH1 0x40 MLOAD DUP1 PUSH1 0x60 ADD PUSH1 0x40 MSTORE SWAP1 DUP2 PUSH1 0x0 DUP3 ADD SLOAD DUP2 MSTORE PUSH1 0x20 ADD PUSH1 0x1 DUP3 ADD SLOAD DUP2 MSTORE PUSH1 0x20 ADD PUSH1 0x2 DUP3 ADD SLOAD DUP2 MSTORE POP POP SWAP1 POP PUSH2 0x1154 PUSH8 0x62658C2864A44173 PUSH1 0xC0 SHL PUSH2 0x1F23 JUMP JUMPDEST DUP1 PUSH1 0x40 ADD MLOAD DUP2 PUSH1 0x0 ADD MLOAD DUP11 PUSH2 0x1169 SWAP2 SWAP1 PUSH2 0x2FD8 JUMP JUMPDEST PUSH2 0x1173 SWAP2 SWAP1 PUSH2 0x3049 JUMP JUMPDEST SWAP4 POP PUSH2 0x1189 PUSH8 0xC11D33635FE01CD2 PUSH1 0xC0 SHL PUSH2 0x1F23 JUMP JUMPDEST DUP1 PUSH1 0x40 ADD MLOAD DUP2 PUSH1 0x20 ADD MLOAD DUP11 PUSH2 0x119E SWAP2 SWAP1 PUSH2 0x2FD8 JUMP JUMPDEST PUSH2 0x11A8 SWAP2 SWAP1 PUSH2 0x3049 JUMP JUMPDEST SWAP3 POP PUSH2 0x11BE PUSH8 0xEE416E17B6DEF21C PUSH1 0xC0 SHL PUSH2 0x1F23 JUMP JUMPDEST PUSH2 0x11D2 PUSH8 0x2BE3F44C03BD0F0 PUSH1 0xC0 SHL PUSH2 0x1F23 JUMP JUMPDEST PUSH2 0x11E6 PUSH8 0x2E0BFA22658846FD PUSH1 0xC0 SHL PUSH2 0x1F23 JUMP JUMPDEST DUP8 DUP5 LT ISZERO PUSH2 0x1229 JUMPI PUSH1 0x40 MLOAD PUSH32 0x8C379A000000000000000000000000000000000000000000000000000000000 DUP2 MSTORE PUSH1 0x4 ADD PUSH2 0x1220 SWAP1 PUSH2 0x351E JUMP JUMPDEST PUSH1 0x40 MLOAD DUP1 SWAP2 SUB SWAP1 REVERT JUMPDEST PUSH2 0x123D PUSH8 0x373FDB9FDFD58DD PUSH1 0xC0 SHL PUSH2 0x1F23 JUMP JUMPDEST PUSH2 0x1251 PUSH8 0x5CC8B98773B07AA8 PUSH1 0xC0 SHL PUSH2 0x1F23 JUMP JUMPDEST PUSH2 0x1265 PUSH8 0x8DCAC4D3F9852417 PUSH1 0xC0 SHL PUSH2 0x1F23 JUMP JUMPDEST PUSH2 0x1279 PUSH8 0xD869EC22D673FA63 PUSH1 0xC0 SHL PUSH2 0x1F23 JUMP JUMPDEST DUP7 DUP4 LT ISZERO PUSH2 0x12BC JUMPI PUSH1 0x40 MLOAD PUSH32 0x8C379A000000000000000000000000000000000000000000000000000000000 DUP2 MSTORE PUSH1 0x4 ADD PUSH2 0x12B3 SWAP1 PUSH2 0x358A JUMP JUMPDEST PUSH1 0x40 MLOAD DUP1 SWAP2 SUB SWAP1 REVERT JUMPDEST PUSH2 0x12D0 PUSH8 0x6D15B4CB9B89BB8 PUSH1 0xC0 SHL PUSH2 0x1F23 JUMP JUMPDEST PUSH2 0x12E4 PUSH8 0xEF74820A368A203F PUSH1 0xC0 SHL PUSH2 0x1F23 JUMP JUMPDEST DUP4 DUP2 PUSH1 0x0 ADD DUP2 DUP2 MLOAD PUSH2 0x12F6 SWAP2 SWAP1 PUSH2 0x3381 JUMP JUMPDEST SWAP2 POP DUP2 DUP2 MSTORE POP POP PUSH2 0x1311 PUSH8 0x5F47C801132BFED0 PUSH1 0xC0 SHL PUSH2 0x1F23 JUMP JUMPDEST DUP3 DUP2 PUSH1 0x20 ADD DUP2 DUP2 MLOAD PUSH2 0x1323 SWAP2 SWAP1 PUSH2 0x3381 JUMP JUMPDEST SWAP2 POP DUP2 DUP2 MSTORE POP POP PUSH2 0x133E PUSH8 0x9CDEB1CD5591E803 PUSH1 0xC0 SHL PUSH2 0x1F23 JUMP JUMPDEST DUP9 DUP2 PUSH1 0x40 ADD DUP2 DUP2 MLOAD PUSH2 0x1350 SWAP2 SWAP1 PUSH2 0x3381 JUMP JUMPDEST SWAP2 POP DUP2 DUP2 MSTORE POP POP PUSH2 0x136B PUSH8 0xF42BF9C313455050 PUSH1 0xC0 SHL PUSH2 0x1F23 JUMP JUMPDEST DUP1 PUSH1 0x5 PUSH1 0x0 DUP5 DUP2 MSTORE PUSH1 0x20 ADD SWAP1 DUP2 MSTORE PUSH1 0x20 ADD PUSH1 0x0 KECCAK256 PUSH1 0x0 DUP3 ADD MLOAD DUP2 PUSH1 0x0 ADD SSTORE PUSH1 0x20 DUP3 ADD MLOAD DUP2 PUSH1 0x1 ADD SSTORE PUSH1 0x40 DUP3 ADD MLOAD DUP2 PUSH1 0x2 ADD SSTORE SWAP1 POP POP PUSH2 0x13B4 PUSH8 0xB338F1695CDA537F PUSH1 0xC0 SHL PUSH2 0x1F23 JUMP JUMPDEST PUSH2 0x13C8 PUSH8 0x62AF9C09DF626FC2 PUSH1 0xC0 SHL PUSH2 0x1F23 JUMP JUMPDEST PUSH2 0x13D2 CALLER DUP11 PUSH2 0x21C9 JUMP JUMPDEST PUSH2 0x13E6 PUSH8 0x35D5F05ABFA73768 PUSH1 0xC0 SHL PUSH2 0x1F23 JUMP JUMPDEST PUSH2 0x13FA PUSH8 0x698DC65E49F3450C PUSH1 0xC0 SHL PUSH2 0x1F23 JUMP JUMPDEST DUP11 PUSH20 0xFFFFFFFFFFFFFFFFFFFFFFFFFFFFFFFFFFFFFFFF AND PUSH4 0xA9059CBB DUP8 DUP7 PUSH1 0x40 MLOAD DUP4 PUSH4 0xFFFFFFFF AND PUSH1 0xE0 SHL DUP2 MSTORE PUSH1 0x4 ADD PUSH2 0x1435 SWAP3 SWAP2 SWAP1 PUSH2 0x3358 JUMP JUMPDEST PUSH1 0x20 PUSH1 0x40 MLOAD DUP1 DUP4 SUB DUP2 PUSH1 0x0 DUP8 GAS CALL ISZERO DUP1 ISZERO PUSH2 0x1454 JUMPI RETURNDATASIZE PUSH1 0x0 DUP1 RETURNDATACOPY RETURNDATASIZE PUSH1 0x0 REVERT JUMPDEST POP POP POP POP PUSH1 0x40 MLOAD RETURNDATASIZE PUSH1 0x1F NOT PUSH1 0x1F DUP3 ADD AND DUP3 ADD DUP1 PUSH1 0x40 MSTORE POP DUP2 ADD SWAP1 PUSH2 0x1478 SWAP2 SWAP1 PUSH2 0x332B JUMP JUMPDEST POP PUSH2 0x148D PUSH8 0xE1FB8F338221A19 PUSH1 0xC0 SHL PUSH2 0x1F23 JUMP JUMPDEST PUSH2 0x14A1 PUSH8 0xB5746BCF0BA08806 PUSH1 0xC0 SHL PUSH2 0x1F23 JUMP JUMPDEST DUP10 PUSH20 0xFFFFFFFFFFFFFFFFFFFFFFFFFFFFFFFFFFFFFFFF AND PUSH4 0xA9059CBB DUP8 DUP6 PUSH1 0x40 MLOAD DUP4 PUSH4 0xFFFFFFFF AND PUSH1 0xE0 SHL DUP2 MSTORE PUSH1 0x4 ADD PUSH2 0x14DC SWAP3 SWAP2 SWAP1 PUSH2 0x3358 JUMP JUMPDEST PUSH1 0x20 PUSH1 0x40 MLOAD DUP1 DUP4 SUB DUP2 PUSH1 0x0 DUP8 GAS CALL ISZERO DUP1 ISZERO PUSH2 0x14FB JUMPI RETURNDATASIZE PUSH1 0x0 DUP1 RETURNDATACOPY RETURNDATASIZE PUSH1 0x0 REVERT JUMPDEST POP POP POP POP PUSH1 0x40 MLOAD RETURNDATASIZE PUSH1 0x1F NOT PUSH1 0x1F DUP3 ADD AND DUP3 ADD DUP1 PUSH1 0x40 MSTORE POP DUP2 ADD SWAP1 PUSH2 0x151F SWAP2 SWAP1 PUSH2 0x332B JUMP JUMPDEST POP PUSH2 0x1534 PUSH8 0xE9F2EBE54B0CF59E PUSH1 0xC0 SHL PUSH2 0x1F23 JUMP JUMPDEST PUSH2 0x1548 PUSH8 0x64FA635E667E75C8 PUSH1 0xC0 SHL PUSH2 0x1F23 JUMP JUMPDEST DUP10 PUSH20 0xFFFFFFFFFFFFFFFFFFFFFFFFFFFFFFFFFFFFFFFF AND DUP12 PUSH20 0xFFFFFFFFFFFFFFFFFFFFFFFFFFFFFFFFFFFFFFFF AND CALLER PUSH20 0xFFFFFFFFFFFFFFFFFFFFFFFFFFFFFFFFFFFFFFFF AND PUSH32 0xD765E08EEF31C0983ECCA03ECD166297AC485ECD5DD69E291C848F0A020333C1 DUP8 DUP8 DUP15 PUSH1 0x40 MLOAD PUSH2 0x15C0 SWAP4 SWAP3 SWAP2 SWAP1 PUSH2 0x2D51 JUMP JUMPDEST PUSH1 0x40 MLOAD DUP1 SWAP2 SUB SWAP1 LOG4 PUSH2 0x15DC PUSH8 0x5031F6AAB5824194 PUSH1 0xC0 SHL PUSH2 0x1F23 JUMP JUMPDEST PUSH2 0x15F0 PUSH8 0xF4A80128F5885D19 PUSH1 0xC0 SHL PUSH2 0x1F23 JUMP JUMPDEST POP POP SWAP8 POP SWAP8 SWAP6 POP POP POP POP POP POP JUMP JUMPDEST PUSH1 0x0 PUSH1 0x1 PUSH1 0x0 DUP5 PUSH20 0xFFFFFFFFFFFFFFFFFFFFFFFFFFFFFFFFFFFFFFFF AND PUSH20 0xFFFFFFFFFFFFFFFFFFFFFFFFFFFFFFFFFFFFFFFF AND DUP2 MSTORE PUSH1 0x20 ADD SWAP1 DUP2 MSTORE PUSH1 0x20 ADD PUSH1 0x0 KECCAK256 PUSH1 0x0 DUP4 PUSH20 0xFFFFFFFFFFFFFFFFFFFFFFFFFFFFFFFFFFFFFFFF AND PUSH20 0xFFFFFFFFFFFFFFFFFFFFFFFFFFFFFFFFFFFFFFFF AND DUP2 MSTORE PUSH1 0x20 ADD SWAP1 DUP2 MSTORE PUSH1 0x20 ADD PUSH1 0x0 KECCAK256 SLOAD SWAP1 POP SWAP3 SWAP2 POP POP JUMP JUMPDEST PUSH1 0x0 DUP1 PUSH1 0x0 PUSH2 0x169E PUSH8 0x377558721701A4ED PUSH1 0xC0 SHL PUSH2 0x1F23 JUMP JUMPDEST PUSH2 0x16B2 PUSH8 0xDE8E4A3A3D0CC4DD PUSH1 0xC0 SHL PUSH2 0x1F23 JUMP JUMPDEST PUSH2 0x16C6 PUSH8 0x93FFA080512E869B PUSH1 0xC0 SHL PUSH2 0x1F23 JUMP JUMPDEST PUSH2 0x16DA PUSH8 0x4E2502A075798B17 PUSH1 0xC0 SHL PUSH2 0x1F23 JUMP JUMPDEST DUP4 TIMESTAMP GT ISZERO PUSH2 0x171D JUMPI PUSH1 0x40 MLOAD PUSH32 0x8C379A000000000000000000000000000000000000000000000000000000000 DUP2 MSTORE PUSH1 0x4 ADD PUSH2 0x1714 SWAP1 PUSH2 0x3126 JUMP JUMPDEST PUSH1 0x40 MLOAD DUP1 SWAP2 SUB SWAP1 REVERT JUMPDEST PUSH2 0x1731 PUSH8 0x3C7343C61DDEB044 PUSH1 0xC0 SHL PUSH2 0x1F23 JUMP JUMPDEST PUSH2 0x1745 PUSH8 0x3E29835513605E0D PUSH1 0xC0 SHL PUSH2 0x1F23 JUMP JUMPDEST PUSH2 0x1759 PUSH8 0xF949024774884029 PUSH1 0xC0 SHL PUSH2 0x1F23 JUMP JUMPDEST PUSH1 0x0 PUSH2 0x1765 DUP13 DUP13 PUSH2 0x20C9 JUMP JUMPDEST SWAP1 POP PUSH2 0x177B PUSH8 0x26469AC1821F42D3 PUSH1 0xC0 SHL PUSH2 0x1F23 JUMP JUMPDEST PUSH2 0x178F PUSH8 0xC1E2C7B31728E856 PUSH1 0xC0 SHL PUSH2 0x1F23 JUMP JUMPDEST PUSH1 0x0 PUSH1 0x5 PUSH1 0x0 DUP4 DUP2 MSTORE PUSH1 0x20 ADD SWAP1 DUP2 MSTORE PUSH1 0x20 ADD PUSH1 0x0 KECCAK256 PUSH1 0x40 MLOAD DUP1 PUSH1 0x60 ADD PUSH1 0x40 MSTORE SWAP1 DUP2 PUSH1 0x0 DUP3 ADD SLOAD DUP2 MSTORE PUSH1 0x20 ADD PUSH1 0x1 DUP3 ADD SLOAD DUP2 MSTORE PUSH1 0x20 ADD PUSH1 0x2 DUP3 ADD SLOAD DUP2 MSTORE POP POP SWAP1 POP PUSH2 0x17E3 PUSH8 0xFAA21A5AD6B4B9F6 PUSH1 0xC0 SHL PUSH2 0x1F23 JUMP JUMPDEST PUSH2 0x17F7 PUSH8 0x5F43D7E954B5EE10 PUSH1 0xC0 SHL PUSH2 0x1F23 JUMP JUMPDEST PUSH1 0x0 DUP2 PUSH1 0x40 ADD MLOAD SUB PUSH2 0x1874 JUMPI PUSH2 0x1817 PUSH8 0x10FC20353BA1CFA4 PUSH1 0xC0 SHL PUSH2 0x1F23 JUMP JUMPDEST PUSH2 0x182B PUSH8 0x15AAA0896AAD6A1D PUSH1 0xC0 SHL PUSH2 0x1F23 JUMP JUMPDEST DUP11 SWAP5 POP PUSH2 0x1842 PUSH8 0x908965B0AA4846A3 PUSH1 0xC0 SHL PUSH2 0x1F23 JUMP JUMPDEST DUP10 SWAP4 POP PUSH2 0x1859 PUSH8 0x2D9A993229BD3386 PUSH1 0xC0 SHL PUSH2 0x1F23 JUMP JUMPDEST PUSH2 0x186D DUP5 DUP7 PUSH2 0x1868 SWAP2 SWAP1 PUSH2 0x2FD8 JUMP JUMPDEST PUSH2 0x224B JUMP JUMPDEST SWAP3 POP PUSH2 0x1B5C JUMP JUMPDEST PUSH2 0x1888 PUSH8 0x9FE1E552C3BF2ECA PUSH1 0xC0 SHL PUSH2 0x1F23 JUMP JUMPDEST PUSH2 0x189C PUSH8 0xD027ABAF57734ADA PUSH1 0xC0 SHL PUSH2 0x1F23 JUMP JUMPDEST PUSH2 0x18B0 PUSH8 0xBCD468380BDAA362 PUSH1 0xC0 SHL PUSH2 0x1F23 JUMP JUMPDEST PUSH1 0x0 DUP2 PUSH1 0x0 ADD MLOAD DUP3 PUSH1 0x20 ADD MLOAD DUP14 PUSH2 0x18C7 SWAP2 SWAP1 PUSH2 0x2FD8 JUMP JUMPDEST PUSH2 0x18D1 SWAP2 SWAP1 PUSH2 0x3049 JUMP JUMPDEST SWAP1 POP PUSH2 0x18E7 PUSH8 0x4CC022F052E19E77 PUSH1 0xC0 SHL PUSH2 0x1F23 JUMP JUMPDEST PUSH2 0x18FB PUSH8 0x282E46DF038C99A5 PUSH1 0xC0 SHL PUSH2 0x1F23 JUMP JUMPDEST DUP11 DUP2 GT PUSH2 0x19DC JUMPI PUSH2 0x1916 PUSH8 0xD67C3DD8DD61FD0A PUSH1 0xC0 SHL PUSH2 0x1F23 JUMP JUMPDEST PUSH2 0x192A PUSH8 0xE0655994B4943E47 PUSH1 0xC0 SHL PUSH2 0x1F23 JUMP JUMPDEST PUSH2 0x193E PUSH8 0xBFB4C7BB14CF6030 PUSH1 0xC0 SHL PUSH2 0x1F23 JUMP JUMPDEST PUSH2 0x1952 PUSH8 0xA9A49DE0A67E2AFB PUSH1 0xC0 SHL PUSH2 0x1F23 JUMP JUMPDEST DUP9 DUP2 LT ISZERO PUSH2 0x1995 JUMPI PUSH1 0x40 MLOAD PUSH32 0x8C379A000000000000000000000000000000000000000000000000000000000 DUP2 MSTORE PUSH1 0x4 ADD PUSH2 0x198C SWAP1 PUSH2 0x358A JUMP JUMPDEST PUSH1 0x40 MLOAD DUP1 SWAP2 SUB SWAP1 REVERT JUMPDEST PUSH2 0x19A9 PUSH8 0x4BE839B2D8B92655 PUSH1 0xC0 SHL PUSH2 0x1F23 JUMP JUMPDEST PUSH2 0x19BD PUSH8 0x41C314D78F41BBCA PUSH1 0xC0 SHL PUSH2 0x1F23 JUMP JUMPDEST DUP12 SWAP6 POP PUSH2 0x19D4 PUSH8 0xB0A680F8507E22B PUSH1 0xC0 SHL PUSH2 0x1F23 JUMP JUMPDEST DUP1 SWAP5 POP PUSH2 0x1AFE JUMP JUMPDEST PUSH2 0x19F0 PUSH8 0x8AB763D58ED51F9B PUSH1 0xC0 SHL PUSH2 0x1F23 JUMP JUMPDEST PUSH2 0x1A04 PUSH8 0xE6B775537C4E1FF6 PUSH1 0xC0 SHL PUSH2 0x1F23 JUMP JUMPDEST PUSH2 0x1A18 PUSH8 0x86855F30379822C2 PUSH1 0xC0 SHL PUSH2 0x1F23 JUMP JUMPDEST PUSH1 0x0 DUP3 PUSH1 0x20 ADD MLOAD DUP4 PUSH1 0x0 ADD MLOAD DUP14 PUSH2 0x1A2F SWAP2 SWAP1 PUSH2 0x2FD8 JUMP JUMPDEST PUSH2 0x1A39 SWAP2 SWAP1 PUSH2 0x3049 JUMP JUMPDEST SWAP1 POP PUSH2 0x1A4F PUSH8 0x36CD01D70313192E PUSH1 0xC0 SHL PUSH2 0x1F23 JUMP JUMPDEST PUSH2 0x1A63 PUSH8 0x1677D6957EED1A9B PUSH1 0xC0 SHL PUSH2 0x1F23 JUMP JUMPDEST PUSH2 0x1A77 PUSH8 0xE93AEF8FE781262A PUSH1 0xC0 SHL PUSH2 0x1F23 JUMP JUMPDEST DUP11 DUP2 LT ISZERO PUSH2 0x1ABA JUMPI PUSH1 0x40 MLOAD PUSH32 0x8C379A000000000000000000000000000000000000000000000000000000000 DUP2 MSTORE PUSH1 0x4 ADD PUSH2 0x1AB1 SWAP1 PUSH2 0x351E JUMP JUMPDEST PUSH1 0x40 MLOAD DUP1 SWAP2 SUB SWAP1 REVERT JUMPDEST PUSH2 0x1ACE PUSH8 0xE34F9E248D1706FD PUSH1 0xC0 SHL PUSH2 0x1F23 JUMP JUMPDEST PUSH2 0x1AE2 PUSH8 0xA99B16120F1F4F27 PUSH1 0xC0 SHL PUSH2 0x1F23 JUMP JUMPDEST DUP1 SWAP7 POP PUSH2 0x1AF9 PUSH8 0xA55F190C5D49D8B4 PUSH1 0xC0 SHL PUSH2 0x1F23 JUMP JUMPDEST DUP12 SWAP6 POP POP JUMPDEST PUSH2 0x1B12 PUSH8 0x33623574FEAEFBCD PUSH1 0xC0 SHL PUSH2 0x1F23 JUMP JUMPDEST PUSH2 0x1B58 DUP3 PUSH1 0x0 ADD MLOAD DUP4 PUSH1 0x40 ADD MLOAD DUP9 PUSH2 0x1B2A SWAP2 SWAP1 PUSH2 0x2FD8 JUMP JUMPDEST PUSH2 0x1B34 SWAP2 SWAP1 PUSH2 0x3049 JUMP JUMPDEST DUP4 PUSH1 0x20 ADD MLOAD DUP5 PUSH1 0x40 ADD MLOAD DUP9 PUSH2 0x1B49 SWAP2 SWAP1 PUSH2 0x2FD8 JUMP JUMPDEST PUSH2 0x1B53 SWAP2 SWAP1 PUSH2 0x3049 JUMP JUMPDEST PUSH2 0x23E8 JUMP JUMPDEST SWAP4 POP POP JUMPDEST PUSH2 0x1B70 PUSH8 0x245176F70C6A8691 PUSH1 0xC0 SHL PUSH2 0x1F23 JUMP JUMPDEST PUSH2 0x1B84 PUSH8 0x3DDAFC0135E9CD8D PUSH1 0xC0 SHL PUSH2 0x1F23 JUMP JUMPDEST PUSH2 0x1B98 PUSH8 0x68ACAB8F42AC7CB6 PUSH1 0xC0 SHL PUSH2 0x1F23 JUMP JUMPDEST PUSH1 0x0 DUP4 GT PUSH2 0x1BDB JUMPI PUSH1 0x40 MLOAD PUSH32 0x8C379A000000000000000000000000000000000000000000000000000000000 DUP2 MSTORE PUSH1 0x4 ADD PUSH2 0x1BD2 SWAP1 PUSH2 0x35F6 JUMP JUMPDEST PUSH1 0x40 MLOAD DUP1 SWAP2 SUB SWAP1 REVERT JUMPDEST PUSH2 0x1BEF PUSH8 0x9BBBAF000A2E96AA PUSH1 0xC0 SHL PUSH2 0x1F23 JUMP JUMPDEST PUSH2 0x1C03 PUSH8 0xFE4A2939CEC78FAA PUSH1 0xC0 SHL PUSH2 0x1F23 JUMP JUMPDEST PUSH2 0x1C17 PUSH8 0x7A3458D8223945C PUSH1 0xC0 SHL PUSH2 0x1F23 JUMP JUMPDEST DUP13 PUSH20 0xFFFFFFFFFFFFFFFFFFFFFFFFFFFFFFFFFFFFFFFF AND PUSH4 0x23B872DD CALLER ADDRESS DUP9 PUSH1 0x40 MLOAD DUP5 PUSH4 0xFFFFFFFF AND PUSH1 0xE0 SHL DUP2 MSTORE PUSH1 0x4 ADD PUSH2 0x1C54 SWAP4 SWAP3 SWAP2 SWAP1 PUSH2 0x32C8 JUMP JUMPDEST PUSH1 0x20 PUSH1 0x40 MLOAD DUP1 DUP4 SUB DUP2 PUSH1 0x0 DUP8 GAS CALL ISZERO DUP1 ISZERO PUSH2 0x1C73 JUMPI RETURNDATASIZE PUSH1 0x0 DUP1 RETURNDATACOPY RETURNDATASIZE PUSH1 0x0 REVERT JUMPDEST POP POP POP POP PUSH1 0x40 MLOAD RETURNDATASIZE PUSH1 0x1F NOT PUSH1 0x1F DUP3 ADD AND DUP3 ADD DUP1 PUSH1 0x40 MSTORE POP DUP2 ADD SWAP1 PUSH2 0x1C97 SWAP2 SWAP1 PUSH2 0x332B JUMP JUMPDEST POP PUSH2 0x1CAC PUSH8 0x6D8137F2247A641 PUSH1 0xC0 SHL PUSH2 0x1F23 JUMP JUMPDEST PUSH2 0x1CC0 PUSH8 0xE82CFFD40F828F4 PUSH1 0xC0 SHL PUSH2 0x1F23 JUMP JUMPDEST DUP12 PUSH20 0xFFFFFFFFFFFFFFFFFFFFFFFFFFFFFFFFFFFFFFFF AND PUSH4 0x23B872DD CALLER ADDRESS DUP8 PUSH1 0x40 MLOAD DUP5 PUSH4 0xFFFFFFFF AND PUSH1 0xE0 SHL DUP2 MSTORE PUSH1 0x4 ADD PUSH2 0x1CFD SWAP4 SWAP3 SWAP2 SWAP1 PUSH2 0x32C8 JUMP JUMPDEST PUSH1 0x20 PUSH1 0x40 MLOAD DUP1 DUP4 SUB DUP2 PUSH1 0x0 DUP8 GAS CALL ISZERO DUP1 ISZERO PUSH2 0x1D1C JUMPI RETURNDATASIZE PUSH1 0x0 DUP1 RETURNDATACOPY RETURNDATASIZE PUSH1 0x0 REVERT JUMPDEST POP POP POP POP PUSH1 0x40 MLOAD RETURNDATASIZE PUSH1 0x1F NOT PUSH1 0x1F DUP3 ADD AND DUP3 ADD DUP1 PUSH1 0x40 MSTORE POP DUP2 ADD SWAP1 PUSH2 0x1D40 SWAP2 SWAP1 PUSH2 0x332B JUMP JUMPDEST POP PUSH2 0x1D55 PUSH8 0x211AE82634C5436E PUSH1 0xC0 SHL PUSH2 0x1F23 JUMP JUMPDEST DUP5 DUP2 PUSH1 0x0 ADD DUP2 DUP2 MLOAD PUSH2 0x1D67 SWAP2 SWAP1 PUSH2 0x2FA4 JUMP JUMPDEST SWAP2 POP DUP2 DUP2 MSTORE POP POP PUSH2 0x1D82 PUSH8 0x737F9E6A61197018 PUSH1 0xC0 SHL PUSH2 0x1F23 JUMP JUMPDEST DUP4 DUP2 PUSH1 0x20 ADD DUP2 DUP2 MLOAD PUSH2 0x1D94 SWAP2 SWAP1 PUSH2 0x2FA4 JUMP JUMPDEST SWAP2 POP DUP2 DUP2 MSTORE POP POP PUSH2 0x1DAF PUSH8 0x6985FEDAA454079B PUSH1 0xC0 SHL PUSH2 0x1F23 JUMP JUMPDEST DUP3 DUP2 PUSH1 0x40 ADD DUP2 DUP2 MLOAD PUSH2 0x1DC1 SWAP2 SWAP1 PUSH2 0x2FA4 JUMP JUMPDEST SWAP2 POP DUP2 DUP2 MSTORE POP POP PUSH2 0x1DDC PUSH8 0xDEA34FB33D9AB429 PUSH1 0xC0 SHL PUSH2 0x1F23 JUMP JUMPDEST DUP1 PUSH1 0x5 PUSH1 0x0 DUP5 DUP2 MSTORE PUSH1 0x20 ADD SWAP1 DUP2 MSTORE PUSH1 0x20 ADD PUSH1 0x0 KECCAK256 PUSH1 0x0 DUP3 ADD MLOAD DUP2 PUSH1 0x0 ADD SSTORE PUSH1 0x20 DUP3 ADD MLOAD DUP2 PUSH1 0x1 ADD SSTORE PUSH1 0x40 DUP3 ADD MLOAD DUP2 PUSH1 0x2 ADD SSTORE SWAP1 POP POP PUSH2 0x1E25 PUSH8 0x54AEAA2C0D4B87AB PUSH1 0xC0 SHL PUSH2 0x1F23 JUMP JUMPDEST PUSH2 0x1E39 PUSH8 0xA44055E914CB0157 PUSH1 0xC0 SHL PUSH2 0x1F23 JUMP JUMPDEST PUSH2 0x1E43 DUP8 DUP5 PUSH2 0x23FF JUMP JUMPDEST PUSH2 0x1E57 PUSH8 0x33E2FDBAD375E8F9 PUSH1 0xC0 SHL PUSH2 0x1F23 JUMP JUMPDEST PUSH2 0x1E6B PUSH8 0xACE08479EEFE1329 PUSH1 0xC0 SHL PUSH2 0x1F23 JUMP JUMPDEST DUP12 PUSH20 0xFFFFFFFFFFFFFFFFFFFFFFFFFFFFFFFFFFFFFFFF AND DUP14 PUSH20 0xFFFFFFFFFFFFFFFFFFFFFFFFFFFFFFFFFFFFFFFF AND CALLER PUSH20 0xFFFFFFFFFFFFFFFFFFFFFFFFFFFFFFFFFFFFFFFF AND PUSH32 0x43C967B388D3A4CCAD3F7AB80167852E322E5A3FDE9893F530252281B2AE8B70 DUP9 DUP9 DUP9 PUSH1 0x40 MLOAD PUSH2 0x1EE3 SWAP4 SWAP3 SWAP2 SWAP1 PUSH2 0x2D51 JUMP JUMPDEST PUSH1 0x40 MLOAD DUP1 SWAP2 SUB SWAP1 LOG4 PUSH2 0x1EFF PUSH8 0x745414D6CE4C89EA PUSH1 0xC0 SHL PUSH2 0x1F23 JUMP JUMPDEST PUSH2 0x1F13 PUSH8 0x51E1DEC104A2B129 PUSH1 0xC0 SHL PUSH2 0x1F23 JUMP JUMPDEST POP POP SWAP9 POP SWAP9 POP SWAP9 SWAP6 POP POP POP POP POP POP JUMP JUMPDEST POP JUMP JUMPDEST PUSH1 0x0 CALLER SWAP1 POP SWAP1 JUMP JUMPDEST PUSH2 0x1F3B DUP4 DUP4 DUP4 PUSH1 0x1 PUSH2 0x2481 JUMP JUMPDEST POP POP POP JUMP JUMPDEST PUSH1 0x0 PUSH2 0x1F4C DUP5 DUP5 PUSH2 0x15FE JUMP JUMPDEST SWAP1 POP PUSH32 0xFFFFFFFFFFFFFFFFFFFFFFFFFFFFFFFFFFFFFFFFFFFFFFFFFFFFFFFFFFFFFFFF DUP2 LT ISZERO PUSH2 0x1FCF JUMPI DUP2 DUP2 LT ISZERO PUSH2 0x1FBF JUMPI DUP3 DUP2 DUP4 PUSH1 0x40 MLOAD PUSH32 0xFB8F41B200000000000000000000000000000000000000000000000000000000 DUP2 MSTORE PUSH1 0x4 ADD PUSH2 0x1FB6 SWAP4 SWAP3 SWAP2 SWAP1 PUSH2 0x3616 JUMP JUMPDEST PUSH1 0x40 MLOAD DUP1 SWAP2 SUB SWAP1 REVERT JUMPDEST PUSH2 0x1FCE DUP5 DUP5 DUP5 DUP5 SUB PUSH1 0x0 PUSH2 0x2481 JUMP JUMPDEST JUMPDEST POP POP POP POP JUMP JUMPDEST PUSH1 0x0 PUSH20 0xFFFFFFFFFFFFFFFFFFFFFFFFFFFFFFFFFFFFFFFF AND DUP4 PUSH20 0xFFFFFFFFFFFFFFFFFFFFFFFFFFFFFFFFFFFFFFFF AND SUB PUSH2 0x2047 JUMPI PUSH1 0x0 PUSH1 0x40 MLOAD PUSH32 0x96C6FD1E00000000000000000000000000000000000000000000000000000000 DUP2 MSTORE PUSH1 0x4 ADD PUSH2 0x203E SWAP2 SWAP1 PUSH2 0x364D JUMP JUMPDEST PUSH1 0x40 MLOAD DUP1 SWAP2 SUB SWAP1 REVERT JUMPDEST PUSH1 0x0 PUSH20 0xFFFFFFFFFFFFFFFFFFFFFFFFFFFFFFFFFFFFFFFF AND DUP3 PUSH20 0xFFFFFFFFFFFFFFFFFFFFFFFFFFFFFFFFFFFFFFFF AND SUB PUSH2 0x20B9 JUMPI PUSH1 0x0 PUSH1 0x40 MLOAD PUSH32 0xEC442F0500000000000000000000000000000000000000000000000000000000 DUP2 MSTORE PUSH1 0x4 ADD PUSH2 0x20B0 SWAP2 SWAP1 PUSH2 0x364D JUMP JUMPDEST PUSH1 0x40 MLOAD DUP1 SWAP2 SUB SWAP1 REVERT JUMPDEST PUSH2 0x20C4 DUP4 DUP4 DUP4 PUSH2 0x2658 JUMP JUMPDEST POP POP POP JUMP JUMPDEST PUSH1 0x0 PUSH2 0x20DF PUSH8 0x96C6F8C7D91CB2EC PUSH1 0xC0 SHL PUSH2 0x1F23 JUMP JUMPDEST PUSH2 0x20F3 PUSH8 0x87A256A18726E957 PUSH1 0xC0 SHL PUSH2 0x1F23 JUMP JUMPDEST PUSH2 0x2107 PUSH8 0x8FE7859B840EC34C PUSH1 0xC0 SHL PUSH2 0x1F23 JUMP JUMPDEST PUSH1 0x0 DUP1 DUP4 PUSH20 0xFFFFFFFFFFFFFFFFFFFFFFFFFFFFFFFFFFFFFFFF AND DUP6 PUSH20 0xFFFFFFFFFFFFFFFFFFFFFFFFFFFFFFFFFFFFFFFF AND LT DUP1 PUSH2 0x2154 JUMPI POP PUSH2 0x2153 PUSH8 0x4EEB3B4E321C503E PUSH1 0xC0 SHL PUSH2 0x287D JUMP JUMPDEST JUMPDEST DUP1 ISZERO PUSH2 0x2170 JUMPI POP PUSH2 0x216F PUSH8 0x840468D4100D8748 PUSH1 0xC0 SHL PUSH2 0x2884 JUMP JUMPDEST JUMPDEST PUSH2 0x217B JUMPI DUP4 DUP6 PUSH2 0x217E JUMP JUMPDEST DUP5 DUP5 JUMPDEST SWAP2 POP SWAP2 POP PUSH2 0x2196 PUSH8 0xACA6AB560E275A29 PUSH1 0xC0 SHL PUSH2 0x1F23 JUMP JUMPDEST DUP2 DUP2 PUSH1 0x40 MLOAD PUSH1 0x20 ADD PUSH2 0x21A9 SWAP3 SWAP2 SWAP1 PUSH2 0x36B0 JUMP JUMPDEST PUSH1 0x40 MLOAD PUSH1 0x20 DUP2 DUP4 SUB SUB DUP2 MSTORE SWAP1 PUSH1 0x40 MSTORE DUP1 MLOAD SWAP1 PUSH1 0x20 ADD KECCAK256 SWAP3 POP POP POP SWAP3 SWAP2 POP POP JUMP JUMPDEST PUSH1 0x0 PUSH20 0xFFFFFFFFFFFFFFFFFFFFFFFFFFFFFFFFFFFFFFFF AND DUP3 PUSH20 0xFFFFFFFFFFFFFFFFFFFFFFFFFFFFFFFFFFFFFFFF AND SUB PUSH2 0x223B JUMPI PUSH1 0x0 PUSH1 0x40 MLOAD PUSH32 0x96C6FD1E00000000000000000000000000000000000000000000000000000000 DUP2 MSTORE PUSH1 0x4 ADD PUSH2 0x2232 SWAP2 SWAP1 PUSH2 0x364D JUMP JUMPDEST PUSH1 0x40 MLOAD DUP1 SWAP2 SUB SWAP1 REVERT JUMPDEST PUSH2 0x2247 DUP3 PUSH1 0x0 DUP4 PUSH2 0x2658 JUMP JUMPDEST POP POP JUMP JUMPDEST PUSH1 0x0 PUSH1 0x1 DUP3 GT PUSH2 0x225D JUMPI DUP2 SWAP1 POP PUSH2 0x23E3 JUMP JUMPDEST PUSH1 0x0 DUP3 SWAP1 POP PUSH1 0x0 PUSH1 0x1 SWAP1 POP PUSH17 0x100000000000000000000000000000000 DUP3 LT PUSH2 0x228F JUMPI PUSH1 0x80 DUP3 SWAP1 SHR SWAP2 POP PUSH1 0x40 DUP2 SWAP1 SHL SWAP1 POP JUMPDEST PUSH9 0x10000000000000000 DUP3 LT PUSH2 0x22AE JUMPI PUSH1 0x40 DUP3 SWAP1 SHR SWAP2 POP PUSH1 0x20 DUP2 SWAP1 SHL SWAP1 POP JUMPDEST PUSH5 0x100000000 DUP3 LT PUSH2 0x22C9 JUMPI PUSH1 0x20 DUP3 SWAP1 SHR SWAP2 POP PUSH1 0x10 DUP2 SWAP1 SHL SWAP1 POP JUMPDEST PUSH3 0x10000 DUP3 LT PUSH2 0x22E2 JUMPI PUSH1 0x10 DUP3 SWAP1 SHR SWAP2 POP PUSH1 0x8 DUP2 SWAP1 SHL SWAP1 POP JUMPDEST PUSH2 0x100 DUP3 LT PUSH2 0x22FA JUMPI PUSH1 0x8 DUP3 SWAP1 SHR SWAP2 POP PUSH1 0x4 DUP2 SWAP1 SHL SWAP1 POP JUMPDEST PUSH1 0x10 DUP3 LT PUSH2 0x2311 JUMPI PUSH1 0x4 DUP3 SWAP1 SHR SWAP2 POP PUSH1 0x2 DUP2 SWAP1 SHL SWAP1 POP JUMPDEST PUSH1 0x4 DUP3 LT PUSH2 0x2321 JUMPI PUSH1 0x1 DUP2 SWAP1 SHL SWAP1 POP JUMPDEST PUSH1 0x1 DUP2 PUSH1 0x3 MUL SWAP1 SHR SWAP1 POP PUSH1 0x1 DUP2 DUP6 DUP2 PUSH2 0x233D JUMPI PUSH2 0x233C PUSH2 0x301A JUMP JUMPDEST JUMPDEST DIV DUP3 ADD SWAP1 SHR SWAP1 POP PUSH1 0x1 DUP2 DUP6 DUP2 PUSH2 0x2356 JUMPI PUSH2 0x2355 PUSH2 0x301A JUMP JUMPDEST JUMPDEST DIV DUP3 ADD SWAP1 SHR SWAP1 POP PUSH1 0x1 DUP2 DUP6 DUP2 PUSH2 0x236F JUMPI PUSH2 0x236E PUSH2 0x301A JUMP JUMPDEST JUMPDEST DIV DUP3 ADD SWAP1 SHR SWAP1 POP PUSH1 0x1 DUP2 DUP6 DUP2 PUSH2 0x2388 JUMPI PUSH2 0x2387 PUSH2 0x301A JUMP JUMPDEST JUMPDEST DIV DUP3 ADD SWAP1 SHR SWAP1 POP PUSH1 0x1 DUP2 DUP6 DUP2 PUSH2 0x23A1 JUMPI PUSH2 0x23A0 PUSH2 0x301A JUMP JUMPDEST JUMPDEST DIV DUP3 ADD SWAP1 SHR SWAP1 POP PUSH1 0x1 DUP2 DUP6 DUP2 PUSH2 0x23BA JUMPI PUSH2 0x23B9 PUSH2 0x301A JUMP JUMPDEST JUMPDEST DIV DUP3 ADD SWAP1 SHR SWAP1 POP PUSH2 0x23DC DUP2 DUP6 DUP2 PUSH2 0x23D4 JUMPI PUSH2 0x23D3 PUSH2 0x301A JUMP JUMPDEST JUMPDEST DIV DUP3 GT PUSH2 0x288F JUMP JUMPDEST DUP2 SUB SWAP3 POP POP POP JUMPDEST SWAP2 SWAP1 POP JUMP JUMPDEST PUSH1 0x0 PUSH2 0x23F7 DUP3 DUP5 LT DUP5 DUP5 PUSH2 0x289B JUMP JUMPDEST SWAP1 POP SWAP3 SWAP2 POP POP JUMP JUMPDEST PUSH1 0x0 PUSH20 0xFFFFFFFFFFFFFFFFFFFFFFFFFFFFFFFFFFFFFFFF AND DUP3 PUSH20 0xFFFFFFFFFFFFFFFFFFFFFFFFFFFFFFFFFFFFFFFF AND SUB PUSH2 0x2471 JUMPI PUSH1 0x0 PUSH1 0x40 MLOAD PUSH32 0xEC442F0500000000000000000000000000000000000000000000000000000000 DUP2 MSTORE PUSH1 0x4 ADD PUSH2 0x2468 SWAP2 SWAP1 PUSH2 0x364D JUMP JUMPDEST PUSH1 0x40 MLOAD DUP1 SWAP2 SUB SWAP1 REVERT JUMPDEST PUSH2 0x247D PUSH1 0x0 DUP4 DUP4 PUSH2 0x2658 JUMP JUMPDEST POP POP JUMP JUMPDEST PUSH1 0x0 PUSH20 0xFFFFFFFFFFFFFFFFFFFFFFFFFFFFFFFFFFFFFFFF AND DUP5 PUSH20 0xFFFFFFFFFFFFFFFFFFFFFFFFFFFFFFFFFFFFFFFF AND SUB PUSH2 0x24F3 JUMPI PUSH1 0x0 PUSH1 0x40 MLOAD PUSH32 0xE602DF0500000000000000000000000000000000000000000000000000000000 DUP2 MSTORE PUSH1 0x4 ADD PUSH2 0x24EA SWAP2 SWAP1 PUSH2 0x364D JUMP JUMPDEST PUSH1 0x40 MLOAD DUP1 SWAP2 SUB SWAP1 REVERT JUMPDEST PUSH1 0x0 PUSH20 0xFFFFFFFFFFFFFFFFFFFFFFFFFFFFFFFFFFFFFFFF AND DUP4 PUSH20 0xFFFFFFFFFFFFFFFFFFFFFFFFFFFFFFFFFFFFFFFF AND SUB PUSH2 0x2565 JUMPI PUSH1 0x0 PUSH1 0x40 MLOAD PUSH32 0x94280D6200000000000000000000000000000000000000000000000000000000 DUP2 MSTORE PUSH1 0x4 ADD PUSH2 0x255C SWAP2 SWAP1 PUSH2 0x364D JUMP JUMPDEST PUSH1 0x40 MLOAD DUP1 SWAP2 SUB SWAP1 REVERT JUMPDEST DUP2 PUSH1 0x1 PUSH1 0x0 DUP7 PUSH20 0xFFFFFFFFFFFFFFFFFFFFFFFFFFFFFFFFFFFFFFFF AND PUSH20 0xFFFFFFFFFFFFFFFFFFFFFFFFFFFFFFFFFFFFFFFF AND DUP2 MSTORE PUSH1 0x20 ADD SWAP1 DUP2 MSTORE PUSH1 0x20 ADD PUSH1 0x0 KECCAK256 PUSH1 0x0 DUP6 PUSH20 0xFFFFFFFFFFFFFFFFFFFFFFFFFFFFFFFFFFFFFFFF AND PUSH20 0xFFFFFFFFFFFFFFFFFFFFFFFFFFFFFFFFFFFFFFFF AND DUP2 MSTORE PUSH1 0x20 ADD SWAP1 DUP2 MSTORE PUSH1 0x20 ADD PUSH1 0x0 KECCAK256 DUP2 SWAP1 SSTORE POP DUP1 ISZERO PUSH2 0x2652 JUMPI DUP3 PUSH20 0xFFFFFFFFFFFFFFFFFFFFFFFFFFFFFFFFFFFFFFFF AND DUP5 PUSH20 0xFFFFFFFFFFFFFFFFFFFFFFFFFFFFFFFFFFFFFFFF AND PUSH32 0x8C5BE1E5EBEC7D5BD14F71427D1E84F3DD0314C0F7B2291E5B200AC8C7C3B925 DUP5 PUSH1 0x40 MLOAD PUSH2 0x2649 SWAP2 SWAP1 PUSH2 0x2957 JUMP JUMPDEST PUSH1 0x40 MLOAD DUP1 SWAP2 SUB SWAP1 LOG3 JUMPDEST POP POP POP POP JUMP JUMPDEST PUSH1 0x0 PUSH20 0xFFFFFFFFFFFFFFFFFFFFFFFFFFFFFFFFFFFFFFFF AND DUP4 PUSH20 0xFFFFFFFFFFFFFFFFFFFFFFFFFFFFFFFFFFFFFFFF AND SUB PUSH2 0x26AA JUMPI DUP1 PUSH1 0x2 PUSH1 0x0 DUP3 DUP3 SLOAD PUSH2 0x269E SWAP2 SWAP1 PUSH2 0x2FA4 JUMP JUMPDEST SWAP3 POP POP DUP2 SWAP1 SSTORE POP PUSH2 0x277D JUMP JUMPDEST PUSH1 0x0 DUP1 PUSH1 0x0 DUP6 PUSH20 0xFFFFFFFFFFFFFFFFFFFFFFFFFFFFFFFFFFFFFFFF AND PUSH20 0xFFFFFFFFFFFFFFFFFFFFFFFFFFFFFFFFFFFFFFFF AND DUP2 MSTORE PUSH1 0x20 ADD SWAP1 DUP2 MSTORE PUSH1 0x20 ADD PUSH1 0x0 KECCAK256 SLOAD SWAP1 POP DUP2 DUP2 LT ISZERO PUSH2 0x2736 JUMPI DUP4 DUP2 DUP4 PUSH1 0x40 MLOAD PUSH32 0xE450D38C00000000000000000000000000000000000000000000000000000000 DUP2 MSTORE PUSH1 0x4 ADD PUSH2 0x272D SWAP4 SWAP3 SWAP2 SWAP1 PUSH2 0x3616 JUMP JUMPDEST PUSH1 0x40 MLOAD DUP1 SWAP2 SUB SWAP1 REVERT JUMPDEST DUP2 DUP2 SUB PUSH1 0x0 DUP1 DUP7 PUSH20 0xFFFFFFFFFFFFFFFFFFFFFFFFFFFFFFFFFFFFFFFF AND PUSH20 0xFFFFFFFFFFFFFFFFFFFFFFFFFFFFFFFFFFFFFFFF AND DUP2 MSTORE PUSH1 0x20 ADD SWAP1 DUP2 MSTORE PUSH1 0x20 ADD PUSH1 0x0 KECCAK256 DUP2 SWAP1 SSTORE POP POP JUMPDEST PUSH1 0x0 PUSH20 0xFFFFFFFFFFFFFFFFFFFFFFFFFFFFFFFFFFFFFFFF AND DUP3 PUSH20 0xFFFFFFFFFFFFFFFFFFFFFFFFFFFFFFFFFFFFFFFF AND SUB PUSH2 0x27C6 JUMPI DUP1 PUSH1 0x2 PUSH1 0x0 DUP3 DUP3 SLOAD SUB SWAP3 POP POP DUP2 SWAP1 SSTORE POP PUSH2 0x2813 JUMP JUMPDEST DUP1 PUSH1 0x0 DUP1 DUP5 PUSH20 0xFFFFFFFFFFFFFFFFFFFFFFFFFFFFFFFFFFFFFFFF AND PUSH20 0xFFFFFFFFFFFFFFFFFFFFFFFFFFFFFFFFFFFFFFFF AND DUP2 MSTORE PUSH1 0x20 ADD SWAP1 DUP2 MSTORE PUSH1 0x20 ADD PUSH1 0x0 KECCAK256 PUSH1 0x0 DUP3 DUP3 SLOAD ADD SWAP3 POP POP DUP2 SWAP1 SSTORE POP JUMPDEST DUP2 PUSH20 0xFFFFFFFFFFFFFFFFFFFFFFFFFFFFFFFFFFFFFFFF AND DUP4 PUSH20 0xFFFFFFFFFFFFFFFFFFFFFFFFFFFFFFFFFFFFFFFF AND PUSH32 0xDDF252AD1BE2C89B69C2B068FC378DAA952BA7F163C4A11628F55A4DF523B3EF DUP4 PUSH1 0x40 MLOAD PUSH2 0x2870 SWAP2 SWAP1 PUSH2 0x2957 JUMP JUMPDEST PUSH1 0x40 MLOAD DUP1 SWAP2 SUB SWAP1 LOG3 POP POP POP JUMP JUMPDEST PUSH1 0x0 SWAP2 SWAP1 POP JUMP JUMPDEST PUSH1 0x0 PUSH1 0x1 SWAP1 POP SWAP2 SWAP1 POP JUMP JUMPDEST PUSH1 0x0 DUP2 ISZERO ISZERO SWAP1 POP SWAP2 SWAP1 POP JUMP JUMPDEST PUSH1 0x0 PUSH2 0x28A6 DUP5 PUSH2 0x288F JUMP JUMPDEST DUP3 DUP5 XOR MUL DUP3 XOR SWAP1 POP SWAP4 SWAP3 POP POP POP JUMP JUMPDEST PUSH1 0x0 DUP1 REVERT JUMPDEST PUSH1 0x0 DUP1 REVERT JUMPDEST PUSH1 0x0 DUP2 SWAP1 POP SWAP2 SWAP1 POP JUMP JUMPDEST PUSH2 0x28D2 DUP2 PUSH2 0x28BF JUMP JUMPDEST DUP2 EQ PUSH2 0x28DD JUMPI PUSH1 0x0 DUP1 REVERT JUMPDEST POP JUMP JUMPDEST PUSH1 0x0 DUP2 CALLDATALOAD SWAP1 POP PUSH2 0x28EF DUP2 PUSH2 0x28C9 JUMP JUMPDEST SWAP3 SWAP2 POP POP JUMP JUMPDEST PUSH1 0x0 DUP1 PUSH1 0x0 PUSH1 0x60 DUP5 DUP7 SUB SLT ISZERO PUSH2 0x290E JUMPI PUSH2 0x290D PUSH2 0x28B5 JUMP JUMPDEST JUMPDEST PUSH1 0x0 PUSH2 0x291C DUP7 DUP3 DUP8 ADD PUSH2 0x28E0 JUMP JUMPDEST SWAP4 POP POP PUSH1 0x20 PUSH2 0x292D DUP7 DUP3 DUP8 ADD PUSH2 0x28E0 JUMP JUMPDEST SWAP3 POP POP PUSH1 0x40 PUSH2 0x293E DUP7 DUP3 DUP8 ADD PUSH2 0x28E0 JUMP JUMPDEST SWAP2 POP POP SWAP3 POP SWAP3 POP SWAP3 JUMP JUMPDEST PUSH2 0x2951 DUP2 PUSH2 0x28BF JUMP JUMPDEST DUP3 MSTORE POP POP JUMP JUMPDEST PUSH1 0x0 PUSH1 0x20 DUP3 ADD SWAP1 POP PUSH2 0x296C PUSH1 0x0 DUP4 ADD DUP5 PUSH2 0x2948 JUMP JUMPDEST SWAP3 SWAP2 POP POP JUMP JUMPDEST PUSH1 0x0 DUP2 MLOAD SWAP1 POP SWAP2 SWAP1 POP JUMP JUMPDEST PUSH1 0x0 DUP3 DUP3 MSTORE PUSH1 0x20 DUP3 ADD SWAP1 POP SWAP3 SWAP2 POP POP JUMP JUMPDEST PUSH1 0x0 JUMPDEST DUP4 DUP2 LT ISZERO PUSH2 0x29AC JUMPI DUP1 DUP3 ADD MLOAD DUP2 DUP5 ADD MSTORE PUSH1 0x20 DUP2 ADD SWAP1 POP PUSH2 0x2991 JUMP JUMPDEST PUSH1 0x0 DUP5 DUP5 ADD MSTORE POP POP POP POP JUMP JUMPDEST PUSH1 0x0 PUSH1 0x1F NOT PUSH1 0x1F DUP4 ADD AND SWAP1 POP SWAP2 SWAP1 POP JUMP JUMPDEST PUSH1 0x0 PUSH2 0x29D4 DUP3 PUSH2 0x2972 JUMP JUMPDEST PUSH2 0x29DE DUP2 DUP6 PUSH2 0x297D JUMP JUMPDEST SWAP4 POP PUSH2 0x29EE DUP2 DUP6 PUSH1 0x20 DUP7 ADD PUSH2 0x298E JUMP JUMPDEST PUSH2 0x29F7 DUP2 PUSH2 0x29B8 JUMP JUMPDEST DUP5 ADD SWAP2 POP POP SWAP3 SWAP2 POP POP JUMP JUMPDEST PUSH1 0x0 PUSH1 0x20 DUP3 ADD SWAP1 POP DUP2 DUP2 SUB PUSH1 0x0 DUP4 ADD MSTORE PUSH2 0x2A1C DUP2 DUP5 PUSH2 0x29C9 JUMP JUMPDEST SWAP1 POP SWAP3 SWAP2 POP POP JUMP JUMPDEST PUSH1 0x0 PUSH20 0xFFFFFFFFFFFFFFFFFFFFFFFFFFFFFFFFFFFFFFFF DUP3 AND SWAP1 POP SWAP2 SWAP1 POP JUMP JUMPDEST PUSH1 0x0 PUSH2 0x2A4F DUP3 PUSH2 0x2A24 JUMP JUMPDEST SWAP1 POP SWAP2 SWAP1 POP JUMP JUMPDEST PUSH2 0x2A5F DUP2 PUSH2 0x2A44 JUMP JUMPDEST DUP2 EQ PUSH2 0x2A6A JUMPI PUSH1 0x0 DUP1 REVERT JUMPDEST POP JUMP JUMPDEST PUSH1 0x0 DUP2 CALLDATALOAD SWAP1 POP PUSH2 0x2A7C DUP2 PUSH2 0x2A56 JUMP JUMPDEST SWAP3 SWAP2 POP POP JUMP JUMPDEST PUSH1 0x0 DUP1 PUSH1 0x40 DUP4 DUP6 SUB SLT ISZERO PUSH2 0x2A99 JUMPI PUSH2 0x2A98 PUSH2 0x28B5 JUMP JUMPDEST JUMPDEST PUSH1 0x0 PUSH2 0x2AA7 DUP6 DUP3 DUP7 ADD PUSH2 0x2A6D JUMP JUMPDEST SWAP3 POP POP PUSH1 0x20 PUSH2 0x2AB8 DUP6 DUP3 DUP7 ADD PUSH2 0x28E0 JUMP JUMPDEST SWAP2 POP POP SWAP3 POP SWAP3 SWAP1 POP JUMP JUMPDEST PUSH1 0x0 DUP2 ISZERO ISZERO SWAP1 POP SWAP2 SWAP1 POP JUMP JUMPDEST PUSH2 0x2AD7 DUP2 PUSH2 0x2AC2 JUMP JUMPDEST DUP3 MSTORE POP POP JUMP JUMPDEST PUSH1 0x0 PUSH1 0x20 DUP3 ADD SWAP1 POP PUSH2 0x2AF2 PUSH1 0x0 DUP4 ADD DUP5 PUSH2 0x2ACE JUMP JUMPDEST SWAP3 SWAP2 POP POP JUMP JUMPDEST PUSH1 0x0 DUP1 PUSH1 0x0 PUSH1 0x60 DUP5 DUP7 SUB SLT ISZERO PUSH2 0x2B11 JUMPI PUSH2 0x2B10 PUSH2 0x28B5 JUMP JUMPDEST JUMPDEST PUSH1 0x0 PUSH2 0x2B1F DUP7 DUP3 DUP8 ADD PUSH2 0x2A6D JUMP JUMPDEST SWAP4 POP POP PUSH1 0x20 PUSH2 0x2B30 DUP7 DUP3 DUP8 ADD PUSH2 0x2A6D JUMP JUMPDEST SWAP3 POP POP PUSH1 0x40 PUSH2 0x2B41 DUP7 DUP3 DUP8 ADD PUSH2 0x28E0 JUMP JUMPDEST SWAP2 POP POP SWAP3 POP SWAP3 POP SWAP3 JUMP JUMPDEST PUSH1 0x0 PUSH1 0xFF DUP3 AND SWAP1 POP SWAP2 SWAP1 POP JUMP JUMPDEST PUSH2 0x2B61 DUP2 PUSH2 0x2B4B JUMP JUMPDEST DUP3 MSTORE POP POP JUMP JUMPDEST PUSH1 0x0 PUSH1 0x20 DUP3 ADD SWAP1 POP PUSH2 0x2B7C PUSH1 0x0 DUP4 ADD DUP5 PUSH2 0x2B58 JUMP JUMPDEST SWAP3 SWAP2 POP POP JUMP JUMPDEST PUSH1 0x0 DUP1 REVERT JUMPDEST PUSH1 0x0 DUP1 REVERT JUMPDEST PUSH1 0x0 DUP1 REVERT JUMPDEST PUSH1 0x0 DUP1 DUP4 PUSH1 0x1F DUP5 ADD SLT PUSH2 0x2BA7 JUMPI PUSH2 0x2BA6 PUSH2 0x2B82 JUMP JUMPDEST JUMPDEST DUP3 CALLDATALOAD SWAP1 POP PUSH8 0xFFFFFFFFFFFFFFFF DUP2 GT ISZERO PUSH2 0x2BC4 JUMPI PUSH2 0x2BC3 PUSH2 0x2B87 JUMP JUMPDEST JUMPDEST PUSH1 0x20 DUP4 ADD SWAP2 POP DUP4 PUSH1 0x20 DUP3 MUL DUP4 ADD GT ISZERO PUSH2 0x2BE0 JUMPI PUSH2 0x2BDF PUSH2 0x2B8C JUMP JUMPDEST JUMPDEST SWAP3 POP SWAP3 SWAP1 POP JUMP JUMPDEST PUSH1 0x0 DUP1 PUSH1 0x0 DUP1 PUSH1 0x0 DUP1 PUSH1 0xA0 DUP8 DUP10 SUB SLT ISZERO PUSH2 0x2C04 JUMPI PUSH2 0x2C03 PUSH2 0x28B5 JUMP JUMPDEST JUMPDEST PUSH1 0x0 PUSH2 0x2C12 DUP10 DUP3 DUP11 ADD PUSH2 0x28E0 JUMP JUMPDEST SWAP7 POP POP PUSH1 0x20 PUSH2 0x2C23 DUP10 DUP3 DUP11 ADD PUSH2 0x28E0 JUMP JUMPDEST SWAP6 POP POP PUSH1 0x40 DUP8 ADD CALLDATALOAD PUSH8 0xFFFFFFFFFFFFFFFF DUP2 GT ISZERO PUSH2 0x2C44 JUMPI PUSH2 0x2C43 PUSH2 0x28BA JUMP JUMPDEST JUMPDEST PUSH2 0x2C50 DUP10 DUP3 DUP11 ADD PUSH2 0x2B91 JUMP JUMPDEST SWAP5 POP SWAP5 POP POP PUSH1 0x60 PUSH2 0x2C63 DUP10 DUP3 DUP11 ADD PUSH2 0x2A6D JUMP JUMPDEST SWAP3 POP POP PUSH1 0x80 PUSH2 0x2C74 DUP10 DUP3 DUP11 ADD PUSH2 0x28E0 JUMP JUMPDEST SWAP2 POP POP SWAP3 SWAP6 POP SWAP3 SWAP6 POP SWAP3 SWAP6 JUMP JUMPDEST PUSH1 0x0 PUSH1 0x20 DUP3 DUP5 SUB SLT ISZERO PUSH2 0x2C97 JUMPI PUSH2 0x2C96 PUSH2 0x28B5 JUMP JUMPDEST JUMPDEST PUSH1 0x0 PUSH2 0x2CA5 DUP5 DUP3 DUP6 ADD PUSH2 0x2A6D JUMP JUMPDEST SWAP2 POP POP SWAP3 SWAP2 POP POP JUMP JUMPDEST PUSH1 0x0 DUP1 PUSH1 0x40 DUP4 DUP6 SUB SLT ISZERO PUSH2 0x2CC5 JUMPI PUSH2 0x2CC4 PUSH2 0x28B5 JUMP JUMPDEST JUMPDEST PUSH1 0x0 PUSH2 0x2CD3 DUP6 DUP3 DUP7 ADD PUSH2 0x2A6D JUMP JUMPDEST SWAP3 POP POP PUSH1 0x20 PUSH2 0x2CE4 DUP6 DUP3 DUP7 ADD PUSH2 0x2A6D JUMP JUMPDEST SWAP2 POP POP SWAP3 POP SWAP3 SWAP1 POP JUMP JUMPDEST PUSH1 0x0 DUP2 SWAP1 POP SWAP2 SWAP1 POP JUMP JUMPDEST PUSH2 0x2D01 DUP2 PUSH2 0x2CEE JUMP JUMPDEST DUP2 EQ PUSH2 0x2D0C JUMPI PUSH1 0x0 DUP1 REVERT JUMPDEST POP JUMP JUMPDEST PUSH1 0x0 DUP2 CALLDATALOAD SWAP1 POP PUSH2 0x2D1E DUP2 PUSH2 0x2CF8 JUMP JUMPDEST SWAP3 SWAP2 POP POP JUMP JUMPDEST PUSH1 0x0 PUSH1 0x20 DUP3 DUP5 SUB SLT ISZERO PUSH2 0x2D3A JUMPI PUSH2 0x2D39 PUSH2 0x28B5 JUMP JUMPDEST JUMPDEST PUSH1 0x0 PUSH2 0x2D48 DUP5 DUP3 DUP6 ADD PUSH2 0x2D0F JUMP JUMPDEST SWAP2 POP POP SWAP3 SWAP2 POP POP JUMP JUMPDEST PUSH1 0x0 PUSH1 0x60 DUP3 ADD SWAP1 POP PUSH2 0x2D66 PUSH1 0x0 DUP4 ADD DUP7 PUSH2 0x2948 JUMP JUMPDEST PUSH2 0x2D73 PUSH1 0x20 DUP4 ADD DUP6 PUSH2 0x2948 JUMP JUMPDEST PUSH2 0x2D80 PUSH1 0x40 DUP4 ADD DUP5 PUSH2 0x2948 JUMP JUMPDEST SWAP5 SWAP4 POP POP POP POP JUMP JUMPDEST PUSH1 0x0 DUP1 PUSH1 0x0 DUP1 PUSH1 0x0 DUP1 PUSH1 0x0 PUSH1 0xE0 DUP9 DUP11 SUB SLT ISZERO PUSH2 0x2DA7 JUMPI PUSH2 0x2DA6 PUSH2 0x28B5 JUMP JUMPDEST JUMPDEST PUSH1 0x0 PUSH2 0x2DB5 DUP11 DUP3 DUP12 ADD PUSH2 0x2A6D JUMP JUMPDEST SWAP8 POP POP PUSH1 0x20 PUSH2 0x2DC6 DUP11 DUP3 DUP12 ADD PUSH2 0x2A6D JUMP JUMPDEST SWAP7 POP POP PUSH1 0x40 PUSH2 0x2DD7 DUP11 DUP3 DUP12 ADD PUSH2 0x28E0 JUMP JUMPDEST SWAP6 POP POP PUSH1 0x60 PUSH2 0x2DE8 DUP11 DUP3 DUP12 ADD PUSH2 0x28E0 JUMP JUMPDEST SWAP5 POP POP PUSH1 0x80 PUSH2 0x2DF9 DUP11 DUP3 DUP12 ADD PUSH2 0x28E0 JUMP JUMPDEST SWAP4 POP POP PUSH1 0xA0 PUSH2 0x2E0A DUP11 DUP3 DUP12 ADD PUSH2 0x2A6D JUMP JUMPDEST SWAP3 POP POP PUSH1 0xC0 PUSH2 0x2E1B DUP11 DUP3 DUP12 ADD PUSH2 0x28E0 JUMP JUMPDEST SWAP2 POP POP SWAP3 SWAP6 SWAP9 SWAP2 SWAP5 SWAP8 POP SWAP3 SWAP6 POP JUMP JUMPDEST PUSH1 0x0 PUSH1 0x40 DUP3 ADD SWAP1 POP PUSH2 0x2E3F PUSH1 0x0 DUP4 ADD DUP6 PUSH2 0x2948 JUMP JUMPDEST PUSH2 0x2E4C PUSH1 0x20 DUP4 ADD DUP5 PUSH2 0x2948 JUMP JUMPDEST SWAP4 SWAP3 POP POP POP JUMP JUMPDEST PUSH1 0x0 DUP1 PUSH1 0x0 DUP1 PUSH1 0x0 DUP1 PUSH1 0x0 DUP1 PUSH2 0x100 DUP10 DUP12 SUB SLT ISZERO PUSH2 0x2E74 JUMPI PUSH2 0x2E73 PUSH2 0x28B5 JUMP JUMPDEST JUMPDEST PUSH1 0x0 PUSH2 0x2E82 DUP12 DUP3 DUP13 ADD PUSH2 0x2A6D JUMP JUMPDEST SWAP9 POP POP PUSH1 0x20 PUSH2 0x2E93 DUP12 DUP3 DUP13 ADD PUSH2 0x2A6D JUMP JUMPDEST SWAP8 POP POP PUSH1 0x40 PUSH2 0x2EA4 DUP12 DUP3 DUP13 ADD PUSH2 0x28E0 JUMP JUMPDEST SWAP7 POP POP PUSH1 0x60 PUSH2 0x2EB5 DUP12 DUP3 DUP13 ADD PUSH2 0x28E0 JUMP JUMPDEST SWAP6 POP POP PUSH1 0x80 PUSH2 0x2EC6 DUP12 DUP3 DUP13 ADD PUSH2 0x28E0 JUMP JUMPDEST SWAP5 POP POP PUSH1 0xA0 PUSH2 0x2ED7 DUP12 DUP3 DUP13 ADD PUSH2 0x28E0 JUMP JUMPDEST SWAP4 POP POP PUSH1 0xC0 PUSH2 0x2EE8 DUP12 DUP3 DUP13 ADD PUSH2 0x2A6D JUMP JUMPDEST SWAP3 POP POP PUSH1 0xE0 PUSH2 0x2EF9 DUP12 DUP3 DUP13 ADD PUSH2 0x28E0 JUMP JUMPDEST SWAP2 POP POP SWAP3 SWAP6 SWAP9 POP SWAP3 SWAP6 SWAP9 SWAP1 SWAP4 SWAP7 POP JUMP JUMPDEST PUSH32 0x42616420696E7075747300000000000000000000000000000000000000000000 PUSH1 0x0 DUP3 ADD MSTORE POP JUMP JUMPDEST PUSH1 0x0 PUSH2 0x2F3F PUSH1 0xA DUP4 PUSH2 0x297D JUMP JUMPDEST SWAP2 POP PUSH2 0x2F4A DUP3 PUSH2 0x2F09 JUMP JUMPDEST PUSH1 0x20 DUP3 ADD SWAP1 POP SWAP2 SWAP1 POP JUMP JUMPDEST PUSH1 0x0 PUSH1 0x20 DUP3 ADD SWAP1 POP DUP2 DUP2 SUB PUSH1 0x0 DUP4 ADD MSTORE PUSH2 0x2F6E DUP2 PUSH2 0x2F32 JUMP JUMPDEST SWAP1 POP SWAP2 SWAP1 POP JUMP JUMPDEST PUSH32 0x4E487B7100000000000000000000000000000000000000000000000000000000 PUSH1 0x0 MSTORE PUSH1 0x11 PUSH1 0x4 MSTORE PUSH1 0x24 PUSH1 0x0 REVERT JUMPDEST PUSH1 0x0 PUSH2 0x2FAF DUP3 PUSH2 0x28BF JUMP JUMPDEST SWAP2 POP PUSH2 0x2FBA DUP4 PUSH2 0x28BF JUMP JUMPDEST SWAP3 POP DUP3 DUP3 ADD SWAP1 POP DUP1 DUP3 GT ISZERO PUSH2 0x2FD2 JUMPI PUSH2 0x2FD1 PUSH2 0x2F75 JUMP JUMPDEST JUMPDEST SWAP3 SWAP2 POP POP JUMP JUMPDEST PUSH1 0x0 PUSH2 0x2FE3 DUP3 PUSH2 0x28BF JUMP JUMPDEST SWAP2 POP PUSH2 0x2FEE DUP4 PUSH2 0x28BF JUMP JUMPDEST SWAP3 POP DUP3 DUP3 MUL PUSH2 0x2FFC DUP2 PUSH2 0x28BF JUMP JUMPDEST SWAP2 POP DUP3 DUP3 DIV DUP5 EQ DUP4 ISZERO OR PUSH2 0x3013 JUMPI PUSH2 0x3012 PUSH2 0x2F75 JUMP JUMPDEST JUMPDEST POP SWAP3 SWAP2 POP POP JUMP JUMPDEST PUSH32 0x4E487B7100000000000000000000000000000000000000000000000000000000 PUSH1 0x0 MSTORE PUSH1 0x12 PUSH1 0x4 MSTORE PUSH1 0x24 PUSH1 0x0 REVERT JUMPDEST PUSH1 0x0 PUSH2 0x3054 DUP3 PUSH2 0x28BF JUMP JUMPDEST SWAP2 POP PUSH2 0x305F DUP4 PUSH2 0x28BF JUMP JUMPDEST SWAP3 POP DUP3 PUSH2 0x306F JUMPI PUSH2 0x306E PUSH2 0x301A JUMP JUMPDEST JUMPDEST DUP3 DUP3 DIV SWAP1 POP SWAP3 SWAP2 POP POP JUMP JUMPDEST PUSH32 0x4E487B7100000000000000000000000000000000000000000000000000000000 PUSH1 0x0 MSTORE PUSH1 0x22 PUSH1 0x4 MSTORE PUSH1 0x24 PUSH1 0x0 REVERT JUMPDEST PUSH1 0x0 PUSH1 0x2 DUP3 DIV SWAP1 POP PUSH1 0x1 DUP3 AND DUP1 PUSH2 0x30C1 JUMPI PUSH1 0x7F DUP3 AND SWAP2 POP JUMPDEST PUSH1 0x20 DUP3 LT DUP2 SUB PUSH2 0x30D4 JUMPI PUSH2 0x30D3 PUSH2 0x307A JUMP JUMPDEST JUMPDEST POP SWAP2 SWAP1 POP JUMP JUMPDEST PUSH32 0x4578706972656400000000000000000000000000000000000000000000000000 PUSH1 0x0 DUP3 ADD MSTORE POP JUMP JUMPDEST PUSH1 0x0 PUSH2 0x3110 PUSH1 0x7 DUP4 PUSH2 0x297D JUMP JUMPDEST SWAP2 POP PUSH2 0x311B DUP3 PUSH2 0x30DA JUMP JUMPDEST PUSH1 0x20 DUP3 ADD SWAP1 POP SWAP2 SWAP1 POP JUMP JUMPDEST PUSH1 0x0 PUSH1 0x20 DUP3 ADD SWAP1 POP DUP2 DUP2 SUB PUSH1 0x0 DUP4 ADD MSTORE PUSH2 0x313F DUP2 PUSH2 0x3103 JUMP JUMPDEST SWAP1 POP SWAP2 SWAP1 POP JUMP JUMPDEST PUSH32 0x42616420706172616D7300000000000000000000000000000000000000000000 PUSH1 0x0 DUP3 ADD MSTORE POP JUMP JUMPDEST PUSH1 0x0 PUSH2 0x317C PUSH1 0xA DUP4 PUSH2 0x297D JUMP JUMPDEST SWAP2 POP PUSH2 0x3187 DUP3 PUSH2 0x3146 JUMP JUMPDEST PUSH1 0x20 DUP3 ADD SWAP1 POP SWAP2 SWAP1 POP JUMP JUMPDEST PUSH1 0x0 PUSH1 0x20 DUP3 ADD SWAP1 POP DUP2 DUP2 SUB PUSH1 0x0 DUP4 ADD MSTORE PUSH2 0x31AB DUP2 PUSH2 0x316F JUMP JUMPDEST SWAP1 POP SWAP2 SWAP1 POP JUMP JUMPDEST PUSH32 0x4E487B7100000000000000000000000000000000000000000000000000000000 PUSH1 0x0 MSTORE PUSH1 0x32 PUSH1 0x4 MSTORE PUSH1 0x24 PUSH1 0x0 REVERT JUMPDEST PUSH32 0x506F6F6C20656D70747900000000000000000000000000000000000000000000 PUSH1 0x0 DUP3 ADD MSTORE POP JUMP JUMPDEST PUSH1 0x0 PUSH2 0x3217 PUSH1 0xA DUP4 PUSH2 0x297D JUMP JUMPDEST SWAP2 POP PUSH2 0x3222 DUP3 PUSH2 0x31E1 JUMP JUMPDEST PUSH1 0x20 DUP3 ADD SWAP1 POP SWAP2 SWAP1 POP JUMP JUMPDEST PUSH1 0x0 PUSH1 0x20 DUP3 ADD SWAP1 POP DUP2 DUP2 SUB PUSH1 0x0 DUP4 ADD MSTORE PUSH2 0x3246 DUP2 PUSH2 0x320A JUMP JUMPDEST SWAP1 POP SWAP2 SWAP1 POP JUMP JUMPDEST PUSH32 0x536C697070616765000000000000000000000000000000000000000000000000 PUSH1 0x0 DUP3 ADD MSTORE POP JUMP JUMPDEST PUSH1 0x0 PUSH2 0x3283 PUSH1 0x8 DUP4 PUSH2 0x297D JUMP JUMPDEST SWAP2 POP PUSH2 0x328E DUP3 PUSH2 0x324D JUMP JUMPDEST PUSH1 0x20 DUP3 ADD SWAP1 POP SWAP2 SWAP1 POP JUMP JUMPDEST PUSH1 0x0 PUSH1 0x20 DUP3 ADD SWAP1 POP DUP2 DUP2 SUB PUSH1 0x0 DUP4 ADD MSTORE PUSH2 0x32B2 DUP2 PUSH2 0x3276 JUMP JUMPDEST SWAP1 POP SWAP2 SWAP1 POP JUMP JUMPDEST PUSH2 0x32C2 DUP2 PUSH2 0x2A44 JUMP JUMPDEST DUP3 MSTORE POP POP JUMP JUMPDEST PUSH1 0x0 PUSH1 0x60 DUP3 ADD SWAP1 POP PUSH2 0x32DD PUSH1 0x0 DUP4 ADD DUP7 PUSH2 0x32B9 JUMP JUMPDEST PUSH2 0x32EA PUSH1 0x20 DUP4 ADD DUP6 PUSH2 0x32B9 JUMP JUMPDEST PUSH2 0x32F7 PUSH1 0x40 DUP4 ADD DUP5 PUSH2 0x2948 JUMP JUMPDEST SWAP5 SWAP4 POP POP POP POP JUMP JUMPDEST PUSH2 0x3308 DUP2 PUSH2 0x2AC2 JUMP JUMPDEST DUP2 EQ PUSH2 0x3313 JUMPI PUSH1 0x0 DUP1 REVERT JUMPDEST POP JUMP JUMPDEST PUSH1 0x0 DUP2 MLOAD SWAP1 POP PUSH2 0x3325 DUP2 PUSH2 0x32FF JUMP JUMPDEST SWAP3 SWAP2 POP POP JUMP JUMPDEST PUSH1 0x0 PUSH1 0x20 DUP3 DUP5 SUB SLT ISZERO PUSH2 0x3341 JUMPI PUSH2 0x3340 PUSH2 0x28B5 JUMP JUMPDEST JUMPDEST PUSH1 0x0 PUSH2 0x334F DUP5 DUP3 DUP6 ADD PUSH2 0x3316 JUMP JUMPDEST SWAP2 POP POP SWAP3 SWAP2 POP POP JUMP JUMPDEST PUSH1 0x0 PUSH1 0x40 DUP3 ADD SWAP1 POP PUSH2 0x336D PUSH1 0x0 DUP4 ADD DUP6 PUSH2 0x32B9 JUMP JUMPDEST PUSH2 0x337A PUSH1 0x20 DUP4 ADD DUP5 PUSH2 0x2948 JUMP JUMPDEST SWAP4 SWAP3 POP POP POP JUMP JUMPDEST PUSH1 0x0 PUSH2 0x338C DUP3 PUSH2 0x28BF JUMP JUMPDEST SWAP2 POP PUSH2 0x3397 DUP4 PUSH2 0x28BF JUMP JUMPDEST SWAP3 POP DUP3 DUP3 SUB SWAP1 POP DUP2 DUP2 GT ISZERO PUSH2 0x33AF JUMPI PUSH2 0x33AE PUSH2 0x2F75 JUMP JUMPDEST JUMPDEST SWAP3 SWAP2 POP POP JUMP JUMPDEST PUSH1 0x0 PUSH1 0x80 DUP3 ADD SWAP1 POP PUSH2 0x33CA PUSH1 0x0 DUP4 ADD DUP8 PUSH2 0x32B9 JUMP JUMPDEST PUSH2 0x33D7 PUSH1 0x20 DUP4 ADD DUP7 PUSH2 0x32B9 JUMP JUMPDEST PUSH2 0x33E4 PUSH1 0x40 DUP4 ADD DUP6 PUSH2 0x2948 JUMP JUMPDEST PUSH2 0x33F1 PUSH1 0x60 DUP4 ADD DUP5 PUSH2 0x2948 JUMP JUMPDEST SWAP6 SWAP5 POP POP POP POP POP JUMP JUMPDEST PUSH32 0x4E6F207265736572766573000000000000000000000000000000000000000000 PUSH1 0x0 DUP3 ADD MSTORE POP JUMP JUMPDEST PUSH1 0x0 PUSH2 0x3430 PUSH1 0xB DUP4 PUSH2 0x297D JUMP JUMPDEST SWAP2 POP PUSH2 0x343B DUP3 PUSH2 0x33FA JUMP JUMPDEST PUSH1 0x20 DUP3 ADD SWAP1 POP SWAP2 SWAP1 POP JUMP JUMPDEST PUSH1 0x0 PUSH1 0x20 DUP3 ADD SWAP1 POP DUP2 DUP2 SUB PUSH1 0x0 DUP4 ADD MSTORE PUSH2 0x345F DUP2 PUSH2 0x3423 JUMP JUMPDEST SWAP1 POP SWAP2 SWAP1 POP JUMP JUMPDEST PUSH32 0x4C50206C6F770000000000000000000000000000000000000000000000000000 PUSH1 0x0 DUP3 ADD MSTORE POP JUMP JUMPDEST PUSH1 0x0 PUSH2 0x349C PUSH1 0x6 DUP4 PUSH2 0x297D JUMP JUMPDEST SWAP2 POP PUSH2 0x34A7 DUP3 PUSH2 0x3466 JUMP JUMPDEST PUSH1 0x20 DUP3 ADD SWAP1 POP SWAP2 SWAP1 POP JUMP JUMPDEST PUSH1 0x0 PUSH1 0x20 DUP3 ADD SWAP1 POP DUP2 DUP2 SUB PUSH1 0x0 DUP4 ADD MSTORE PUSH2 0x34CB DUP2 PUSH2 0x348F JUMP JUMPDEST SWAP1 POP SWAP2 SWAP1 POP JUMP JUMPDEST PUSH32 0x536C697070616765204100000000000000000000000000000000000000000000 PUSH1 0x0 DUP3 ADD MSTORE POP JUMP JUMPDEST PUSH1 0x0 PUSH2 0x3508 PUSH1 0xA DUP4 PUSH2 0x297D JUMP JUMPDEST SWAP2 POP PUSH2 0x3513 DUP3 PUSH2 0x34D2 JUMP JUMPDEST PUSH1 0x20 DUP3 ADD SWAP1 POP SWAP2 SWAP1 POP JUMP JUMPDEST PUSH1 0x0 PUSH1 0x20 DUP3 ADD SWAP1 POP DUP2 DUP2 SUB PUSH1 0x0 DUP4 ADD MSTORE PUSH2 0x3537 DUP2 PUSH2 0x34FB JUMP JUMPDEST SWAP1 POP SWAP2 SWAP1 POP JUMP JUMPDEST PUSH32 0x536C697070616765204200000000000000000000000000000000000000000000 PUSH1 0x0 DUP3 ADD MSTORE POP JUMP JUMPDEST PUSH1 0x0 PUSH2 0x3574 PUSH1 0xA DUP4 PUSH2 0x297D JUMP JUMPDEST SWAP2 POP PUSH2 0x357F DUP3 PUSH2 0x353E JUMP JUMPDEST PUSH1 0x20 DUP3 ADD SWAP1 POP SWAP2 SWAP1 POP JUMP JUMPDEST PUSH1 0x0 PUSH1 0x20 DUP3 ADD SWAP1 POP DUP2 DUP2 SUB PUSH1 0x0 DUP4 ADD MSTORE PUSH2 0x35A3 DUP2 PUSH2 0x3567 JUMP JUMPDEST SWAP1 POP SWAP2 SWAP1 POP JUMP JUMPDEST PUSH32 0x4C49513D30000000000000000000000000000000000000000000000000000000 PUSH1 0x0 DUP3 ADD MSTORE POP JUMP JUMPDEST PUSH1 0x0 PUSH2 0x35E0 PUSH1 0x5 DUP4 PUSH2 0x297D JUMP JUMPDEST SWAP2 POP PUSH2 0x35EB DUP3 PUSH2 0x35AA JUMP JUMPDEST PUSH1 0x20 DUP3 ADD SWAP1 POP SWAP2 SWAP1 POP JUMP JUMPDEST PUSH1 0x0 PUSH1 0x20 DUP3 ADD SWAP1 POP DUP2 DUP2 SUB PUSH1 0x0 DUP4 ADD MSTORE PUSH2 0x360F DUP2 PUSH2 0x35D3 JUMP JUMPDEST SWAP1 POP SWAP2 SWAP1 POP JUMP JUMPDEST PUSH1 0x0 PUSH1 0x60 DUP3 ADD SWAP1 POP PUSH2 0x362B PUSH1 0x0 DUP4 ADD DUP7 PUSH2 0x32B9 JUMP JUMPDEST PUSH2 0x3638 PUSH1 0x20 DUP4 ADD DUP6 PUSH2 0x2948 JUMP JUMPDEST PUSH2 0x3645 PUSH1 0x40 DUP4 ADD DUP5 PUSH2 0x2948 JUMP JUMPDEST SWAP5 SWAP4 POP POP POP POP JUMP JUMPDEST PUSH1 0x0 PUSH1 0x20 DUP3 ADD SWAP1 POP PUSH2 0x3662 PUSH1 0x0 DUP4 ADD DUP5 PUSH2 0x32B9 JUMP JUMPDEST SWAP3 SWAP2 POP POP JUMP JUMPDEST PUSH1 0x0 DUP2 PUSH1 0x60 SHL SWAP1 POP SWAP2 SWAP1 POP JUMP JUMPDEST PUSH1 0x0 PUSH2 0x3680 DUP3 PUSH2 0x3668 JUMP JUMPDEST SWAP1 POP SWAP2 SWAP1 POP JUMP JUMPDEST PUSH1 0x0 PUSH2 0x3692 DUP3 PUSH2 0x3675 JUMP JUMPDEST SWAP1 POP SWAP2 SWAP1 POP JUMP JUMPDEST PUSH2 0x36AA PUSH2 0x36A5 DUP3 PUSH2 0x2A44 JUMP JUMPDEST PUSH2 0x3687 JUMP JUMPDEST DUP3 MSTORE POP POP JUMP JUMPDEST PUSH1 0x0 PUSH2 0x36BC DUP3 DUP6 PUSH2 0x3699 JUMP JUMPDEST PUSH1 0x14 DUP3 ADD SWAP2 POP PUSH2 0x36CC DUP3 DUP5 PUSH2 0x3699 JUMP JUMPDEST PUSH1 0x14 DUP3 ADD SWAP2 POP DUP2 SWAP1 POP SWAP4 SWAP3 POP POP POP JUMP INVALID LOG2 PUSH5 0x6970667358 0x22 SLT KECCAK256 PC 0xE9 0xCC 0x22 MULMOD DATALOADN 0xB418 0xB2 PUSH16 0xEA64C698C6EA00D2E41F36E646BB64AF 0x1F PUSH4 0xD942028 PUSH5 0x736F6C6343 STOP ADDMOD 0x1E STOP CALLER "},"methodIdentifiers":{"addLiquidity(address,address,uint256,uint256,uint256,uint256,address,uint256)":"e8e33700","allowance(address,address)":"dd62ed3e","approve(address,uint256)":"095ea7b3","balanceOf(address)":"70a08231","decimals()":"313ce567","getAmountOut(uint256,uint256,uint256)":"054d50d4","getPrice(address,address)":"ac41865a","name()":"06fdde03","pools(bytes32)":"b5217bb4","removeLiquidity(address,address,uint256,uint256,uint256,address,uint256)":"baa2abde","swapExactTokensForTokens(uint256,uint256,address[],address,uint256)":"38ed1739","symbol()":"95d89b41","totalSupply()":"18160ddd","transfer(address,uint256)":"a9059cbb","transferFrom(address,address,uint256)":"23b872dd"}}}}}