{
  "_format": "hh-sol-artifact-1",
  "contractName": "SimpleSwap",
  "sourceName": "contracts/SimpleSwap.sol",
  "abi": [
    {
      "inputs": [],
      "stateMutability": "nonpayable",
      "type": "constructor"
    },
    {
      "inputs": [
        {
          "internalType": "address",
          "name": "spender",
          "type": "address"
        },
        {
          "internalType": "uint256",
          "name": "allowance",
          "type": "uint256"
        },
        {
          "internalType": "uint256",
          "name": "needed",
          "type": "uint256"
        }
      ],
      "name": "ERC20InsufficientAllowance",
      "type": "error"
    },
    {
      "inputs": [
        {
          "internalType": "address",
          "name": "sender",
          "type": "address"
        },
        {
          "internalType": "uint256",
          "name": "balance",
          "type": "uint256"
        },
        {
          "internalType": "uint256",
          "name": "needed",
          "type": "uint256"
        }
      ],
      "name": "ERC20InsufficientBalance",
      "type": "error"
    },
    {
      "inputs": [
        {
          "internalType": "address",
          "name": "approver",
          "type": "address"
        }
      ],
      "name": "ERC20InvalidApprover",
      "type": "error"
    },
    {
      "inputs": [
        {
          "internalType": "address",
          "name": "receiver",
          "type": "address"
        }
      ],
      "name": "ERC20InvalidReceiver",
      "type": "error"
    },
    {
      "inputs": [
        {
          "internalType": "address",
          "name": "sender",
          "type": "address"
        }
      ],
      "name": "ERC20InvalidSender",
      "type": "error"
    },
    {
      "inputs": [
        {
          "internalType": "address",
          "name": "spender",
          "type": "address"
        }
      ],
      "name": "ERC20InvalidSpender",
      "type": "error"
    },
    {
      "anonymous": false,
      "inputs": [
        {
          "indexed": true,
          "internalType": "address",
          "name": "owner",
          "type": "address"
        },
        {
          "indexed": true,
          "internalType": "address",
          "name": "spender",
          "type": "address"
        },
        {
          "indexed": false,
          "internalType": "uint256",
          "name": "value",
          "type": "uint256"
        }
      ],
      "name": "Approval",
      "type": "event"
    },
    {
      "anonymous": false,
      "inputs": [
        {
          "indexed": true,
          "internalType": "address",
          "name": "sender",
          "type": "address"
        },
        {
          "indexed": true,
          "internalType": "address",
          "name": "tokenA",
          "type": "address"
        },
        {
          "indexed": true,
          "internalType": "address",
          "name": "tokenB",
          "type": "address"
        },
        {
          "indexed": false,
          "internalType": "uint256",
          "name": "amountASent",
          "type": "uint256"
        },
        {
          "indexed": false,
          "internalType": "uint256",
          "name": "amountBSent",
          "type": "uint256"
        },
        {
          "indexed": false,
          "internalType": "uint256",
          "name": "liquidity",
          "type": "uint256"
        }
      ],
      "name": "LiquidityAdded",
      "type": "event"
    },
    {
      "anonymous": false,
      "inputs": [
        {
          "indexed": true,
          "internalType": "address",
          "name": "recipient",
          "type": "address"
        },
        {
          "indexed": true,
          "internalType": "address",
          "name": "tokenA",
          "type": "address"
        },
        {
          "indexed": true,
          "internalType": "address",
          "name": "tokenB",
          "type": "address"
        },
        {
          "indexed": false,
          "internalType": "uint256",
          "name": "amountASent",
          "type": "uint256"
        },
        {
          "indexed": false,
          "internalType": "uint256",
          "name": "amountBSent",
          "type": "uint256"
        },
        {
          "indexed": false,
          "internalType": "uint256",
          "name": "liquidity",
          "type": "uint256"
        }
      ],
      "name": "LiquidityRemoved",
      "type": "event"
    },
    {
      "anonymous": false,
      "inputs": [
        {
          "indexed": true,
          "internalType": "address",
          "name": "sender",
          "type": "address"
        },
        {
          "indexed": true,
          "internalType": "address",
          "name": "recipient",
          "type": "address"
        },
        {
          "indexed": false,
          "internalType": "address",
          "name": "tokenIn",
          "type": "address"
        },
        {
          "indexed": false,
          "internalType": "address",
          "name": "tokenOut",
          "type": "address"
        },
        {
          "indexed": false,
          "internalType": "uint256",
          "name": "amountIn",
          "type": "uint256"
        },
        {
          "indexed": false,
          "internalType": "uint256",
          "name": "amountOut",
          "type": "uint256"
        }
      ],
      "name": "Swap",
      "type": "event"
    },
    {
      "anonymous": false,
      "inputs": [
        {
          "indexed": true,
          "internalType": "address",
          "name": "from",
          "type": "address"
        },
        {
          "indexed": true,
          "internalType": "address",
          "name": "to",
          "type": "address"
        },
        {
          "indexed": false,
          "internalType": "uint256",
          "name": "value",
          "type": "uint256"
        }
      ],
      "name": "Transfer",
      "type": "event"
    },
    {
      "inputs": [
        {
          "internalType": "address",
          "name": "tokenA",
          "type": "address"
        },
        {
          "internalType": "address",
          "name": "tokenB",
          "type": "address"
        },
        {
          "internalType": "uint256",
          "name": "amountADesired",
          "type": "uint256"
        },
        {
          "internalType": "uint256",
          "name": "amountBDesired",
          "type": "uint256"
        },
        {
          "internalType": "uint256",
          "name": "amountAMin",
          "type": "uint256"
        },
        {
          "internalType": "uint256",
          "name": "amountBMin",
          "type": "uint256"
        },
        {
          "internalType": "address",
          "name": "to",
          "type": "address"
        },
        {
          "internalType": "uint256",
          "name": "deadline",
          "type": "uint256"
        }
      ],
      "name": "addLiquidity",
      "outputs": [
        {
          "internalType": "uint256",
          "name": "amountASent",
          "type": "uint256"
        },
        {
          "internalType": "uint256",
          "name": "amountBSent",
          "type": "uint256"
        },
        {
          "internalType": "uint256",
          "name": "liquidity",
          "type": "uint256"
        }
      ],
      "stateMutability": "nonpayable",
      "type": "function"
    },
    {
      "inputs": [
        {
          "internalType": "address",
          "name": "owner",
          "type": "address"
        },
        {
          "internalType": "address",
          "name": "spender",
          "type": "address"
        }
      ],
      "name": "allowance",
      "outputs": [
        {
          "internalType": "uint256",
          "name": "",
          "type": "uint256"
        }
      ],
      "stateMutability": "view",
      "type": "function"
    },
    {
      "inputs": [
        {
          "internalType": "address",
          "name": "spender",
          "type": "address"
        },
        {
          "internalType": "uint256",
          "name": "value",
          "type": "uint256"
        }
      ],
      "name": "approve",
      "outputs": [
        {
          "internalType": "bool",
          "name": "",
          "type": "bool"
        }
      ],
      "stateMutability": "nonpayable",
      "type": "function"
    },
    {
      "inputs": [
        {
          "internalType": "address",
          "name": "account",
          "type": "address"
        }
      ],
      "name": "balanceOf",
      "outputs": [
        {
          "internalType": "uint256",
          "name": "",
          "type": "uint256"
        }
      ],
      "stateMutability": "view",
      "type": "function"
    },
    {
      "inputs": [],
      "name": "decimals",
      "outputs": [
        {
          "internalType": "uint8",
          "name": "",
          "type": "uint8"
        }
      ],
      "stateMutability": "view",
      "type": "function"
    },
    {
      "inputs": [
        {
          "internalType": "uint256",
          "name": "amountIn",
          "type": "uint256"
        },
        {
          "internalType": "uint256",
          "name": "reserveIn",
          "type": "uint256"
        },
        {
          "internalType": "uint256",
          "name": "reserveOut",
          "type": "uint256"
        }
      ],
      "name": "getAmountOut",
      "outputs": [
        {
          "internalType": "uint256",
          "name": "amountOut",
          "type": "uint256"
        }
      ],
      "stateMutability": "pure",
      "type": "function"
    },
    {
      "inputs": [
        {
          "internalType": "address",
          "name": "tokenA",
          "type": "address"
        },
        {
          "internalType": "address",
          "name": "tokenB",
          "type": "address"
        }
      ],
      "name": "getPrice",
      "outputs": [
        {
          "internalType": "uint256",
          "name": "price",
          "type": "uint256"
        }
      ],
      "stateMutability": "view",
      "type": "function"
    },
    {
      "inputs": [],
      "name": "name",
      "outputs": [
        {
          "internalType": "string",
          "name": "",
          "type": "string"
        }
      ],
      "stateMutability": "view",
      "type": "function"
    },
    {
      "inputs": [
        {
          "internalType": "bytes32",
          "name": "",
          "type": "bytes32"
        }
      ],
      "name": "pools",
      "outputs": [
        {
          "internalType": "uint256",
          "name": "reserveA",
          "type": "uint256"
        },
        {
          "internalType": "uint256",
          "name": "reserveB",
          "type": "uint256"
        },
        {
          "internalType": "uint256",
          "name": "totalLiquidity",
          "type": "uint256"
        }
      ],
      "stateMutability": "view",
      "type": "function"
    },
    {
      "inputs": [
        {
          "internalType": "address",
          "name": "tokenA",
          "type": "address"
        },
        {
          "internalType": "address",
          "name": "tokenB",
          "type": "address"
        },
        {
          "internalType": "uint256",
          "name": "liquidity",
          "type": "uint256"
        },
        {
          "internalType": "uint256",
          "name": "amountAMin",
          "type": "uint256"
        },
        {
          "internalType": "uint256",
          "name": "amountBMin",
          "type": "uint256"
        },
        {
          "internalType": "address",
          "name": "to",
          "type": "address"
        },
        {
          "internalType": "uint256",
          "name": "deadline",
          "type": "uint256"
        }
      ],
      "name": "removeLiquidity",
      "outputs": [
        {
          "internalType": "uint256",
          "name": "amountASent",
          "type": "uint256"
        },
        {
          "internalType": "uint256",
          "name": "amountBSent",
          "type": "uint256"
        }
      ],
      "stateMutability": "nonpayable",
      "type": "function"
    },
    {
      "inputs": [
        {
          "internalType": "uint256",
          "name": "amountIn",
          "type": "uint256"
        },
        {
          "internalType": "uint256",
          "name": "amountOutMin",
          "type": "uint256"
        },
        {
          "internalType": "address[]",
          "name": "path",
          "type": "address[]"
        },
        {
          "internalType": "address",
          "name": "to",
          "type": "address"
        },
        {
          "internalType": "uint256",
          "name": "deadline",
          "type": "uint256"
        }
      ],
      "name": "swapExactTokensForTokens",
      "outputs": [],
      "stateMutability": "nonpayable",
      "type": "function"
    },
    {
      "inputs": [],
      "name": "symbol",
      "outputs": [
        {
          "internalType": "string",
          "name": "",
          "type": "string"
        }
      ],
      "stateMutability": "view",
      "type": "function"
    },
    {
      "inputs": [],
      "name": "totalSupply",
      "outputs": [
        {
          "internalType": "uint256",
          "name": "",
          "type": "uint256"
        }
      ],
      "stateMutability": "view",
      "type": "function"
    },
    {
      "inputs": [
        {
          "internalType": "address",
          "name": "to",
          "type": "address"
        },
        {
          "internalType": "uint256",
          "name": "value",
          "type": "uint256"
        }
      ],
      "name": "transfer",
      "outputs": [
        {
          "internalType": "bool",
          "name": "",
          "type": "bool"
        }
      ],
      "stateMutability": "nonpayable",
      "type": "function"
    },
    {
      "inputs": [
        {
          "internalType": "address",
          "name": "from",
          "type": "address"
        },
        {
          "internalType": "address",
          "name": "to",
          "type": "address"
        },
        {
          "internalType": "uint256",
          "name": "value",
          "type": "uint256"
        }
      ],
      "name": "transferFrom",
      "outputs": [
        {
          "internalType": "bool",
          "name": "",
          "type": "bool"
        }
      ],
      "stateMutability": "nonpayable",
      "type": "function"
    }
  ],
  "bytecode": "0x608060405234801561001057600080fd5b506040518060400160405280600f81526020017f4c697175696469747920546f6b656e00000000000000000000000000000000008152506040518060400160405280600281526020017f4c54000000000000000000000000000000000000000000000000000000000000815250816003908161008c9190610311565b50806004908161009c9190610311565b5050506100b967819c17cc51e0f7a460c01b6100be60201b60201c565b6103e3565b50565b600081519050919050565b7f4e487b7100000000000000000000000000000000000000000000000000000000600052604160045260246000fd5b7f4e487b7100000000000000000000000000000000000000000000000000000000600052602260045260246000fd5b6000600282049050600182168061014257607f821691505b602082108103610155576101546100fb565b5b50919050565b60008190508160005260206000209050919050565b60006020601f8301049050919050565b600082821b905092915050565b6000600883026101bd7fffffffffffffffffffffffffffffffffffffffffffffffffffffffffffffffff82610180565b6101c78683610180565b95508019841693508086168417925050509392505050565b6000819050919050565b6000819050919050565b600061020e610209610204846101df565b6101e9565b6101df565b9050919050565b6000819050919050565b610228836101f3565b61023c61023482610215565b84845461018d565b825550505050565b600090565b610251610244565b61025c81848461021f565b505050565b5b8181101561028057610275600082610249565b600181019050610262565b5050565b601f8211156102c5576102968161015b565b61029f84610170565b810160208510156102ae578190505b6102c26102ba85610170565b830182610261565b50505b505050565b600082821c905092915050565b60006102e8600019846008026102ca565b1980831691505092915050565b600061030183836102d7565b9150826002028217905092915050565b61031a826100c1565b67ffffffffffffffff811115610333576103326100cc565b5b61033d825461012a565b610348828285610284565b600060209050601f83116001811461037b5760008415610369578287015190505b61037385826102f5565b8655506103db565b601f1984166103898661015b565b60005b828110156103b15784890151825560018201915060208501945060208101905061038c565b868310156103ce57848901516103ca601f8916826102d7565b8355505b6001600288020188555050505b505050505050565b613712806103f26000396000f3fe608060405234801561001057600080fd5b50600436106100f55760003560e01c806370a0823111610097578063b5217bb411610066578063b5217bb4146102ae578063baa2abde146102e0578063dd62ed3e14610311578063e8e3370014610341576100f5565b806370a082311461020057806395d89b4114610230578063a9059cbb1461024e578063ac41865a1461027e576100f5565b806318160ddd116100d357806318160ddd1461017857806323b872dd14610196578063313ce567146101c657806338ed1739146101e4576100f5565b8063054d50d4146100fa57806306fdde031461012a578063095ea7b314610148575b600080fd5b610114600480360381019061010f91906128f5565b610373565b6040516101219190612957565b60405180910390f35b610132610473565b60405161013f9190612a02565b60405180910390f35b610162600480360381019061015d9190612a82565b610505565b60405161016f9190612add565b60405180910390f35b610180610528565b60405161018d9190612957565b60405180910390f35b6101b060048036038101906101ab9190612af8565b610532565b6040516101bd9190612add565b60405180910390f35b6101ce610561565b6040516101db9190612b67565b60405180910390f35b6101fe60048036038101906101f99190612be7565b61056a565b005b61021a60048036038101906102159190612c81565b610c96565b6040516102279190612957565b60405180910390f35b610238610cde565b6040516102459190612a02565b60405180910390f35b61026860048036038101906102639190612a82565b610d70565b6040516102759190612add565b60405180910390f35b61029860048036038101906102939190612cae565b610d93565b6040516102a59190612957565b60405180910390f35b6102c860048036038101906102c39190612d24565b610f33565b6040516102d793929190612d51565b60405180910390f35b6102fa60048036038101906102f59190612d88565b610f5d565b604051610308929190612e2a565b60405180910390f35b61032b60048036038101906103269190612cae565b6115fe565b6040516103389190612957565b60405180910390f35b61035b60048036038101906103569190612e53565b611685565b60405161036a93929190612d51565b60405180910390f35b600061038967e3ec9ad5ca7e3d1a60c01b611f23565b61039d67a3acc1b2182bf97760c01b611f23565b6103b16779bbc5644f64580760c01b611f23565b6103c567d2fb891265679b6f60c01b611f23565b6000841180156103d55750600083115b80156103e15750600082115b610420576040517f08c379a000000000000000000000000000000000000000000000000000000000815260040161041790612f55565b60405180910390fd5b61043467b53110862efc72bf60c01b611f23565b610448675bfe4aa65f5a101360c01b611f23565b83836104549190612fa4565b82856104609190612fd8565b61046a9190613049565b90509392505050565b606060038054610482906130a9565b80601f01602080910402602001604051908101604052809291908181526020018280546104ae906130a9565b80156104fb5780601f106104d0576101008083540402835291602001916104fb565b820191906000526020600020905b8154815290600101906020018083116104de57829003601f168201915b5050505050905090565b600080610510611f26565b905061051d818585611f2e565b600191505092915050565b6000600254905090565b60008061053d611f26565b905061054a858285611f40565b610555858585611fd5565b60019150509392505050565b60006012905090565b61057e672f25f88c9cd130c160c01b611f23565b610592674c7367aff9b154ab60c01b611f23565b6105a667622b662bba57cfa460c01b611f23565b6105ba674b5c84fd344f40e060c01b611f23565b804211156105fd576040517f08c379a00000000000000000000000000000000000000000000000000000000081526004016105f490613126565b60405180910390fd5b61061167366574e07c680b5c60c01b611f23565b6106256730c7bfaea81d86ba60c01b611f23565b610639674871c6e8b052f47a60c01b611f23565b61064d671a13391634a7a7bf60c01b611f23565b6002848490501480156106605750600086115b61069f576040517f08c379a000000000000000000000000000000000000000000000000000000000815260040161069690613192565b60405180910390fd5b6106b367597dc4491c05cb1760c01b611f23565b6106c767b0169566ad7ba2a960c01b611f23565b6106db67222108cfa501f94860c01b611f23565b6000610737858560008181106106f4576106f36131b2565b5b90506020020160208101906107099190612c81565b8686600181811061071d5761071c6131b2565b5b90506020020160208101906107329190612c81565b6120c9565b905061074d670743a1e1c3c8720c60c01b611f23565b610761670626067452ea4cb260c01b611f23565b600060056000838152602001908152602001600020604051806060016040529081600082015481526020016001820154815260200160028201548152505090506107b567723fa8b530ffae2c60c01b611f23565b6107c96796a9a51c527ac82860c01b611f23565b6107dd6783678fcb0342eae360c01b611f23565b6000816040015111610824576040517f08c379a000000000000000000000000000000000000000000000000000000000815260040161081b9061322d565b60405180910390fd5b61083867abb98a4ae427817960c01b611f23565b61084c67da8e974921554b1260c01b611f23565b61086067093c239dde29848460c01b611f23565b60008160000151905061087d67fb49fa6c8df5ecbe60c01b611f23565b6108916753623f0c41062ae660c01b611f23565b6000826020015190506108ae673c6786f88b13159f60c01b611f23565b6108c267d77e2820a01c753460c01b611f23565b60006108cf8b8484610373565b90506108e567bc5299e3053bc19160c01b611f23565b6108f967849ac851705d445f60c01b611f23565b61090d67a0fe01283f7b32f060c01b611f23565b89811015610950576040517f08c379a000000000000000000000000000000000000000000000000000000000815260040161094790613299565b60405180910390fd5b61096467a57b4c88ddd03cd660c01b611f23565b610978670e7882f4402b3f7060c01b611f23565b61098b66714ba7e4aebc4c60c01b611f23565b8888600081811061099f5761099e6131b2565b5b90506020020160208101906109b49190612c81565b73ffffffffffffffffffffffffffffffffffffffff166323b872dd33308e6040518463ffffffff1660e01b81526004016109f0939291906132c8565b6020604051808303816000875af1158015610a0f573d6000803e3d6000fd5b505050506040513d601f19601f82011682018060405250810190610a33919061332b565b50610a486769e4422bba20f1f860c01b611f23565b610a5c672ac17c18658e8f9c60c01b611f23565b88886001818110610a7057610a6f6131b2565b5b9050602002016020810190610a859190612c81565b73ffffffffffffffffffffffffffffffffffffffff1663a9059cbb88836040518363ffffffff1660e01b8152600401610abf929190613358565b6020604051808303816000875af1158015610ade573d6000803e3d6000fd5b505050506040513d601f19601f82011682018060405250810190610b02919061332b565b50610b176719665cf42d27bb2260c01b611f23565b8a84600001818151610b299190612fa4565b91508181525050610b446775f39ffbf7697a3960c01b611f23565b8084602001818151610b569190613381565b91508181525050610b71678b96c5799cba396260c01b611f23565b8360056000878152602001908152602001600020600082015181600001556020820151816001015560408201518160020155905050610bba67ab6b7b74c414940f60c01b611f23565b610bce67820c502d65024dc060c01b611f23565b8673ffffffffffffffffffffffffffffffffffffffff163373ffffffffffffffffffffffffffffffffffffffff167f20efd6d5195b7b50273f01cd79a27989255356f9f13293edc53ee142accfdb758b8b6000818110610c3157610c306131b2565b5b9050602002016020810190610c469190612c81565b8c8c6001818110610c5a57610c596131b2565b5b9050602002016020810190610c6f9190612c81565b8f86604051610c8194939291906133b5565b60405180910390a35050505050505050505050565b60008060008373ffffffffffffffffffffffffffffffffffffffff1673ffffffffffffffffffffffffffffffffffffffff168152602001908152602001600020549050919050565b606060048054610ced906130a9565b80601f0160208091040260200160405190810160405280929190818152602001828054610d19906130a9565b8015610d665780601f10610d3b57610100808354040283529160200191610d66565b820191906000526020600020905b815481529060010190602001808311610d4957829003601f168201915b5050505050905090565b600080610d7b611f26565b9050610d88818585611fd5565b600191505092915050565b6000610da967dc24c757f5bd9ee960c01b611f23565b610dbd671c228cc05c2477f560c01b611f23565b610dd1672ce961cee5ab972260c01b611f23565b6000610ddd84846120c9565b9050610df36712b4c26b4a1186ce60c01b611f23565b610e076704bfed0d0d96974960c01b611f23565b60006005600083815260200190815260200160002060405180606001604052908160008201548152602001600182015481526020016002820154815250509050610e5b679ae16a65f3cdeb5f60c01b611f23565b610e6f67f94502bc1c6927ff60c01b611f23565b610e8367ef1afd1a2f27ec3060c01b611f23565b60008160000151118015610e9b575060008160200151115b610eda576040517f08c379a0000000000000000000000000000000000000000000000000000000008152600401610ed190613446565b60405180910390fd5b610eee67407220f3d5b6b48f60c01b611f23565b610f0267981b19fa4c161e2660c01b611f23565b8060000151670de0b6b3a76400008260200151610f1f9190612fd8565b610f299190613049565b9250505092915050565b60056020528060005260406000206000915090508060000154908060010154908060020154905083565b600080610f7467c42c20f84b8a335460c01b611f23565b610f8867a9b4818b1b6f70a560c01b611f23565b610f9c675ef29d367fdcc6e460c01b611f23565b610fb06794858844d567cacd60c01b611f23565b82421115610ff3576040517f08c379a0000000000000000000000000000000000000000000000000000000008152600401610fea90613126565b60405180910390fd5b61100767df053e85c1a1676f60c01b611f23565b61101b6725b2dbbd7f89b60e60c01b611f23565b61102f67031f43ebd86854b860c01b611f23565b611043670efcb99965f71b0660c01b611f23565b8661104d33610c96565b101561108e576040517f08c379a0000000000000000000000000000000000000000000000000000000008152600401611085906134b2565b60405180910390fd5b6110a267afd00e6f8a3ba14360c01b611f23565b6110b6678e99b4b6629a893e60c01b611f23565b6110ca6797accc1c6571f20660c01b611f23565b60006110d68a8a6120c9565b90506110ec677616e5c9528432a360c01b611f23565b6111006752dd2f17229a50d860c01b611f23565b600060056000838152602001908152602001600020604051806060016040529081600082015481526020016001820154815260200160028201548152505090506111546762658c2864a4417360c01b611f23565b806040015181600001518a6111699190612fd8565b6111739190613049565b935061118967c11d33635fe01cd260c01b611f23565b806040015181602001518a61119e9190612fd8565b6111a89190613049565b92506111be67ee416e17b6def21c60c01b611f23565b6111d26702be3f44c03bd0f060c01b611f23565b6111e6672e0bfa22658846fd60c01b611f23565b87841015611229576040517f08c379a00000000000000000000000000000000000000000000000000000000081526004016112209061351e565b60405180910390fd5b61123d670373fdb9fdfd58dd60c01b611f23565b611251675cc8b98773b07aa860c01b611f23565b611265678dcac4d3f985241760c01b611f23565b61127967d869ec22d673fa6360c01b611f23565b868310156112bc576040517f08c379a00000000000000000000000000000000000000000000000000000000081526004016112b39061358a565b60405180910390fd5b6112d06706d15b4cb9b89bb860c01b611f23565b6112e467ef74820a368a203f60c01b611f23565b83816000018181516112f69190613381565b91508181525050611311675f47c801132bfed060c01b611f23565b82816020018181516113239190613381565b9150818152505061133e679cdeb1cd5591e80360c01b611f23565b88816040018181516113509190613381565b9150818152505061136b67f42bf9c31345505060c01b611f23565b80600560008481526020019081526020016000206000820151816000015560208201518160010155604082015181600201559050506113b467b338f1695cda537f60c01b611f23565b6113c86762af9c09df626fc260c01b611f23565b6113d2338a6121c9565b6113e66735d5f05abfa7376860c01b611f23565b6113fa67698dc65e49f3450c60c01b611f23565b8a73ffffffffffffffffffffffffffffffffffffffff1663a9059cbb87866040518363ffffffff1660e01b8152600401611435929190613358565b6020604051808303816000875af1158015611454573d6000803e3d6000fd5b505050506040513d601f19601f82011682018060405250810190611478919061332b565b5061148d670e1fb8f338221a1960c01b611f23565b6114a167b5746bcf0ba0880660c01b611f23565b8973ffffffffffffffffffffffffffffffffffffffff1663a9059cbb87856040518363ffffffff1660e01b81526004016114dc929190613358565b6020604051808303816000875af11580156114fb573d6000803e3d6000fd5b505050506040513d601f19601f8201168201806040525081019061151f919061332b565b5061153467e9f2ebe54b0cf59e60c01b611f23565b6115486764fa635e667e75c860c01b611f23565b8973ffffffffffffffffffffffffffffffffffffffff168b73ffffffffffffffffffffffffffffffffffffffff163373ffffffffffffffffffffffffffffffffffffffff167fd765e08eef31c0983ecca03ecd166297ac485ecd5dd69e291c848f0a020333c187878e6040516115c093929190612d51565b60405180910390a46115dc675031f6aab582419460c01b611f23565b6115f067f4a80128f5885d1960c01b611f23565b505097509795505050505050565b6000600160008473ffffffffffffffffffffffffffffffffffffffff1673ffffffffffffffffffffffffffffffffffffffff16815260200190815260200160002060008373ffffffffffffffffffffffffffffffffffffffff1673ffffffffffffffffffffffffffffffffffffffff16815260200190815260200160002054905092915050565b600080600061169e67377558721701a4ed60c01b611f23565b6116b267de8e4a3a3d0cc4dd60c01b611f23565b6116c66793ffa080512e869b60c01b611f23565b6116da674e2502a075798b1760c01b611f23565b8342111561171d576040517f08c379a000000000000000000000000000000000000000000000000000000000815260040161171490613126565b60405180910390fd5b611731673c7343c61ddeb04460c01b611f23565b611745673e29835513605e0d60c01b611f23565b61175967f94902477488402960c01b611f23565b60006117658c8c6120c9565b905061177b6726469ac1821f42d360c01b611f23565b61178f67c1e2c7b31728e85660c01b611f23565b600060056000838152602001908152602001600020604051806060016040529081600082015481526020016001820154815260200160028201548152505090506117e367faa21a5ad6b4b9f660c01b611f23565b6117f7675f43d7e954b5ee1060c01b611f23565b6000816040015103611874576118176710fc20353ba1cfa460c01b611f23565b61182b6715aaa0896aad6a1d60c01b611f23565b8a945061184267908965b0aa4846a360c01b611f23565b899350611859672d9a993229bd338660c01b611f23565b61186d84866118689190612fd8565b61224b565b9250611b5c565b611888679fe1e552c3bf2eca60c01b611f23565b61189c67d027abaf57734ada60c01b611f23565b6118b067bcd468380bdaa36260c01b611f23565b6000816000015182602001518d6118c79190612fd8565b6118d19190613049565b90506118e7674cc022f052e19e7760c01b611f23565b6118fb67282e46df038c99a560c01b611f23565b8a81116119dc5761191667d67c3dd8dd61fd0a60c01b611f23565b61192a67e0655994b4943e4760c01b611f23565b61193e67bfb4c7bb14cf603060c01b611f23565b61195267a9a49de0a67e2afb60c01b611f23565b88811015611995576040517f08c379a000000000000000000000000000000000000000000000000000000000815260040161198c9061358a565b60405180910390fd5b6119a9674be839b2d8b9265560c01b611f23565b6119bd6741c314d78f41bbca60c01b611f23565b8b95506119d4670b0a680f8507e22b60c01b611f23565b809450611afe565b6119f0678ab763d58ed51f9b60c01b611f23565b611a0467e6b775537c4e1ff660c01b611f23565b611a186786855f30379822c260c01b611f23565b6000826020015183600001518d611a2f9190612fd8565b611a399190613049565b9050611a4f6736cd01d70313192e60c01b611f23565b611a63671677d6957eed1a9b60c01b611f23565b611a7767e93aef8fe781262a60c01b611f23565b8a811015611aba576040517f08c379a0000000000000000000000000000000000000000000000000000000008152600401611ab19061351e565b60405180910390fd5b611ace67e34f9e248d1706fd60c01b611f23565b611ae267a99b16120f1f4f2760c01b611f23565b809650611af967a55f190c5d49d8b460c01b611f23565b8b9550505b611b126733623574feaefbcd60c01b611f23565b611b588260000151836040015188611b2a9190612fd8565b611b349190613049565b8360200151846040015188611b499190612fd8565b611b539190613049565b6123e8565b9350505b611b7067245176f70c6a869160c01b611f23565b611b84673ddafc0135e9cd8d60c01b611f23565b611b986768acab8f42ac7cb660c01b611f23565b60008311611bdb576040517f08c379a0000000000000000000000000000000000000000000000000000000008152600401611bd2906135f6565b60405180910390fd5b611bef679bbbaf000a2e96aa60c01b611f23565b611c0367fe4a2939cec78faa60c01b611f23565b611c176707a3458d8223945c60c01b611f23565b8c73ffffffffffffffffffffffffffffffffffffffff166323b872dd3330886040518463ffffffff1660e01b8152600401611c54939291906132c8565b6020604051808303816000875af1158015611c73573d6000803e3d6000fd5b505050506040513d601f19601f82011682018060405250810190611c97919061332b565b50611cac6706d8137f2247a64160c01b611f23565b611cc0670e82cffd40f828f460c01b611f23565b8b73ffffffffffffffffffffffffffffffffffffffff166323b872dd3330876040518463ffffffff1660e01b8152600401611cfd939291906132c8565b6020604051808303816000875af1158015611d1c573d6000803e3d6000fd5b505050506040513d601f19601f82011682018060405250810190611d40919061332b565b50611d5567211ae82634c5436e60c01b611f23565b8481600001818151611d679190612fa4565b91508181525050611d8267737f9e6a6119701860c01b611f23565b8381602001818151611d949190612fa4565b91508181525050611daf676985fedaa454079b60c01b611f23565b8281604001818151611dc19190612fa4565b91508181525050611ddc67dea34fb33d9ab42960c01b611f23565b8060056000848152602001908152602001600020600082015181600001556020820151816001015560408201518160020155905050611e256754aeaa2c0d4b87ab60c01b611f23565b611e3967a44055e914cb015760c01b611f23565b611e4387846123ff565b611e576733e2fdbad375e8f960c01b611f23565b611e6b67ace08479eefe132960c01b611f23565b8b73ffffffffffffffffffffffffffffffffffffffff168d73ffffffffffffffffffffffffffffffffffffffff163373ffffffffffffffffffffffffffffffffffffffff167f43c967b388d3a4ccad3f7ab80167852e322e5a3fde9893f530252281b2ae8b70888888604051611ee393929190612d51565b60405180910390a4611eff67745414d6ce4c89ea60c01b611f23565b611f136751e1dec104a2b12960c01b611f23565b5050985098509895505050505050565b50565b600033905090565b611f3b8383836001612481565b505050565b6000611f4c84846115fe565b90507fffffffffffffffffffffffffffffffffffffffffffffffffffffffffffffffff811015611fcf5781811015611fbf578281836040517ffb8f41b2000000000000000000000000000000000000000000000000000000008152600401611fb693929190613616565b60405180910390fd5b611fce84848484036000612481565b5b50505050565b600073ffffffffffffffffffffffffffffffffffffffff168373ffffffffffffffffffffffffffffffffffffffff16036120475760006040517f96c6fd1e00000000000000000000000000000000000000000000000000000000815260040161203e919061364d565b60405180910390fd5b600073ffffffffffffffffffffffffffffffffffffffff168273ffffffffffffffffffffffffffffffffffffffff16036120b95760006040517fec442f050000000000000000000000000000000000000000000000000000000081526004016120b0919061364d565b60405180910390fd5b6120c4838383612658565b505050565b60006120df6796c6f8c7d91cb2ec60c01b611f23565b6120f36787a256a18726e95760c01b611f23565b612107678fe7859b840ec34c60c01b611f23565b6000808373ffffffffffffffffffffffffffffffffffffffff168573ffffffffffffffffffffffffffffffffffffffff1610806121545750612153674eeb3b4e321c503e60c01b61287d565b5b8015612170575061216f67840468d4100d874860c01b612884565b5b61217b57838561217e565b84845b9150915061219667aca6ab560e275a2960c01b611f23565b81816040516020016121a99291906136b0565b604051602081830303815290604052805190602001209250505092915050565b600073ffffffffffffffffffffffffffffffffffffffff168273ffffffffffffffffffffffffffffffffffffffff160361223b5760006040517f96c6fd1e000000000000000000000000000000000000000000000000000000008152600401612232919061364d565b60405180910390fd5b61224782600083612658565b5050565b60006001821161225d578190506123e3565b6000829050600060019050700100000000000000000000000000000000821061228f57608082901c9150604081901b90505b6801000000000000000082106122ae57604082901c9150602081901b90505b64010000000082106122c957602082901c9150601081901b90505b6201000082106122e257601082901c9150600881901b90505b61010082106122fa57600882901c9150600481901b90505b6010821061231157600482901c9150600281901b90505b6004821061232157600181901b90505b600181600302901c9050600181858161233d5761233c61301a565b5b048201901c905060018185816123565761235561301a565b5b048201901c9050600181858161236f5761236e61301a565b5b048201901c905060018185816123885761238761301a565b5b048201901c905060018185816123a1576123a061301a565b5b048201901c905060018185816123ba576123b961301a565b5b048201901c90506123dc8185816123d4576123d361301a565b5b04821161288f565b8103925050505b919050565b60006123f7828410848461289b565b905092915050565b600073ffffffffffffffffffffffffffffffffffffffff168273ffffffffffffffffffffffffffffffffffffffff16036124715760006040517fec442f05000000000000000000000000000000000000000000000000000000008152600401612468919061364d565b60405180910390fd5b61247d60008383612658565b5050565b600073ffffffffffffffffffffffffffffffffffffffff168473ffffffffffffffffffffffffffffffffffffffff16036124f35760006040517fe602df050000000000000000000000000000000000000000000000000000000081526004016124ea919061364d565b60405180910390fd5b600073ffffffffffffffffffffffffffffffffffffffff168373ffffffffffffffffffffffffffffffffffffffff16036125655760006040517f94280d6200000000000000000000000000000000000000000000000000000000815260040161255c919061364d565b60405180910390fd5b81600160008673ffffffffffffffffffffffffffffffffffffffff1673ffffffffffffffffffffffffffffffffffffffff16815260200190815260200160002060008573ffffffffffffffffffffffffffffffffffffffff1673ffffffffffffffffffffffffffffffffffffffff168152602001908152602001600020819055508015612652578273ffffffffffffffffffffffffffffffffffffffff168473ffffffffffffffffffffffffffffffffffffffff167f8c5be1e5ebec7d5bd14f71427d1e84f3dd0314c0f7b2291e5b200ac8c7c3b925846040516126499190612957565b60405180910390a35b50505050565b600073ffffffffffffffffffffffffffffffffffffffff168373ffffffffffffffffffffffffffffffffffffffff16036126aa57806002600082825461269e9190612fa4565b9250508190555061277d565b60008060008573ffffffffffffffffffffffffffffffffffffffff1673ffffffffffffffffffffffffffffffffffffffff16815260200190815260200160002054905081811015612736578381836040517fe450d38c00000000000000000000000000000000000000000000000000000000815260040161272d93929190613616565b60405180910390fd5b8181036000808673ffffffffffffffffffffffffffffffffffffffff1673ffffffffffffffffffffffffffffffffffffffff16815260200190815260200160002081905550505b600073ffffffffffffffffffffffffffffffffffffffff168273ffffffffffffffffffffffffffffffffffffffff16036127c65780600260008282540392505081905550612813565b806000808473ffffffffffffffffffffffffffffffffffffffff1673ffffffffffffffffffffffffffffffffffffffff168152602001908152602001600020600082825401925050819055505b8173ffffffffffffffffffffffffffffffffffffffff168373ffffffffffffffffffffffffffffffffffffffff167fddf252ad1be2c89b69c2b068fc378daa952ba7f163c4a11628f55a4df523b3ef836040516128709190612957565b60405180910390a3505050565b6000919050565b600060019050919050565b60008115159050919050565b60006128a68461288f565b82841802821890509392505050565b600080fd5b600080fd5b6000819050919050565b6128d2816128bf565b81146128dd57600080fd5b50565b6000813590506128ef816128c9565b92915050565b60008060006060848603121561290e5761290d6128b5565b5b600061291c868287016128e0565b935050602061292d868287016128e0565b925050604061293e868287016128e0565b9150509250925092565b612951816128bf565b82525050565b600060208201905061296c6000830184612948565b92915050565b600081519050919050565b600082825260208201905092915050565b60005b838110156129ac578082015181840152602081019050612991565b60008484015250505050565b6000601f19601f8301169050919050565b60006129d482612972565b6129de818561297d565b93506129ee81856020860161298e565b6129f7816129b8565b840191505092915050565b60006020820190508181036000830152612a1c81846129c9565b905092915050565b600073ffffffffffffffffffffffffffffffffffffffff82169050919050565b6000612a4f82612a24565b9050919050565b612a5f81612a44565b8114612a6a57600080fd5b50565b600081359050612a7c81612a56565b92915050565b60008060408385031215612a9957612a986128b5565b5b6000612aa785828601612a6d565b9250506020612ab8858286016128e0565b9150509250929050565b60008115159050919050565b612ad781612ac2565b82525050565b6000602082019050612af26000830184612ace565b92915050565b600080600060608486031215612b1157612b106128b5565b5b6000612b1f86828701612a6d565b9350506020612b3086828701612a6d565b9250506040612b41868287016128e0565b9150509250925092565b600060ff82169050919050565b612b6181612b4b565b82525050565b6000602082019050612b7c6000830184612b58565b92915050565b600080fd5b600080fd5b600080fd5b60008083601f840112612ba757612ba6612b82565b5b8235905067ffffffffffffffff811115612bc457612bc3612b87565b5b602083019150836020820283011115612be057612bdf612b8c565b5b9250929050565b60008060008060008060a08789031215612c0457612c036128b5565b5b6000612c1289828a016128e0565b9650506020612c2389828a016128e0565b955050604087013567ffffffffffffffff811115612c4457612c436128ba565b5b612c5089828a01612b91565b94509450506060612c6389828a01612a6d565b9250506080612c7489828a016128e0565b9150509295509295509295565b600060208284031215612c9757612c966128b5565b5b6000612ca584828501612a6d565b91505092915050565b60008060408385031215612cc557612cc46128b5565b5b6000612cd385828601612a6d565b9250506020612ce485828601612a6d565b9150509250929050565b6000819050919050565b612d0181612cee565b8114612d0c57600080fd5b50565b600081359050612d1e81612cf8565b92915050565b600060208284031215612d3a57612d396128b5565b5b6000612d4884828501612d0f565b91505092915050565b6000606082019050612d666000830186612948565b612d736020830185612948565b612d806040830184612948565b949350505050565b600080600080600080600060e0888a031215612da757612da66128b5565b5b6000612db58a828b01612a6d565b9750506020612dc68a828b01612a6d565b9650506040612dd78a828b016128e0565b9550506060612de88a828b016128e0565b9450506080612df98a828b016128e0565b93505060a0612e0a8a828b01612a6d565b92505060c0612e1b8a828b016128e0565b91505092959891949750929550565b6000604082019050612e3f6000830185612948565b612e4c6020830184612948565b9392505050565b600080600080600080600080610100898b031215612e7457612e736128b5565b5b6000612e828b828c01612a6d565b9850506020612e938b828c01612a6d565b9750506040612ea48b828c016128e0565b9650506060612eb58b828c016128e0565b9550506080612ec68b828c016128e0565b94505060a0612ed78b828c016128e0565b93505060c0612ee88b828c01612a6d565b92505060e0612ef98b828c016128e0565b9150509295985092959890939650565b7f42616420696e7075747300000000000000000000000000000000000000000000600082015250565b6000612f3f600a8361297d565b9150612f4a82612f09565b602082019050919050565b60006020820190508181036000830152612f6e81612f32565b9050919050565b7f4e487b7100000000000000000000000000000000000000000000000000000000600052601160045260246000fd5b6000612faf826128bf565b9150612fba836128bf565b9250828201905080821115612fd257612fd1612f75565b5b92915050565b6000612fe3826128bf565b9150612fee836128bf565b9250828202612ffc816128bf565b9150828204841483151761301357613012612f75565b5b5092915050565b7f4e487b7100000000000000000000000000000000000000000000000000000000600052601260045260246000fd5b6000613054826128bf565b915061305f836128bf565b92508261306f5761306e61301a565b5b828204905092915050565b7f4e487b7100000000000000000000000000000000000000000000000000000000600052602260045260246000fd5b600060028204905060018216806130c157607f821691505b6020821081036130d4576130d361307a565b5b50919050565b7f4578706972656400000000000000000000000000000000000000000000000000600082015250565b600061311060078361297d565b915061311b826130da565b602082019050919050565b6000602082019050818103600083015261313f81613103565b9050919050565b7f42616420706172616d7300000000000000000000000000000000000000000000600082015250565b600061317c600a8361297d565b915061318782613146565b602082019050919050565b600060208201905081810360008301526131ab8161316f565b9050919050565b7f4e487b7100000000000000000000000000000000000000000000000000000000600052603260045260246000fd5b7f506f6f6c20656d70747900000000000000000000000000000000000000000000600082015250565b6000613217600a8361297d565b9150613222826131e1565b602082019050919050565b600060208201905081810360008301526132468161320a565b9050919050565b7f536c697070616765000000000000000000000000000000000000000000000000600082015250565b600061328360088361297d565b915061328e8261324d565b602082019050919050565b600060208201905081810360008301526132b281613276565b9050919050565b6132c281612a44565b82525050565b60006060820190506132dd60008301866132b9565b6132ea60208301856132b9565b6132f76040830184612948565b949350505050565b61330881612ac2565b811461331357600080fd5b50565b600081519050613325816132ff565b92915050565b600060208284031215613341576133406128b5565b5b600061334f84828501613316565b91505092915050565b600060408201905061336d60008301856132b9565b61337a6020830184612948565b9392505050565b600061338c826128bf565b9150613397836128bf565b92508282039050818111156133af576133ae612f75565b5b92915050565b60006080820190506133ca60008301876132b9565b6133d760208301866132b9565b6133e46040830185612948565b6133f16060830184612948565b95945050505050565b7f4e6f207265736572766573000000000000000000000000000000000000000000600082015250565b6000613430600b8361297d565b915061343b826133fa565b602082019050919050565b6000602082019050818103600083015261345f81613423565b9050919050565b7f4c50206c6f770000000000000000000000000000000000000000000000000000600082015250565b600061349c60068361297d565b91506134a782613466565b602082019050919050565b600060208201905081810360008301526134cb8161348f565b9050919050565b7f536c697070616765204100000000000000000000000000000000000000000000600082015250565b6000613508600a8361297d565b9150613513826134d2565b602082019050919050565b60006020820190508181036000830152613537816134fb565b9050919050565b7f536c697070616765204200000000000000000000000000000000000000000000600082015250565b6000613574600a8361297d565b915061357f8261353e565b602082019050919050565b600060208201905081810360008301526135a381613567565b9050919050565b7f4c49513d30000000000000000000000000000000000000000000000000000000600082015250565b60006135e060058361297d565b91506135eb826135aa565b602082019050919050565b6000602082019050818103600083015261360f816135d3565b9050919050565b600060608201905061362b60008301866132b9565b6136386020830185612948565b6136456040830184612948565b949350505050565b600060208201905061366260008301846132b9565b92915050565b60008160601b9050919050565b600061368082613668565b9050919050565b600061369282613675565b9050919050565b6136aa6136a582612a44565b613687565b82525050565b60006136bc8285613699565b6014820191506136cc8284613699565b601482019150819050939250505056fea264697066735822122058e9cc2209d1b418b26fea64c698c6ea00d2e41f36e646bb64af1f630d94202864736f6c634300081e0033",
  "linkReferences": {},
  "deployedLinkReferences": {}
}