{
  "_format": "hh-sol-artifact-1",
  "contractName": "SimpleSwap",
  "sourceName": "contracts/SimpleSwap.sol",
  "abi": [
    {
      "inputs": [],
      "stateMutability": "nonpayable",
      "type": "constructor"
    },
    {
      "inputs": [
        {
          "internalType": "address",
          "name": "spender",
          "type": "address"
        },
        {
          "internalType": "uint256",
          "name": "allowance",
          "type": "uint256"
        },
        {
          "internalType": "uint256",
          "name": "needed",
          "type": "uint256"
        }
      ],
      "name": "ERC20InsufficientAllowance",
      "type": "error"
    },
    {
      "inputs": [
        {
          "internalType": "address",
          "name": "sender",
          "type": "address"
        },
        {
          "internalType": "uint256",
          "name": "balance",
          "type": "uint256"
        },
        {
          "internalType": "uint256",
          "name": "needed",
          "type": "uint256"
        }
      ],
      "name": "ERC20InsufficientBalance",
      "type": "error"
    },
    {
      "inputs": [
        {
          "internalType": "address",
          "name": "approver",
          "type": "address"
        }
      ],
      "name": "ERC20InvalidApprover",
      "type": "error"
    },
    {
      "inputs": [
        {
          "internalType": "address",
          "name": "receiver",
          "type": "address"
        }
      ],
      "name": "ERC20InvalidReceiver",
      "type": "error"
    },
    {
      "inputs": [
        {
          "internalType": "address",
          "name": "sender",
          "type": "address"
        }
      ],
      "name": "ERC20InvalidSender",
      "type": "error"
    },
    {
      "inputs": [
        {
          "internalType": "address",
          "name": "spender",
          "type": "address"
        }
      ],
      "name": "ERC20InvalidSpender",
      "type": "error"
    },
    {
      "anonymous": false,
      "inputs": [
        {
          "indexed": true,
          "internalType": "address",
          "name": "owner",
          "type": "address"
        },
        {
          "indexed": true,
          "internalType": "address",
          "name": "spender",
          "type": "address"
        },
        {
          "indexed": false,
          "internalType": "uint256",
          "name": "value",
          "type": "uint256"
        }
      ],
      "name": "Approval",
      "type": "event"
    },
    {
      "anonymous": false,
      "inputs": [
        {
          "indexed": true,
          "internalType": "address",
          "name": "from",
          "type": "address"
        },
        {
          "indexed": true,
          "internalType": "address",
          "name": "to",
          "type": "address"
        },
        {
          "indexed": false,
          "internalType": "uint256",
          "name": "value",
          "type": "uint256"
        }
      ],
      "name": "Transfer",
      "type": "event"
    },
    {
      "inputs": [
        {
          "internalType": "address",
          "name": "tokenA",
          "type": "address"
        },
        {
          "internalType": "address",
          "name": "tokenB",
          "type": "address"
        },
        {
          "internalType": "uint256",
          "name": "amountADesired",
          "type": "uint256"
        },
        {
          "internalType": "uint256",
          "name": "amountBDesired",
          "type": "uint256"
        },
        {
          "internalType": "uint256",
          "name": "amountAMin",
          "type": "uint256"
        },
        {
          "internalType": "uint256",
          "name": "amountBMin",
          "type": "uint256"
        },
        {
          "internalType": "address",
          "name": "to",
          "type": "address"
        },
        {
          "internalType": "uint256",
          "name": "deadline",
          "type": "uint256"
        }
      ],
      "name": "addLiquidity",
      "outputs": [
        {
          "internalType": "uint256",
          "name": "amountASent",
          "type": "uint256"
        },
        {
          "internalType": "uint256",
          "name": "amountBSent",
          "type": "uint256"
        },
        {
          "internalType": "uint256",
          "name": "liquidity",
          "type": "uint256"
        }
      ],
      "stateMutability": "nonpayable",
      "type": "function"
    },
    {
      "inputs": [
        {
          "internalType": "address",
          "name": "owner",
          "type": "address"
        },
        {
          "internalType": "address",
          "name": "spender",
          "type": "address"
        }
      ],
      "name": "allowance",
      "outputs": [
        {
          "internalType": "uint256",
          "name": "",
          "type": "uint256"
        }
      ],
      "stateMutability": "view",
      "type": "function"
    },
    {
      "inputs": [
        {
          "internalType": "address",
          "name": "spender",
          "type": "address"
        },
        {
          "internalType": "uint256",
          "name": "value",
          "type": "uint256"
        }
      ],
      "name": "approve",
      "outputs": [
        {
          "internalType": "bool",
          "name": "",
          "type": "bool"
        }
      ],
      "stateMutability": "nonpayable",
      "type": "function"
    },
    {
      "inputs": [
        {
          "internalType": "address",
          "name": "account",
          "type": "address"
        }
      ],
      "name": "balanceOf",
      "outputs": [
        {
          "internalType": "uint256",
          "name": "",
          "type": "uint256"
        }
      ],
      "stateMutability": "view",
      "type": "function"
    },
    {
      "inputs": [],
      "name": "decimals",
      "outputs": [
        {
          "internalType": "uint8",
          "name": "",
          "type": "uint8"
        }
      ],
      "stateMutability": "view",
      "type": "function"
    },
    {
      "inputs": [
        {
          "internalType": "uint256",
          "name": "amountIn",
          "type": "uint256"
        },
        {
          "internalType": "uint256",
          "name": "reserveIn",
          "type": "uint256"
        },
        {
          "internalType": "uint256",
          "name": "reserveOut",
          "type": "uint256"
        }
      ],
      "name": "getAmountOut",
      "outputs": [
        {
          "internalType": "uint256",
          "name": "amountOut",
          "type": "uint256"
        }
      ],
      "stateMutability": "pure",
      "type": "function"
    },
    {
      "inputs": [
        {
          "internalType": "address",
          "name": "tokenA",
          "type": "address"
        },
        {
          "internalType": "address",
          "name": "tokenB",
          "type": "address"
        }
      ],
      "name": "getPrice",
      "outputs": [
        {
          "internalType": "uint256",
          "name": "price",
          "type": "uint256"
        }
      ],
      "stateMutability": "view",
      "type": "function"
    },
    {
      "inputs": [],
      "name": "name",
      "outputs": [
        {
          "internalType": "string",
          "name": "",
          "type": "string"
        }
      ],
      "stateMutability": "view",
      "type": "function"
    },
    {
      "inputs": [
        {
          "internalType": "bytes32",
          "name": "",
          "type": "bytes32"
        }
      ],
      "name": "pools",
      "outputs": [
        {
          "internalType": "uint256",
          "name": "reserveA",
          "type": "uint256"
        },
        {
          "internalType": "uint256",
          "name": "reserveB",
          "type": "uint256"
        },
        {
          "internalType": "uint256",
          "name": "totalLiquidity",
          "type": "uint256"
        }
      ],
      "stateMutability": "view",
      "type": "function"
    },
    {
      "inputs": [
        {
          "internalType": "address",
          "name": "tokenA",
          "type": "address"
        },
        {
          "internalType": "address",
          "name": "tokenB",
          "type": "address"
        },
        {
          "internalType": "uint256",
          "name": "liquidity",
          "type": "uint256"
        },
        {
          "internalType": "uint256",
          "name": "amountAMin",
          "type": "uint256"
        },
        {
          "internalType": "uint256",
          "name": "amountBMin",
          "type": "uint256"
        },
        {
          "internalType": "address",
          "name": "to",
          "type": "address"
        },
        {
          "internalType": "uint256",
          "name": "deadline",
          "type": "uint256"
        }
      ],
      "name": "removeLiquidity",
      "outputs": [
        {
          "internalType": "uint256",
          "name": "amountASent",
          "type": "uint256"
        },
        {
          "internalType": "uint256",
          "name": "amountBSent",
          "type": "uint256"
        }
      ],
      "stateMutability": "nonpayable",
      "type": "function"
    },
    {
      "inputs": [
        {
          "internalType": "uint256",
          "name": "amountIn",
          "type": "uint256"
        },
        {
          "internalType": "uint256",
          "name": "amountOutMin",
          "type": "uint256"
        },
        {
          "internalType": "address[]",
          "name": "path",
          "type": "address[]"
        },
        {
          "internalType": "address",
          "name": "to",
          "type": "address"
        },
        {
          "internalType": "uint256",
          "name": "deadline",
          "type": "uint256"
        }
      ],
      "name": "swapExactTokensForTokens",
      "outputs": [],
      "stateMutability": "nonpayable",
      "type": "function"
    },
    {
      "inputs": [],
      "name": "symbol",
      "outputs": [
        {
          "internalType": "string",
          "name": "",
          "type": "string"
        }
      ],
      "stateMutability": "view",
      "type": "function"
    },
    {
      "inputs": [],
      "name": "totalSupply",
      "outputs": [
        {
          "internalType": "uint256",
          "name": "",
          "type": "uint256"
        }
      ],
      "stateMutability": "view",
      "type": "function"
    },
    {
      "inputs": [
        {
          "internalType": "address",
          "name": "to",
          "type": "address"
        },
        {
          "internalType": "uint256",
          "name": "value",
          "type": "uint256"
        }
      ],
      "name": "transfer",
      "outputs": [
        {
          "internalType": "bool",
          "name": "",
          "type": "bool"
        }
      ],
      "stateMutability": "nonpayable",
      "type": "function"
    },
    {
      "inputs": [
        {
          "internalType": "address",
          "name": "from",
          "type": "address"
        },
        {
          "internalType": "address",
          "name": "to",
          "type": "address"
        },
        {
          "internalType": "uint256",
          "name": "value",
          "type": "uint256"
        }
      ],
      "name": "transferFrom",
      "outputs": [
        {
          "internalType": "bool",
          "name": "",
          "type": "bool"
        }
      ],
      "stateMutability": "nonpayable",
      "type": "function"
    }
  ],
  "bytecode": "0x608060405234801561001057600080fd5b506040518060400160405280600f81526020017f4c697175696469747920546f6b656e00000000000000000000000000000000008152506040518060400160405280600281526020017f4c54000000000000000000000000000000000000000000000000000000000000815250816003908161008c91906102f4565b50806004908161009c91906102f4565b5050506103c6565b600081519050919050565b7f4e487b7100000000000000000000000000000000000000000000000000000000600052604160045260246000fd5b7f4e487b7100000000000000000000000000000000000000000000000000000000600052602260045260246000fd5b6000600282049050600182168061012557607f821691505b602082108103610138576101376100de565b5b50919050565b60008190508160005260206000209050919050565b60006020601f8301049050919050565b600082821b905092915050565b6000600883026101a07fffffffffffffffffffffffffffffffffffffffffffffffffffffffffffffffff82610163565b6101aa8683610163565b95508019841693508086168417925050509392505050565b6000819050919050565b6000819050919050565b60006101f16101ec6101e7846101c2565b6101cc565b6101c2565b9050919050565b6000819050919050565b61020b836101d6565b61021f610217826101f8565b848454610170565b825550505050565b600090565b610234610227565b61023f818484610202565b505050565b5b818110156102635761025860008261022c565b600181019050610245565b5050565b601f8211156102a8576102798161013e565b61028284610153565b81016020851015610291578190505b6102a561029d85610153565b830182610244565b50505b505050565b600082821c905092915050565b60006102cb600019846008026102ad565b1980831691505092915050565b60006102e483836102ba565b9150826002028217905092915050565b6102fd826100a4565b67ffffffffffffffff811115610316576103156100af565b5b610320825461010d565b61032b828285610267565b600060209050601f83116001811461035e576000841561034c578287015190505b61035685826102d8565b8655506103be565b601f19841661036c8661013e565b60005b828110156103945784890151825560018201915060208501945060208101905061036f565b868310156103b157848901516103ad601f8916826102ba565b8355505b6001600288020188555050505b505050505050565b612935806103d56000396000f3fe608060405234801561001057600080fd5b50600436106100f55760003560e01c806370a0823111610097578063b5217bb411610066578063b5217bb4146102ae578063baa2abde146102e0578063dd62ed3e14610311578063e8e3370014610341576100f5565b806370a082311461020057806395d89b4114610230578063a9059cbb1461024e578063ac41865a1461027e576100f5565b806318160ddd116100d357806318160ddd1461017857806323b872dd14610196578063313ce567146101c657806338ed1739146101e4576100f5565b8063054d50d4146100fa57806306fdde031461012a578063095ea7b314610148575b600080fd5b610114600480360381019061010f9190611b5d565b610373565b6040516101219190611bbf565b60405180910390f35b6101326103fa565b60405161013f9190611c6a565b60405180910390f35b610162600480360381019061015d9190611cea565b61048c565b60405161016f9190611d45565b60405180910390f35b6101806104af565b60405161018d9190611bbf565b60405180910390f35b6101b060048036038101906101ab9190611d60565b6104b9565b6040516101bd9190611d45565b60405180910390f35b6101ce6104e8565b6040516101db9190611dcf565b60405180910390f35b6101fe60048036038101906101f99190611e4f565b6104f1565b005b61021a60048036038101906102159190611ee9565b610893565b6040516102279190611bbf565b60405180910390f35b6102386108db565b6040516102459190611c6a565b60405180910390f35b61026860048036038101906102639190611cea565b61096d565b6040516102759190611d45565b60405180910390f35b61029860048036038101906102939190611f16565b610990565b6040516102a59190611bbf565b60405180910390f35b6102c860048036038101906102c39190611f8c565b610a67565b6040516102d793929190611fb9565b60405180910390f35b6102fa60048036038101906102f59190611ff0565b610a91565b604051610308929190612092565b60405180910390f35b61032b60048036038101906103269190611f16565b610dce565b6040516103389190611bbf565b60405180910390f35b61035b600480360381019061035691906120bb565b610e55565b60405161036a93929190611fb9565b60405180910390f35b600080841180156103845750600083115b80156103905750600082115b6103cf576040517f08c379a00000000000000000000000000000000000000000000000000000000081526004016103c6906121bd565b60405180910390fd5b83836103db919061220c565b82856103e79190612240565b6103f191906122b1565b90509392505050565b60606003805461040990612311565b80601f016020809104026020016040519081016040528092919081815260200182805461043590612311565b80156104825780601f1061045757610100808354040283529160200191610482565b820191906000526020600020905b81548152906001019060200180831161046557829003601f168201915b5050505050905090565b600080610497611227565b90506104a481858561122f565b600191505092915050565b6000600254905090565b6000806104c4611227565b90506104d1858285611241565b6104dc8585856112d6565b60019150509392505050565b60006012905090565b80421115610534576040517f08c379a000000000000000000000000000000000000000000000000000000000815260040161052b9061238e565b60405180910390fd5b6002848490501480156105475750600086115b610586576040517f08c379a000000000000000000000000000000000000000000000000000000000815260040161057d906123fa565b60405180910390fd5b60006105e28585600081811061059f5761059e61241a565b5b90506020020160208101906105b49190611ee9565b868660018181106105c8576105c761241a565b5b90506020020160208101906105dd9190611ee9565b6113ca565b905060006005600083815260200190815260200160002060405180606001604052908160008201548152602001600182015481526020016002820154815250509050600081604001511161066b576040517f08c379a000000000000000000000000000000000000000000000000000000000815260040161066290612495565b60405180910390fd5b600081600001519050600082602001519050600061068a8b8484610373565b9050898110156106cf576040517f08c379a00000000000000000000000000000000000000000000000000000000081526004016106c690612501565b60405180910390fd5b888860008181106106e3576106e261241a565b5b90506020020160208101906106f89190611ee9565b73ffffffffffffffffffffffffffffffffffffffff166323b872dd33308e6040518463ffffffff1660e01b815260040161073493929190612530565b6020604051808303816000875af1158015610753573d6000803e3d6000fd5b505050506040513d601f19601f820116820180604052508101906107779190612593565b508888600181811061078c5761078b61241a565b5b90506020020160208101906107a19190611ee9565b73ffffffffffffffffffffffffffffffffffffffff1663a9059cbb88836040518363ffffffff1660e01b81526004016107db9291906125c0565b6020604051808303816000875af11580156107fa573d6000803e3d6000fd5b505050506040513d601f19601f8201168201806040525081019061081e9190612593565b508a84600001818151610831919061220c565b91508181525050808460200181815161084a91906125e9565b9150818152505083600560008781526020019081526020016000206000820151816000015560208201518160010155604082015181600201559050505050505050505050505050565b60008060008373ffffffffffffffffffffffffffffffffffffffff1673ffffffffffffffffffffffffffffffffffffffff168152602001908152602001600020549050919050565b6060600480546108ea90612311565b80601f016020809104026020016040519081016040528092919081815260200182805461091690612311565b80156109635780601f1061093857610100808354040283529160200191610963565b820191906000526020600020905b81548152906001019060200180831161094657829003601f168201915b5050505050905090565b600080610978611227565b90506109858185856112d6565b600191505092915050565b60008061099d84846113ca565b905060006005600083815260200190815260200160002060405180606001604052908160008201548152602001600182015481526020016002820154815250509050600081600001511180156109f7575060008160200151115b610a36576040517f08c379a0000000000000000000000000000000000000000000000000000000008152600401610a2d90612669565b60405180910390fd5b8060000151670de0b6b3a76400008260200151610a539190612240565b610a5d91906122b1565b9250505092915050565b60056020528060005260406000206000915090508060000154908060010154908060020154905083565b60008082421115610ad7576040517f08c379a0000000000000000000000000000000000000000000000000000000008152600401610ace9061238e565b60405180910390fd5b86610ae133610893565b1015610b22576040517f08c379a0000000000000000000000000000000000000000000000000000000008152600401610b19906126d5565b60405180910390fd5b6000610b2e8a8a6113ca565b905060006005600083815260200190815260200160002060405180606001604052908160008201548152602001600182015481526020016002820154815250509050806040015181600001518a610b859190612240565b610b8f91906122b1565b9350806040015181602001518a610ba69190612240565b610bb091906122b1565b925087841015610bf5576040517f08c379a0000000000000000000000000000000000000000000000000000000008152600401610bec90612741565b60405180910390fd5b86831015610c38576040517f08c379a0000000000000000000000000000000000000000000000000000000008152600401610c2f906127ad565b60405180910390fd5b8381600001818151610c4a91906125e9565b915081815250508281602001818151610c6391906125e9565b915081815250508881604001818151610c7c91906125e9565b915081815250508060056000848152602001908152602001600020600082015181600001556020820151816001015560408201518160020155905050610cc2338a611443565b8a73ffffffffffffffffffffffffffffffffffffffff1663a9059cbb87866040518363ffffffff1660e01b8152600401610cfd9291906125c0565b6020604051808303816000875af1158015610d1c573d6000803e3d6000fd5b505050506040513d601f19601f82011682018060405250810190610d409190612593565b508973ffffffffffffffffffffffffffffffffffffffff1663a9059cbb87856040518363ffffffff1660e01b8152600401610d7c9291906125c0565b6020604051808303816000875af1158015610d9b573d6000803e3d6000fd5b505050506040513d601f19601f82011682018060405250810190610dbf9190612593565b50505097509795505050505050565b6000600160008473ffffffffffffffffffffffffffffffffffffffff1673ffffffffffffffffffffffffffffffffffffffff16815260200190815260200160002060008373ffffffffffffffffffffffffffffffffffffffff1673ffffffffffffffffffffffffffffffffffffffff16815260200190815260200160002054905092915050565b600080600083421115610e9d576040517f08c379a0000000000000000000000000000000000000000000000000000000008152600401610e949061238e565b60405180910390fd5b6000610ea98c8c6113ca565b9050600060056000838152602001908152602001600020604051806060016040529081600082015481526020016001820154815260200160028201548152505090506000816040015103610f18578a9450899350610f118486610f0c9190612240565b6114c5565b9250611048565b6000816000015182602001518d610f2f9190612240565b610f3991906122b1565b90508a8111610f905788811015610f85576040517f08c379a0000000000000000000000000000000000000000000000000000000008152600401610f7c906127ad565b60405180910390fd5b8b9550809450610ffe565b6000826020015183600001518d610fa79190612240565b610fb191906122b1565b90508a811015610ff6576040517f08c379a0000000000000000000000000000000000000000000000000000000008152600401610fed90612741565b60405180910390fd5b8096508b9550505b61104482600001518360400151886110169190612240565b61102091906122b1565b83602001518460400151886110359190612240565b61103f91906122b1565b611662565b9350505b6000831161108b576040517f08c379a000000000000000000000000000000000000000000000000000000000815260040161108290612819565b60405180910390fd5b8c73ffffffffffffffffffffffffffffffffffffffff166323b872dd3330886040518463ffffffff1660e01b81526004016110c893929190612530565b6020604051808303816000875af11580156110e7573d6000803e3d6000fd5b505050506040513d601f19601f8201168201806040525081019061110b9190612593565b508b73ffffffffffffffffffffffffffffffffffffffff166323b872dd3330876040518463ffffffff1660e01b815260040161114993929190612530565b6020604051808303816000875af1158015611168573d6000803e3d6000fd5b505050506040513d601f19601f8201168201806040525081019061118c9190612593565b50848160000181815161119f919061220c565b9150818152505083816020018181516111b8919061220c565b9150818152505082816040018181516111d1919061220c565b9150818152505080600560008481526020019081526020016000206000820151816000015560208201518160010155604082015181600201559050506112178784611679565b5050985098509895505050505050565b600033905090565b61123c83838360016116fb565b505050565b600061124d8484610dce565b90507fffffffffffffffffffffffffffffffffffffffffffffffffffffffffffffffff8110156112d057818110156112c0578281836040517ffb8f41b20000000000000000000000000000000000000000000000000000000081526004016112b793929190612839565b60405180910390fd5b6112cf848484840360006116fb565b5b50505050565b600073ffffffffffffffffffffffffffffffffffffffff168373ffffffffffffffffffffffffffffffffffffffff16036113485760006040517f96c6fd1e00000000000000000000000000000000000000000000000000000000815260040161133f9190612870565b60405180910390fd5b600073ffffffffffffffffffffffffffffffffffffffff168273ffffffffffffffffffffffffffffffffffffffff16036113ba5760006040517fec442f050000000000000000000000000000000000000000000000000000000081526004016113b19190612870565b60405180910390fd5b6113c58383836118d2565b505050565b60008060008373ffffffffffffffffffffffffffffffffffffffff168573ffffffffffffffffffffffffffffffffffffffff161061140957838561140c565b84845b9150915081816040516020016114239291906128d3565b604051602081830303815290604052805190602001209250505092915050565b600073ffffffffffffffffffffffffffffffffffffffff168273ffffffffffffffffffffffffffffffffffffffff16036114b55760006040517f96c6fd1e0000000000000000000000000000000000000000000000000000000081526004016114ac9190612870565b60405180910390fd5b6114c1826000836118d2565b5050565b6000600182116114d75781905061165d565b6000829050600060019050700100000000000000000000000000000000821061150957608082901c9150604081901b90505b68010000000000000000821061152857604082901c9150602081901b90505b640100000000821061154357602082901c9150601081901b90505b62010000821061155c57601082901c9150600881901b90505b610100821061157457600882901c9150600481901b90505b6010821061158b57600482901c9150600281901b90505b6004821061159b57600181901b90505b600181600302901c905060018185816115b7576115b6612282565b5b048201901c905060018185816115d0576115cf612282565b5b048201901c905060018185816115e9576115e8612282565b5b048201901c9050600181858161160257611601612282565b5b048201901c9050600181858161161b5761161a612282565b5b048201901c9050600181858161163457611633612282565b5b048201901c905061165681858161164e5761164d612282565b5b048211611af7565b8103925050505b919050565b60006116718284108484611b03565b905092915050565b600073ffffffffffffffffffffffffffffffffffffffff168273ffffffffffffffffffffffffffffffffffffffff16036116eb5760006040517fec442f050000000000000000000000000000000000000000000000000000000081526004016116e29190612870565b60405180910390fd5b6116f7600083836118d2565b5050565b600073ffffffffffffffffffffffffffffffffffffffff168473ffffffffffffffffffffffffffffffffffffffff160361176d5760006040517fe602df050000000000000000000000000000000000000000000000000000000081526004016117649190612870565b60405180910390fd5b600073ffffffffffffffffffffffffffffffffffffffff168373ffffffffffffffffffffffffffffffffffffffff16036117df5760006040517f94280d620000000000000000000000000000000000000000000000000000000081526004016117d69190612870565b60405180910390fd5b81600160008673ffffffffffffffffffffffffffffffffffffffff1673ffffffffffffffffffffffffffffffffffffffff16815260200190815260200160002060008573ffffffffffffffffffffffffffffffffffffffff1673ffffffffffffffffffffffffffffffffffffffff1681526020019081526020016000208190555080156118cc578273ffffffffffffffffffffffffffffffffffffffff168473ffffffffffffffffffffffffffffffffffffffff167f8c5be1e5ebec7d5bd14f71427d1e84f3dd0314c0f7b2291e5b200ac8c7c3b925846040516118c39190611bbf565b60405180910390a35b50505050565b600073ffffffffffffffffffffffffffffffffffffffff168373ffffffffffffffffffffffffffffffffffffffff1603611924578060026000828254611918919061220c565b925050819055506119f7565b60008060008573ffffffffffffffffffffffffffffffffffffffff1673ffffffffffffffffffffffffffffffffffffffff168152602001908152602001600020549050818110156119b0578381836040517fe450d38c0000000000000000000000000000000000000000000000000000000081526004016119a793929190612839565b60405180910390fd5b8181036000808673ffffffffffffffffffffffffffffffffffffffff1673ffffffffffffffffffffffffffffffffffffffff16815260200190815260200160002081905550505b600073ffffffffffffffffffffffffffffffffffffffff168273ffffffffffffffffffffffffffffffffffffffff1603611a405780600260008282540392505081905550611a8d565b806000808473ffffffffffffffffffffffffffffffffffffffff1673ffffffffffffffffffffffffffffffffffffffff168152602001908152602001600020600082825401925050819055505b8173ffffffffffffffffffffffffffffffffffffffff168373ffffffffffffffffffffffffffffffffffffffff167fddf252ad1be2c89b69c2b068fc378daa952ba7f163c4a11628f55a4df523b3ef83604051611aea9190611bbf565b60405180910390a3505050565b60008115159050919050565b6000611b0e84611af7565b82841802821890509392505050565b600080fd5b600080fd5b6000819050919050565b611b3a81611b27565b8114611b4557600080fd5b50565b600081359050611b5781611b31565b92915050565b600080600060608486031215611b7657611b75611b1d565b5b6000611b8486828701611b48565b9350506020611b9586828701611b48565b9250506040611ba686828701611b48565b9150509250925092565b611bb981611b27565b82525050565b6000602082019050611bd46000830184611bb0565b92915050565b600081519050919050565b600082825260208201905092915050565b60005b83811015611c14578082015181840152602081019050611bf9565b60008484015250505050565b6000601f19601f8301169050919050565b6000611c3c82611bda565b611c468185611be5565b9350611c56818560208601611bf6565b611c5f81611c20565b840191505092915050565b60006020820190508181036000830152611c848184611c31565b905092915050565b600073ffffffffffffffffffffffffffffffffffffffff82169050919050565b6000611cb782611c8c565b9050919050565b611cc781611cac565b8114611cd257600080fd5b50565b600081359050611ce481611cbe565b92915050565b60008060408385031215611d0157611d00611b1d565b5b6000611d0f85828601611cd5565b9250506020611d2085828601611b48565b9150509250929050565b60008115159050919050565b611d3f81611d2a565b82525050565b6000602082019050611d5a6000830184611d36565b92915050565b600080600060608486031215611d7957611d78611b1d565b5b6000611d8786828701611cd5565b9350506020611d9886828701611cd5565b9250506040611da986828701611b48565b9150509250925092565b600060ff82169050919050565b611dc981611db3565b82525050565b6000602082019050611de46000830184611dc0565b92915050565b600080fd5b600080fd5b600080fd5b60008083601f840112611e0f57611e0e611dea565b5b8235905067ffffffffffffffff811115611e2c57611e2b611def565b5b602083019150836020820283011115611e4857611e47611df4565b5b9250929050565b60008060008060008060a08789031215611e6c57611e6b611b1d565b5b6000611e7a89828a01611b48565b9650506020611e8b89828a01611b48565b955050604087013567ffffffffffffffff811115611eac57611eab611b22565b5b611eb889828a01611df9565b94509450506060611ecb89828a01611cd5565b9250506080611edc89828a01611b48565b9150509295509295509295565b600060208284031215611eff57611efe611b1d565b5b6000611f0d84828501611cd5565b91505092915050565b60008060408385031215611f2d57611f2c611b1d565b5b6000611f3b85828601611cd5565b9250506020611f4c85828601611cd5565b9150509250929050565b6000819050919050565b611f6981611f56565b8114611f7457600080fd5b50565b600081359050611f8681611f60565b92915050565b600060208284031215611fa257611fa1611b1d565b5b6000611fb084828501611f77565b91505092915050565b6000606082019050611fce6000830186611bb0565b611fdb6020830185611bb0565b611fe86040830184611bb0565b949350505050565b600080600080600080600060e0888a03121561200f5761200e611b1d565b5b600061201d8a828b01611cd5565b975050602061202e8a828b01611cd5565b965050604061203f8a828b01611b48565b95505060606120508a828b01611b48565b94505060806120618a828b01611b48565b93505060a06120728a828b01611cd5565b92505060c06120838a828b01611b48565b91505092959891949750929550565b60006040820190506120a76000830185611bb0565b6120b46020830184611bb0565b9392505050565b600080600080600080600080610100898b0312156120dc576120db611b1d565b5b60006120ea8b828c01611cd5565b98505060206120fb8b828c01611cd5565b975050604061210c8b828c01611b48565b965050606061211d8b828c01611b48565b955050608061212e8b828c01611b48565b94505060a061213f8b828c01611b48565b93505060c06121508b828c01611cd5565b92505060e06121618b828c01611b48565b9150509295985092959890939650565b7f42616420696e7075747300000000000000000000000000000000000000000000600082015250565b60006121a7600a83611be5565b91506121b282612171565b602082019050919050565b600060208201905081810360008301526121d68161219a565b9050919050565b7f4e487b7100000000000000000000000000000000000000000000000000000000600052601160045260246000fd5b600061221782611b27565b915061222283611b27565b925082820190508082111561223a576122396121dd565b5b92915050565b600061224b82611b27565b915061225683611b27565b925082820261226481611b27565b9150828204841483151761227b5761227a6121dd565b5b5092915050565b7f4e487b7100000000000000000000000000000000000000000000000000000000600052601260045260246000fd5b60006122bc82611b27565b91506122c783611b27565b9250826122d7576122d6612282565b5b828204905092915050565b7f4e487b7100000000000000000000000000000000000000000000000000000000600052602260045260246000fd5b6000600282049050600182168061232957607f821691505b60208210810361233c5761233b6122e2565b5b50919050565b7f4578706972656400000000000000000000000000000000000000000000000000600082015250565b6000612378600783611be5565b915061238382612342565b602082019050919050565b600060208201905081810360008301526123a78161236b565b9050919050565b7f42616420706172616d7300000000000000000000000000000000000000000000600082015250565b60006123e4600a83611be5565b91506123ef826123ae565b602082019050919050565b60006020820190508181036000830152612413816123d7565b9050919050565b7f4e487b7100000000000000000000000000000000000000000000000000000000600052603260045260246000fd5b7f506f6f6c20656d70747900000000000000000000000000000000000000000000600082015250565b600061247f600a83611be5565b915061248a82612449565b602082019050919050565b600060208201905081810360008301526124ae81612472565b9050919050565b7f536c697070616765000000000000000000000000000000000000000000000000600082015250565b60006124eb600883611be5565b91506124f6826124b5565b602082019050919050565b6000602082019050818103600083015261251a816124de565b9050919050565b61252a81611cac565b82525050565b60006060820190506125456000830186612521565b6125526020830185612521565b61255f6040830184611bb0565b949350505050565b61257081611d2a565b811461257b57600080fd5b50565b60008151905061258d81612567565b92915050565b6000602082840312156125a9576125a8611b1d565b5b60006125b78482850161257e565b91505092915050565b60006040820190506125d56000830185612521565b6125e26020830184611bb0565b9392505050565b60006125f482611b27565b91506125ff83611b27565b9250828203905081811115612617576126166121dd565b5b92915050565b7f4e6f207265736572766573000000000000000000000000000000000000000000600082015250565b6000612653600b83611be5565b915061265e8261261d565b602082019050919050565b6000602082019050818103600083015261268281612646565b9050919050565b7f4c50206c6f770000000000000000000000000000000000000000000000000000600082015250565b60006126bf600683611be5565b91506126ca82612689565b602082019050919050565b600060208201905081810360008301526126ee816126b2565b9050919050565b7f536c697070616765204100000000000000000000000000000000000000000000600082015250565b600061272b600a83611be5565b9150612736826126f5565b602082019050919050565b6000602082019050818103600083015261275a8161271e565b9050919050565b7f536c697070616765204200000000000000000000000000000000000000000000600082015250565b6000612797600a83611be5565b91506127a282612761565b602082019050919050565b600060208201905081810360008301526127c68161278a565b9050919050565b7f4c49513d30000000000000000000000000000000000000000000000000000000600082015250565b6000612803600583611be5565b915061280e826127cd565b602082019050919050565b60006020820190508181036000830152612832816127f6565b9050919050565b600060608201905061284e6000830186612521565b61285b6020830185611bb0565b6128686040830184611bb0565b949350505050565b60006020820190506128856000830184612521565b92915050565b60008160601b9050919050565b60006128a38261288b565b9050919050565b60006128b582612898565b9050919050565b6128cd6128c882611cac565b6128aa565b82525050565b60006128df82856128bc565b6014820191506128ef82846128bc565b601482019150819050939250505056fea2646970667358221220ff68c86294c712c9d5cbd06fcf03d542debf156ba64b6998a55898cb8471529864736f6c634300081e0033",
  "linkReferences": {},
  "deployedLinkReferences": {}
}